{
	"contracts/attendance.sol": {
		"ClassAttendance": {
			"abi": [
				{
					"inputs": [],
					"stateMutability": "nonpayable",
					"type": "constructor"
				},
				{
					"anonymous": false,
					"inputs": [
						{
							"indexed": false,
							"internalType": "string",
							"name": "studentId",
							"type": "string"
						},
						{
							"indexed": false,
							"internalType": "uint256",
							"name": "date",
							"type": "uint256"
						},
						{
							"indexed": false,
							"internalType": "bool",
							"name": "present",
							"type": "bool"
						}
					],
					"name": "AttendanceMarked",
					"type": "event"
				},
				{
					"anonymous": false,
					"inputs": [
						{
							"indexed": false,
							"internalType": "string",
							"name": "studentId",
							"type": "string"
						}
					],
					"name": "StudentRegistered",
					"type": "event"
				},
				{
					"inputs": [
						{
							"internalType": "string",
							"name": "",
							"type": "string"
						},
						{
							"internalType": "uint256",
							"name": "",
							"type": "uint256"
						}
					],
					"name": "attendance",
					"outputs": [
						{
							"internalType": "bool",
							"name": "",
							"type": "bool"
						}
					],
					"stateMutability": "view",
					"type": "function"
				},
				{
					"inputs": [
						{
							"internalType": "string",
							"name": "studentId",
							"type": "string"
						},
						{
							"internalType": "uint256",
							"name": "date",
							"type": "uint256"
						}
					],
					"name": "checkAttendance",
					"outputs": [
						{
							"internalType": "bool",
							"name": "",
							"type": "bool"
						}
					],
					"stateMutability": "view",
					"type": "function"
				},
				{
					"inputs": [
						{
							"internalType": "string",
							"name": "",
							"type": "string"
						}
					],
					"name": "isRegistered",
					"outputs": [
						{
							"internalType": "bool",
							"name": "",
							"type": "bool"
						}
					],
					"stateMutability": "view",
					"type": "function"
				},
				{
					"inputs": [
						{
							"internalType": "string",
							"name": "studentId",
							"type": "string"
						},
						{
							"internalType": "uint256",
							"name": "date",
							"type": "uint256"
						},
						{
							"internalType": "bool",
							"name": "present",
							"type": "bool"
						}
					],
					"name": "markAttendance",
					"outputs": [],
					"stateMutability": "nonpayable",
					"type": "function"
				},
				{
					"inputs": [
						{
							"internalType": "string",
							"name": "studentId",
							"type": "string"
						}
					],
					"name": "registerStudent",
					"outputs": [],
					"stateMutability": "nonpayable",
					"type": "function"
				},
				{
					"inputs": [],
					"name": "teacher",
					"outputs": [
						{
							"internalType": "address",
							"name": "",
							"type": "address"
						}
					],
					"stateMutability": "view",
					"type": "function"
				}
			],
			"devdoc": {
				"kind": "dev",
				"methods": {
					"markAttendance(string,uint256,bool)": {
						"params": {
							"date": "A number like 20250101 (YYYYMMDD)",
							"studentId": "A unique string ID"
						}
					}
				},
				"version": 1
			},
			"evm": {
				"assembly": "    /* \"contracts/attendance.sol\":61:1711  contract ClassAttendance {... */\n  mstore(0x40, 0x80)\n    /* \"contracts/attendance.sol\":124:205  constructor() {... */\n  callvalue\n  dup1\n  iszero\n  tag_1\n  jumpi\n  revert(0x00, 0x00)\ntag_1:\n  pop\n    /* \"contracts/attendance.sol\":159:169  msg.sender */\n  caller\n    /* \"contracts/attendance.sol\":149:156  teacher */\n  0x00\n  0x00\n    /* \"contracts/attendance.sol\":149:169  teacher = msg.sender */\n  0x0100\n  exp\n  dup2\n  sload\n  dup2\n  0xffffffffffffffffffffffffffffffffffffffff\n  mul\n  not\n  and\n  swap1\n  dup4\n  0xffffffffffffffffffffffffffffffffffffffff\n  and\n  mul\n  or\n  swap1\n  sstore\n  pop\n    /* \"contracts/attendance.sol\":61:1711  contract ClassAttendance {... */\n  dataSize(sub_0)\n  dup1\n  dataOffset(sub_0)\n  0x00\n  codecopy\n  0x00\n  return\nstop\n\nsub_0: assembly {\n        /* \"contracts/attendance.sol\":61:1711  contract ClassAttendance {... */\n      mstore(0x40, 0x80)\n      callvalue\n      dup1\n      iszero\n      tag_1\n      jumpi\n      revert(0x00, 0x00)\n    tag_1:\n      pop\n      jumpi(tag_2, lt(calldatasize, 0x04))\n      shr(0xe0, calldataload(0x00))\n      dup1\n      0x71e17445\n      eq\n      tag_3\n      jumpi\n      dup1\n      0x801773df\n      eq\n      tag_4\n      jumpi\n      dup1\n      0xa1e241b3\n      eq\n      tag_5\n      jumpi\n      dup1\n      0xb46bff89\n      eq\n      tag_6\n      jumpi\n      dup1\n      0xc822d7f0\n      eq\n      tag_7\n      jumpi\n      dup1\n      0xf6705d6e\n      eq\n      tag_8\n      jumpi\n    tag_2:\n      revert(0x00, 0x00)\n        /* \"contracts/attendance.sol\":732:968  function registerStudent(string memory studentId) public onlyTeacher {... */\n    tag_3:\n      tag_9\n      0x04\n      dup1\n      calldatasize\n      sub\n      dup2\n      add\n      swap1\n      tag_10\n      swap2\n      swap1\n      tag_11\n      jump\t// in\n    tag_10:\n      tag_12\n      jump\t// in\n    tag_9:\n      stop\n        /* \"contracts/attendance.sol\":468:529  mapping(string => mapping(uint256 => bool)) public attendance */\n    tag_4:\n      tag_13\n      0x04\n      dup1\n      calldatasize\n      sub\n      dup2\n      add\n      swap1\n      tag_14\n      swap2\n      swap1\n      tag_15\n      jump\t// in\n    tag_14:\n      tag_16\n      jump\t// in\n    tag_13:\n      mload(0x40)\n      tag_17\n      swap2\n      swap1\n      tag_18\n      jump\t// in\n    tag_17:\n      mload(0x40)\n      dup1\n      swap2\n      sub\n      swap1\n      return\n        /* \"contracts/attendance.sol\":1539:1708  function checkAttendance(... */\n    tag_5:\n      tag_19\n      0x04\n      dup1\n      calldatasize\n      sub\n      dup2\n      add\n      swap1\n      tag_20\n      swap2\n      swap1\n      tag_15\n      jump\t// in\n    tag_20:\n      tag_21\n      jump\t// in\n    tag_19:\n      mload(0x40)\n      tag_22\n      swap2\n      swap1\n      tag_18\n      jump\t// in\n    tag_22:\n      mload(0x40)\n      dup1\n      swap2\n      sub\n      swap1\n      return\n        /* \"contracts/attendance.sol\":93:115  address public teacher */\n    tag_6:\n      tag_23\n      tag_24\n      jump\t// in\n    tag_23:\n      mload(0x40)\n      tag_25\n      swap2\n      swap1\n      tag_26\n      jump\t// in\n    tag_25:\n      mload(0x40)\n      dup1\n      swap2\n      sub\n      swap1\n      return\n        /* \"contracts/attendance.sol\":369:412  mapping(string => bool) public isRegistered */\n    tag_7:\n      tag_27\n      0x04\n      dup1\n      calldatasize\n      sub\n      dup2\n      add\n      swap1\n      tag_28\n      swap2\n      swap1\n      tag_11\n      jump\t// in\n    tag_28:\n      tag_29\n      jump\t// in\n    tag_27:\n      mload(0x40)\n      tag_30\n      swap2\n      swap1\n      tag_18\n      jump\t// in\n    tag_30:\n      mload(0x40)\n      dup1\n      swap2\n      sub\n      swap1\n      return\n        /* \"contracts/attendance.sol\":1152:1469  function markAttendance(... */\n    tag_8:\n      tag_31\n      0x04\n      dup1\n      calldatasize\n      sub\n      dup2\n      add\n      swap1\n      tag_32\n      swap2\n      swap1\n      tag_33\n      jump\t// in\n    tag_32:\n      tag_34\n      jump\t// in\n    tag_31:\n      stop\n        /* \"contracts/attendance.sol\":732:968  function registerStudent(string memory studentId) public onlyTeacher {... */\n    tag_12:\n        /* \"contracts/attendance.sol\":269:276  teacher */\n      0x00\n      0x00\n      swap1\n      sload\n      swap1\n      0x0100\n      exp\n      swap1\n      div\n      0xffffffffffffffffffffffffffffffffffffffff\n      and\n        /* \"contracts/attendance.sol\":255:276  msg.sender == teacher */\n      0xffffffffffffffffffffffffffffffffffffffff\n      and\n        /* \"contracts/attendance.sol\":255:265  msg.sender */\n      caller\n        /* \"contracts/attendance.sol\":255:276  msg.sender == teacher */\n      0xffffffffffffffffffffffffffffffffffffffff\n      and\n      eq\n        /* \"contracts/attendance.sol\":247:301  require(msg.sender == teacher, \"Only teacher allowed\") */\n      tag_36\n      jumpi\n      mload(0x40)\n      0x08c379a000000000000000000000000000000000000000000000000000000000\n      dup2\n      mstore\n      0x04\n      add\n      tag_37\n      swap1\n      tag_38\n      jump\t// in\n    tag_37:\n      mload(0x40)\n      dup1\n      swap2\n      sub\n      swap1\n      revert\n    tag_36:\n        /* \"contracts/attendance.sol\":821:833  isRegistered */\n      0x01\n        /* \"contracts/attendance.sol\":834:843  studentId */\n      dup2\n        /* \"contracts/attendance.sol\":821:844  isRegistered[studentId] */\n      mload(0x40)\n      tag_40\n      swap2\n      swap1\n      tag_41\n      jump\t// in\n    tag_40:\n      swap1\n      dup2\n      mstore\n      0x20\n      add\n      mload(0x40)\n      dup1\n      swap2\n      sub\n      swap1\n      keccak256\n      0x00\n      swap1\n      sload\n      swap1\n      0x0100\n      exp\n      swap1\n      div\n      0xff\n      and\n        /* \"contracts/attendance.sol\":820:844  !isRegistered[studentId] */\n      iszero\n        /* \"contracts/attendance.sol\":812:875  require(!isRegistered[studentId], \"Student already registered\") */\n      tag_42\n      jumpi\n      mload(0x40)\n      0x08c379a000000000000000000000000000000000000000000000000000000000\n      dup2\n      mstore\n      0x04\n      add\n      tag_43\n      swap1\n      tag_44\n      jump\t// in\n    tag_43:\n      mload(0x40)\n      dup1\n      swap2\n      sub\n      swap1\n      revert\n    tag_42:\n        /* \"contracts/attendance.sol\":912:916  true */\n      0x01\n        /* \"contracts/attendance.sol\":886:898  isRegistered */\n      dup1\n        /* \"contracts/attendance.sol\":899:908  studentId */\n      dup3\n        /* \"contracts/attendance.sol\":886:909  isRegistered[studentId] */\n      mload(0x40)\n      tag_45\n      swap2\n      swap1\n      tag_41\n      jump\t// in\n    tag_45:\n      swap1\n      dup2\n      mstore\n      0x20\n      add\n      mload(0x40)\n      dup1\n      swap2\n      sub\n      swap1\n      keccak256\n      0x00\n        /* \"contracts/attendance.sol\":886:916  isRegistered[studentId] = true */\n      0x0100\n      exp\n      dup2\n      sload\n      dup2\n      0xff\n      mul\n      not\n      and\n      swap1\n      dup4\n      iszero\n      iszero\n      mul\n      or\n      swap1\n      sstore\n      pop\n        /* \"contracts/attendance.sol\":932:960  StudentRegistered(studentId) */\n      0xc3a6f43a7cc3fde4e2804af17db6de647d06bb0ad7c2e04192613b6517120d28\n        /* \"contracts/attendance.sol\":950:959  studentId */\n      dup2\n        /* \"contracts/attendance.sol\":932:960  StudentRegistered(studentId) */\n      mload(0x40)\n      tag_46\n      swap2\n      swap1\n      tag_47\n      jump\t// in\n    tag_46:\n      mload(0x40)\n      dup1\n      swap2\n      sub\n      swap1\n      log1\n        /* \"contracts/attendance.sol\":732:968  function registerStudent(string memory studentId) public onlyTeacher {... */\n      pop\n      jump\t// out\n        /* \"contracts/attendance.sol\":468:529  mapping(string => mapping(uint256 => bool)) public attendance */\n    tag_16:\n      0x02\n      dup3\n      dup1\n      mload\n      0x20\n      dup2\n      add\n      dup3\n      add\n      dup1\n      mload\n      dup5\n      dup3\n      mstore\n      0x20\n      dup4\n      add\n      0x20\n      dup6\n      add\n      keccak256\n      dup2\n      dup4\n      mstore\n      dup1\n      swap6\n      pop\n      pop\n      pop\n      pop\n      pop\n      pop\n      0x20\n      mstore\n      dup1\n      0x00\n      mstore\n      keccak256(0x00, 0x40)\n      0x00\n      swap2\n      pop\n      swap2\n      pop\n      swap1\n      sload\n      swap1\n      0x0100\n      exp\n      swap1\n      div\n      0xff\n      and\n      dup2\n      jump\t// out\n        /* \"contracts/attendance.sol\":1539:1708  function checkAttendance(... */\n    tag_21:\n        /* \"contracts/attendance.sol\":1649:1653  bool */\n      0x00\n        /* \"contracts/attendance.sol\":1673:1683  attendance */\n      0x02\n        /* \"contracts/attendance.sol\":1684:1693  studentId */\n      dup4\n        /* \"contracts/attendance.sol\":1673:1694  attendance[studentId] */\n      mload(0x40)\n      tag_49\n      swap2\n      swap1\n      tag_41\n      jump\t// in\n    tag_49:\n      swap1\n      dup2\n      mstore\n      0x20\n      add\n      mload(0x40)\n      dup1\n      swap2\n      sub\n      swap1\n      keccak256\n        /* \"contracts/attendance.sol\":1673:1700  attendance[studentId][date] */\n      0x00\n        /* \"contracts/attendance.sol\":1695:1699  date */\n      dup4\n        /* \"contracts/attendance.sol\":1673:1700  attendance[studentId][date] */\n      dup2\n      mstore\n      0x20\n      add\n      swap1\n      dup2\n      mstore\n      0x20\n      add\n      0x00\n      keccak256\n      0x00\n      swap1\n      sload\n      swap1\n      0x0100\n      exp\n      swap1\n      div\n      0xff\n      and\n        /* \"contracts/attendance.sol\":1666:1700  return attendance[studentId][date] */\n      swap1\n      pop\n        /* \"contracts/attendance.sol\":1539:1708  function checkAttendance(... */\n      swap3\n      swap2\n      pop\n      pop\n      jump\t// out\n        /* \"contracts/attendance.sol\":93:115  address public teacher */\n    tag_24:\n      0x00\n      0x00\n      swap1\n      sload\n      swap1\n      0x0100\n      exp\n      swap1\n      div\n      0xffffffffffffffffffffffffffffffffffffffff\n      and\n      dup2\n      jump\t// out\n        /* \"contracts/attendance.sol\":369:412  mapping(string => bool) public isRegistered */\n    tag_29:\n      0x01\n      dup2\n      dup1\n      mload\n      0x20\n      dup2\n      add\n      dup3\n      add\n      dup1\n      mload\n      dup5\n      dup3\n      mstore\n      0x20\n      dup4\n      add\n      0x20\n      dup6\n      add\n      keccak256\n      dup2\n      dup4\n      mstore\n      dup1\n      swap6\n      pop\n      pop\n      pop\n      pop\n      pop\n      pop\n      0x00\n      swap2\n      pop\n      sload\n      swap1\n      0x0100\n      exp\n      swap1\n      div\n      0xff\n      and\n      dup2\n      jump\t// out\n        /* \"contracts/attendance.sol\":1152:1469  function markAttendance(... */\n    tag_34:\n        /* \"contracts/attendance.sol\":269:276  teacher */\n      0x00\n      0x00\n      swap1\n      sload\n      swap1\n      0x0100\n      exp\n      swap1\n      div\n      0xffffffffffffffffffffffffffffffffffffffff\n      and\n        /* \"contracts/attendance.sol\":255:276  msg.sender == teacher */\n      0xffffffffffffffffffffffffffffffffffffffff\n      and\n        /* \"contracts/attendance.sol\":255:265  msg.sender */\n      caller\n        /* \"contracts/attendance.sol\":255:276  msg.sender == teacher */\n      0xffffffffffffffffffffffffffffffffffffffff\n      and\n      eq\n        /* \"contracts/attendance.sol\":247:301  require(msg.sender == teacher, \"Only teacher allowed\") */\n      tag_51\n      jumpi\n      mload(0x40)\n      0x08c379a000000000000000000000000000000000000000000000000000000000\n      dup2\n      mstore\n      0x04\n      add\n      tag_52\n      swap1\n      tag_38\n      jump\t// in\n    tag_52:\n      mload(0x40)\n      dup1\n      swap2\n      sub\n      swap1\n      revert\n    tag_51:\n        /* \"contracts/attendance.sol\":1301:1313  isRegistered */\n      0x01\n        /* \"contracts/attendance.sol\":1314:1323  studentId */\n      dup4\n        /* \"contracts/attendance.sol\":1301:1324  isRegistered[studentId] */\n      mload(0x40)\n      tag_54\n      swap2\n      swap1\n      tag_41\n      jump\t// in\n    tag_54:\n      swap1\n      dup2\n      mstore\n      0x20\n      add\n      mload(0x40)\n      dup1\n      swap2\n      sub\n      swap1\n      keccak256\n      0x00\n      swap1\n      sload\n      swap1\n      0x0100\n      exp\n      swap1\n      div\n      0xff\n      and\n        /* \"contracts/attendance.sol\":1293:1351  require(isRegistered[studentId], \"Student not registered\") */\n      tag_55\n      jumpi\n      mload(0x40)\n      0x08c379a000000000000000000000000000000000000000000000000000000000\n      dup2\n      mstore\n      0x04\n      add\n      tag_56\n      swap1\n      tag_57\n      jump\t// in\n    tag_56:\n      mload(0x40)\n      dup1\n      swap2\n      sub\n      swap1\n      revert\n    tag_55:\n        /* \"contracts/attendance.sol\":1394:1401  present */\n      dup1\n        /* \"contracts/attendance.sol\":1364:1374  attendance */\n      0x02\n        /* \"contracts/attendance.sol\":1375:1384  studentId */\n      dup5\n        /* \"contracts/attendance.sol\":1364:1385  attendance[studentId] */\n      mload(0x40)\n      tag_58\n      swap2\n      swap1\n      tag_41\n      jump\t// in\n    tag_58:\n      swap1\n      dup2\n      mstore\n      0x20\n      add\n      mload(0x40)\n      dup1\n      swap2\n      sub\n      swap1\n      keccak256\n        /* \"contracts/attendance.sol\":1364:1391  attendance[studentId][date] */\n      0x00\n        /* \"contracts/attendance.sol\":1386:1390  date */\n      dup5\n        /* \"contracts/attendance.sol\":1364:1391  attendance[studentId][date] */\n      dup2\n      mstore\n      0x20\n      add\n      swap1\n      dup2\n      mstore\n      0x20\n      add\n      0x00\n      keccak256\n      0x00\n        /* \"contracts/attendance.sol\":1364:1401  attendance[studentId][date] = present */\n      0x0100\n      exp\n      dup2\n      sload\n      dup2\n      0xff\n      mul\n      not\n      and\n      swap1\n      dup4\n      iszero\n      iszero\n      mul\n      or\n      swap1\n      sstore\n      pop\n        /* \"contracts/attendance.sol\":1419:1461  AttendanceMarked(studentId, date, present) */\n      0x93523652616297f19b6fff3a5ab003eeec919a119da9aba03d5d6dcf19ab5af3\n        /* \"contracts/attendance.sol\":1436:1445  studentId */\n      dup4\n        /* \"contracts/attendance.sol\":1447:1451  date */\n      dup4\n        /* \"contracts/attendance.sol\":1453:1460  present */\n      dup4\n        /* \"contracts/attendance.sol\":1419:1461  AttendanceMarked(studentId, date, present) */\n      mload(0x40)\n      tag_59\n      swap4\n      swap3\n      swap2\n      swap1\n      tag_60\n      jump\t// in\n    tag_59:\n      mload(0x40)\n      dup1\n      swap2\n      sub\n      swap1\n      log1\n        /* \"contracts/attendance.sol\":1152:1469  function markAttendance(... */\n      pop\n      pop\n      pop\n      jump\t// out\n        /* \"#utility.yul\":7:82   */\n    tag_61:\n        /* \"#utility.yul\":40:46   */\n      0x00\n        /* \"#utility.yul\":73:75   */\n      0x40\n        /* \"#utility.yul\":67:76   */\n      mload\n        /* \"#utility.yul\":57:76   */\n      swap1\n      pop\n        /* \"#utility.yul\":7:82   */\n      swap1\n      jump\t// out\n        /* \"#utility.yul\":88:205   */\n    tag_62:\n        /* \"#utility.yul\":197:198   */\n      0x00\n        /* \"#utility.yul\":194:195   */\n      0x00\n        /* \"#utility.yul\":187:199   */\n      revert\n        /* \"#utility.yul\":211:328   */\n    tag_63:\n        /* \"#utility.yul\":320:321   */\n      0x00\n        /* \"#utility.yul\":317:318   */\n      0x00\n        /* \"#utility.yul\":310:322   */\n      revert\n        /* \"#utility.yul\":334:451   */\n    tag_64:\n        /* \"#utility.yul\":443:444   */\n      0x00\n        /* \"#utility.yul\":440:441   */\n      0x00\n        /* \"#utility.yul\":433:445   */\n      revert\n        /* \"#utility.yul\":457:574   */\n    tag_65:\n        /* \"#utility.yul\":566:567   */\n      0x00\n        /* \"#utility.yul\":563:564   */\n      0x00\n        /* \"#utility.yul\":556:568   */\n      revert\n        /* \"#utility.yul\":580:682   */\n    tag_66:\n        /* \"#utility.yul\":621:627   */\n      0x00\n        /* \"#utility.yul\":672:674   */\n      0x1f\n        /* \"#utility.yul\":668:675   */\n      not\n        /* \"#utility.yul\":663:665   */\n      0x1f\n        /* \"#utility.yul\":656:661   */\n      dup4\n        /* \"#utility.yul\":652:666   */\n      add\n        /* \"#utility.yul\":648:676   */\n      and\n        /* \"#utility.yul\":638:676   */\n      swap1\n      pop\n        /* \"#utility.yul\":580:682   */\n      swap2\n      swap1\n      pop\n      jump\t// out\n        /* \"#utility.yul\":688:868   */\n    tag_67:\n        /* \"#utility.yul\":736:813   */\n      0x4e487b7100000000000000000000000000000000000000000000000000000000\n        /* \"#utility.yul\":733:734   */\n      0x00\n        /* \"#utility.yul\":726:814   */\n      mstore\n        /* \"#utility.yul\":833:837   */\n      0x41\n        /* \"#utility.yul\":830:831   */\n      0x04\n        /* \"#utility.yul\":823:838   */\n      mstore\n        /* \"#utility.yul\":857:861   */\n      0x24\n        /* \"#utility.yul\":854:855   */\n      0x00\n        /* \"#utility.yul\":847:862   */\n      revert\n        /* \"#utility.yul\":874:1155   */\n    tag_68:\n        /* \"#utility.yul\":957:984   */\n      tag_106\n        /* \"#utility.yul\":979:983   */\n      dup3\n        /* \"#utility.yul\":957:984   */\n      tag_66\n      jump\t// in\n    tag_106:\n        /* \"#utility.yul\":949:955   */\n      dup2\n        /* \"#utility.yul\":945:985   */\n      add\n        /* \"#utility.yul\":1087:1093   */\n      dup2\n        /* \"#utility.yul\":1075:1085   */\n      dup2\n        /* \"#utility.yul\":1072:1094   */\n      lt\n        /* \"#utility.yul\":1051:1069   */\n      0xffffffffffffffff\n        /* \"#utility.yul\":1039:1049   */\n      dup3\n        /* \"#utility.yul\":1036:1070   */\n      gt\n        /* \"#utility.yul\":1033:1095   */\n      or\n        /* \"#utility.yul\":1030:1118   */\n      iszero\n      tag_107\n      jumpi\n        /* \"#utility.yul\":1098:1116   */\n      tag_108\n      tag_67\n      jump\t// in\n    tag_108:\n        /* \"#utility.yul\":1030:1118   */\n    tag_107:\n        /* \"#utility.yul\":1138:1148   */\n      dup1\n        /* \"#utility.yul\":1134:1136   */\n      0x40\n        /* \"#utility.yul\":1127:1149   */\n      mstore\n        /* \"#utility.yul\":917:1155   */\n      pop\n        /* \"#utility.yul\":874:1155   */\n      pop\n      pop\n      jump\t// out\n        /* \"#utility.yul\":1161:1290   */\n    tag_69:\n        /* \"#utility.yul\":1195:1201   */\n      0x00\n        /* \"#utility.yul\":1222:1242   */\n      tag_110\n      tag_61\n      jump\t// in\n    tag_110:\n        /* \"#utility.yul\":1212:1242   */\n      swap1\n      pop\n        /* \"#utility.yul\":1251:1284   */\n      tag_111\n        /* \"#utility.yul\":1279:1283   */\n      dup3\n        /* \"#utility.yul\":1271:1277   */\n      dup3\n        /* \"#utility.yul\":1251:1284   */\n      tag_68\n      jump\t// in\n    tag_111:\n        /* \"#utility.yul\":1161:1290   */\n      swap2\n      swap1\n      pop\n      jump\t// out\n        /* \"#utility.yul\":1296:1604   */\n    tag_70:\n        /* \"#utility.yul\":1358:1362   */\n      0x00\n        /* \"#utility.yul\":1448:1466   */\n      0xffffffffffffffff\n        /* \"#utility.yul\":1440:1446   */\n      dup3\n        /* \"#utility.yul\":1437:1467   */\n      gt\n        /* \"#utility.yul\":1434:1490   */\n      iszero\n      tag_113\n      jumpi\n        /* \"#utility.yul\":1470:1488   */\n      tag_114\n      tag_67\n      jump\t// in\n    tag_114:\n        /* \"#utility.yul\":1434:1490   */\n    tag_113:\n        /* \"#utility.yul\":1508:1537   */\n      tag_115\n        /* \"#utility.yul\":1530:1536   */\n      dup3\n        /* \"#utility.yul\":1508:1537   */\n      tag_66\n      jump\t// in\n    tag_115:\n        /* \"#utility.yul\":1500:1537   */\n      swap1\n      pop\n        /* \"#utility.yul\":1592:1596   */\n      0x20\n        /* \"#utility.yul\":1586:1590   */\n      dup2\n        /* \"#utility.yul\":1582:1597   */\n      add\n        /* \"#utility.yul\":1574:1597   */\n      swap1\n      pop\n        /* \"#utility.yul\":1296:1604   */\n      swap2\n      swap1\n      pop\n      jump\t// out\n        /* \"#utility.yul\":1610:1758   */\n    tag_71:\n        /* \"#utility.yul\":1708:1714   */\n      dup3\n        /* \"#utility.yul\":1703:1706   */\n      dup2\n        /* \"#utility.yul\":1698:1701   */\n      dup4\n        /* \"#utility.yul\":1685:1715   */\n      calldatacopy\n        /* \"#utility.yul\":1749:1750   */\n      0x00\n        /* \"#utility.yul\":1740:1746   */\n      dup4\n        /* \"#utility.yul\":1735:1738   */\n      dup4\n        /* \"#utility.yul\":1731:1747   */\n      add\n        /* \"#utility.yul\":1724:1751   */\n      mstore\n        /* \"#utility.yul\":1610:1758   */\n      pop\n      pop\n      pop\n      jump\t// out\n        /* \"#utility.yul\":1764:2189   */\n    tag_72:\n        /* \"#utility.yul\":1842:1847   */\n      0x00\n        /* \"#utility.yul\":1867:1933   */\n      tag_118\n        /* \"#utility.yul\":1883:1932   */\n      tag_119\n        /* \"#utility.yul\":1925:1931   */\n      dup5\n        /* \"#utility.yul\":1883:1932   */\n      tag_70\n      jump\t// in\n    tag_119:\n        /* \"#utility.yul\":1867:1933   */\n      tag_69\n      jump\t// in\n    tag_118:\n        /* \"#utility.yul\":1858:1933   */\n      swap1\n      pop\n        /* \"#utility.yul\":1956:1962   */\n      dup3\n        /* \"#utility.yul\":1949:1954   */\n      dup2\n        /* \"#utility.yul\":1942:1963   */\n      mstore\n        /* \"#utility.yul\":1994:1998   */\n      0x20\n        /* \"#utility.yul\":1987:1992   */\n      dup2\n        /* \"#utility.yul\":1983:1999   */\n      add\n        /* \"#utility.yul\":2032:2035   */\n      dup5\n        /* \"#utility.yul\":2023:2029   */\n      dup5\n        /* \"#utility.yul\":2018:2021   */\n      dup5\n        /* \"#utility.yul\":2014:2030   */\n      add\n        /* \"#utility.yul\":2011:2036   */\n      gt\n        /* \"#utility.yul\":2008:2120   */\n      iszero\n      tag_120\n      jumpi\n        /* \"#utility.yul\":2039:2118   */\n      tag_121\n      tag_65\n      jump\t// in\n    tag_121:\n        /* \"#utility.yul\":2008:2120   */\n    tag_120:\n        /* \"#utility.yul\":2129:2183   */\n      tag_122\n        /* \"#utility.yul\":2176:2182   */\n      dup5\n        /* \"#utility.yul\":2171:2174   */\n      dup3\n        /* \"#utility.yul\":2166:2169   */\n      dup6\n        /* \"#utility.yul\":2129:2183   */\n      tag_71\n      jump\t// in\n    tag_122:\n        /* \"#utility.yul\":1848:2189   */\n      pop\n        /* \"#utility.yul\":1764:2189   */\n      swap4\n      swap3\n      pop\n      pop\n      pop\n      jump\t// out\n        /* \"#utility.yul\":2209:2549   */\n    tag_73:\n        /* \"#utility.yul\":2265:2270   */\n      0x00\n        /* \"#utility.yul\":2314:2317   */\n      dup3\n        /* \"#utility.yul\":2307:2311   */\n      0x1f\n        /* \"#utility.yul\":2299:2305   */\n      dup4\n        /* \"#utility.yul\":2295:2312   */\n      add\n        /* \"#utility.yul\":2291:2318   */\n      slt\n        /* \"#utility.yul\":2281:2403   */\n      tag_124\n      jumpi\n        /* \"#utility.yul\":2322:2401   */\n      tag_125\n      tag_64\n      jump\t// in\n    tag_125:\n        /* \"#utility.yul\":2281:2403   */\n    tag_124:\n        /* \"#utility.yul\":2439:2445   */\n      dup2\n        /* \"#utility.yul\":2426:2446   */\n      calldataload\n        /* \"#utility.yul\":2464:2543   */\n      tag_126\n        /* \"#utility.yul\":2539:2542   */\n      dup5\n        /* \"#utility.yul\":2531:2537   */\n      dup3\n        /* \"#utility.yul\":2524:2528   */\n      0x20\n        /* \"#utility.yul\":2516:2522   */\n      dup7\n        /* \"#utility.yul\":2512:2529   */\n      add\n        /* \"#utility.yul\":2464:2543   */\n      tag_72\n      jump\t// in\n    tag_126:\n        /* \"#utility.yul\":2455:2543   */\n      swap2\n      pop\n        /* \"#utility.yul\":2271:2549   */\n      pop\n        /* \"#utility.yul\":2209:2549   */\n      swap3\n      swap2\n      pop\n      pop\n      jump\t// out\n        /* \"#utility.yul\":2555:3064   */\n    tag_11:\n        /* \"#utility.yul\":2624:2630   */\n      0x00\n        /* \"#utility.yul\":2673:2675   */\n      0x20\n        /* \"#utility.yul\":2661:2670   */\n      dup3\n        /* \"#utility.yul\":2652:2659   */\n      dup5\n        /* \"#utility.yul\":2648:2671   */\n      sub\n        /* \"#utility.yul\":2644:2676   */\n      slt\n        /* \"#utility.yul\":2641:2760   */\n      iszero\n      tag_128\n      jumpi\n        /* \"#utility.yul\":2679:2758   */\n      tag_129\n      tag_62\n      jump\t// in\n    tag_129:\n        /* \"#utility.yul\":2641:2760   */\n    tag_128:\n        /* \"#utility.yul\":2827:2828   */\n      0x00\n        /* \"#utility.yul\":2816:2825   */\n      dup3\n        /* \"#utility.yul\":2812:2829   */\n      add\n        /* \"#utility.yul\":2799:2830   */\n      calldataload\n        /* \"#utility.yul\":2857:2875   */\n      0xffffffffffffffff\n        /* \"#utility.yul\":2849:2855   */\n      dup2\n        /* \"#utility.yul\":2846:2876   */\n      gt\n        /* \"#utility.yul\":2843:2960   */\n      iszero\n      tag_130\n      jumpi\n        /* \"#utility.yul\":2879:2958   */\n      tag_131\n      tag_63\n      jump\t// in\n    tag_131:\n        /* \"#utility.yul\":2843:2960   */\n    tag_130:\n        /* \"#utility.yul\":2984:3047   */\n      tag_132\n        /* \"#utility.yul\":3039:3046   */\n      dup5\n        /* \"#utility.yul\":3030:3036   */\n      dup3\n        /* \"#utility.yul\":3019:3028   */\n      dup6\n        /* \"#utility.yul\":3015:3037   */\n      add\n        /* \"#utility.yul\":2984:3047   */\n      tag_73\n      jump\t// in\n    tag_132:\n        /* \"#utility.yul\":2974:3047   */\n      swap2\n      pop\n        /* \"#utility.yul\":2770:3057   */\n      pop\n        /* \"#utility.yul\":2555:3064   */\n      swap3\n      swap2\n      pop\n      pop\n      jump\t// out\n        /* \"#utility.yul\":3070:3147   */\n    tag_74:\n        /* \"#utility.yul\":3107:3114   */\n      0x00\n        /* \"#utility.yul\":3136:3141   */\n      dup2\n        /* \"#utility.yul\":3125:3141   */\n      swap1\n      pop\n        /* \"#utility.yul\":3070:3147   */\n      swap2\n      swap1\n      pop\n      jump\t// out\n        /* \"#utility.yul\":3153:3275   */\n    tag_75:\n        /* \"#utility.yul\":3226:3250   */\n      tag_135\n        /* \"#utility.yul\":3244:3249   */\n      dup2\n        /* \"#utility.yul\":3226:3250   */\n      tag_74\n      jump\t// in\n    tag_135:\n        /* \"#utility.yul\":3219:3224   */\n      dup2\n        /* \"#utility.yul\":3216:3251   */\n      eq\n        /* \"#utility.yul\":3206:3269   */\n      tag_136\n      jumpi\n        /* \"#utility.yul\":3265:3266   */\n      0x00\n        /* \"#utility.yul\":3262:3263   */\n      0x00\n        /* \"#utility.yul\":3255:3267   */\n      revert\n        /* \"#utility.yul\":3206:3269   */\n    tag_136:\n        /* \"#utility.yul\":3153:3275   */\n      pop\n      jump\t// out\n        /* \"#utility.yul\":3281:3420   */\n    tag_76:\n        /* \"#utility.yul\":3327:3332   */\n      0x00\n        /* \"#utility.yul\":3365:3371   */\n      dup2\n        /* \"#utility.yul\":3352:3372   */\n      calldataload\n        /* \"#utility.yul\":3343:3372   */\n      swap1\n      pop\n        /* \"#utility.yul\":3381:3414   */\n      tag_138\n        /* \"#utility.yul\":3408:3413   */\n      dup2\n        /* \"#utility.yul\":3381:3414   */\n      tag_75\n      jump\t// in\n    tag_138:\n        /* \"#utility.yul\":3281:3420   */\n      swap3\n      swap2\n      pop\n      pop\n      jump\t// out\n        /* \"#utility.yul\":3426:4080   */\n    tag_15:\n        /* \"#utility.yul\":3504:3510   */\n      0x00\n        /* \"#utility.yul\":3512:3518   */\n      0x00\n        /* \"#utility.yul\":3561:3563   */\n      0x40\n        /* \"#utility.yul\":3549:3558   */\n      dup4\n        /* \"#utility.yul\":3540:3547   */\n      dup6\n        /* \"#utility.yul\":3536:3559   */\n      sub\n        /* \"#utility.yul\":3532:3564   */\n      slt\n        /* \"#utility.yul\":3529:3648   */\n      iszero\n      tag_140\n      jumpi\n        /* \"#utility.yul\":3567:3646   */\n      tag_141\n      tag_62\n      jump\t// in\n    tag_141:\n        /* \"#utility.yul\":3529:3648   */\n    tag_140:\n        /* \"#utility.yul\":3715:3716   */\n      0x00\n        /* \"#utility.yul\":3704:3713   */\n      dup4\n        /* \"#utility.yul\":3700:3717   */\n      add\n        /* \"#utility.yul\":3687:3718   */\n      calldataload\n        /* \"#utility.yul\":3745:3763   */\n      0xffffffffffffffff\n        /* \"#utility.yul\":3737:3743   */\n      dup2\n        /* \"#utility.yul\":3734:3764   */\n      gt\n        /* \"#utility.yul\":3731:3848   */\n      iszero\n      tag_142\n      jumpi\n        /* \"#utility.yul\":3767:3846   */\n      tag_143\n      tag_63\n      jump\t// in\n    tag_143:\n        /* \"#utility.yul\":3731:3848   */\n    tag_142:\n        /* \"#utility.yul\":3872:3935   */\n      tag_144\n        /* \"#utility.yul\":3927:3934   */\n      dup6\n        /* \"#utility.yul\":3918:3924   */\n      dup3\n        /* \"#utility.yul\":3907:3916   */\n      dup7\n        /* \"#utility.yul\":3903:3925   */\n      add\n        /* \"#utility.yul\":3872:3935   */\n      tag_73\n      jump\t// in\n    tag_144:\n        /* \"#utility.yul\":3862:3935   */\n      swap3\n      pop\n        /* \"#utility.yul\":3658:3945   */\n      pop\n        /* \"#utility.yul\":3984:3986   */\n      0x20\n        /* \"#utility.yul\":4010:4063   */\n      tag_145\n        /* \"#utility.yul\":4055:4062   */\n      dup6\n        /* \"#utility.yul\":4046:4052   */\n      dup3\n        /* \"#utility.yul\":4035:4044   */\n      dup7\n        /* \"#utility.yul\":4031:4053   */\n      add\n        /* \"#utility.yul\":4010:4063   */\n      tag_76\n      jump\t// in\n    tag_145:\n        /* \"#utility.yul\":4000:4063   */\n      swap2\n      pop\n        /* \"#utility.yul\":3955:4073   */\n      pop\n        /* \"#utility.yul\":3426:4080   */\n      swap3\n      pop\n      swap3\n      swap1\n      pop\n      jump\t// out\n        /* \"#utility.yul\":4086:4176   */\n    tag_77:\n        /* \"#utility.yul\":4120:4127   */\n      0x00\n        /* \"#utility.yul\":4163:4168   */\n      dup2\n        /* \"#utility.yul\":4156:4169   */\n      iszero\n        /* \"#utility.yul\":4149:4170   */\n      iszero\n        /* \"#utility.yul\":4138:4170   */\n      swap1\n      pop\n        /* \"#utility.yul\":4086:4176   */\n      swap2\n      swap1\n      pop\n      jump\t// out\n        /* \"#utility.yul\":4182:4291   */\n    tag_78:\n        /* \"#utility.yul\":4263:4284   */\n      tag_148\n        /* \"#utility.yul\":4278:4283   */\n      dup2\n        /* \"#utility.yul\":4263:4284   */\n      tag_77\n      jump\t// in\n    tag_148:\n        /* \"#utility.yul\":4258:4261   */\n      dup3\n        /* \"#utility.yul\":4251:4285   */\n      mstore\n        /* \"#utility.yul\":4182:4291   */\n      pop\n      pop\n      jump\t// out\n        /* \"#utility.yul\":4297:4507   */\n    tag_18:\n        /* \"#utility.yul\":4384:4388   */\n      0x00\n        /* \"#utility.yul\":4422:4424   */\n      0x20\n        /* \"#utility.yul\":4411:4420   */\n      dup3\n        /* \"#utility.yul\":4407:4425   */\n      add\n        /* \"#utility.yul\":4399:4425   */\n      swap1\n      pop\n        /* \"#utility.yul\":4435:4500   */\n      tag_150\n        /* \"#utility.yul\":4497:4498   */\n      0x00\n        /* \"#utility.yul\":4486:4495   */\n      dup4\n        /* \"#utility.yul\":4482:4499   */\n      add\n        /* \"#utility.yul\":4473:4479   */\n      dup5\n        /* \"#utility.yul\":4435:4500   */\n      tag_78\n      jump\t// in\n    tag_150:\n        /* \"#utility.yul\":4297:4507   */\n      swap3\n      swap2\n      pop\n      pop\n      jump\t// out\n        /* \"#utility.yul\":4513:4639   */\n    tag_79:\n        /* \"#utility.yul\":4550:4557   */\n      0x00\n        /* \"#utility.yul\":4590:4632   */\n      0xffffffffffffffffffffffffffffffffffffffff\n        /* \"#utility.yul\":4583:4588   */\n      dup3\n        /* \"#utility.yul\":4579:4633   */\n      and\n        /* \"#utility.yul\":4568:4633   */\n      swap1\n      pop\n        /* \"#utility.yul\":4513:4639   */\n      swap2\n      swap1\n      pop\n      jump\t// out\n        /* \"#utility.yul\":4645:4741   */\n    tag_80:\n        /* \"#utility.yul\":4682:4689   */\n      0x00\n        /* \"#utility.yul\":4711:4735   */\n      tag_153\n        /* \"#utility.yul\":4729:4734   */\n      dup3\n        /* \"#utility.yul\":4711:4735   */\n      tag_79\n      jump\t// in\n    tag_153:\n        /* \"#utility.yul\":4700:4735   */\n      swap1\n      pop\n        /* \"#utility.yul\":4645:4741   */\n      swap2\n      swap1\n      pop\n      jump\t// out\n        /* \"#utility.yul\":4747:4865   */\n    tag_81:\n        /* \"#utility.yul\":4834:4858   */\n      tag_155\n        /* \"#utility.yul\":4852:4857   */\n      dup2\n        /* \"#utility.yul\":4834:4858   */\n      tag_80\n      jump\t// in\n    tag_155:\n        /* \"#utility.yul\":4829:4832   */\n      dup3\n        /* \"#utility.yul\":4822:4859   */\n      mstore\n        /* \"#utility.yul\":4747:4865   */\n      pop\n      pop\n      jump\t// out\n        /* \"#utility.yul\":4871:5093   */\n    tag_26:\n        /* \"#utility.yul\":4964:4968   */\n      0x00\n        /* \"#utility.yul\":5002:5004   */\n      0x20\n        /* \"#utility.yul\":4991:5000   */\n      dup3\n        /* \"#utility.yul\":4987:5005   */\n      add\n        /* \"#utility.yul\":4979:5005   */\n      swap1\n      pop\n        /* \"#utility.yul\":5015:5086   */\n      tag_157\n        /* \"#utility.yul\":5083:5084   */\n      0x00\n        /* \"#utility.yul\":5072:5081   */\n      dup4\n        /* \"#utility.yul\":5068:5085   */\n      add\n        /* \"#utility.yul\":5059:5065   */\n      dup5\n        /* \"#utility.yul\":5015:5086   */\n      tag_81\n      jump\t// in\n    tag_157:\n        /* \"#utility.yul\":4871:5093   */\n      swap3\n      swap2\n      pop\n      pop\n      jump\t// out\n        /* \"#utility.yul\":5099:5215   */\n    tag_82:\n        /* \"#utility.yul\":5169:5190   */\n      tag_159\n        /* \"#utility.yul\":5184:5189   */\n      dup2\n        /* \"#utility.yul\":5169:5190   */\n      tag_77\n      jump\t// in\n    tag_159:\n        /* \"#utility.yul\":5162:5167   */\n      dup2\n        /* \"#utility.yul\":5159:5191   */\n      eq\n        /* \"#utility.yul\":5149:5209   */\n      tag_160\n      jumpi\n        /* \"#utility.yul\":5205:5206   */\n      0x00\n        /* \"#utility.yul\":5202:5203   */\n      0x00\n        /* \"#utility.yul\":5195:5207   */\n      revert\n        /* \"#utility.yul\":5149:5209   */\n    tag_160:\n        /* \"#utility.yul\":5099:5215   */\n      pop\n      jump\t// out\n        /* \"#utility.yul\":5221:5354   */\n    tag_83:\n        /* \"#utility.yul\":5264:5269   */\n      0x00\n        /* \"#utility.yul\":5302:5308   */\n      dup2\n        /* \"#utility.yul\":5289:5309   */\n      calldataload\n        /* \"#utility.yul\":5280:5309   */\n      swap1\n      pop\n        /* \"#utility.yul\":5318:5348   */\n      tag_162\n        /* \"#utility.yul\":5342:5347   */\n      dup2\n        /* \"#utility.yul\":5318:5348   */\n      tag_82\n      jump\t// in\n    tag_162:\n        /* \"#utility.yul\":5221:5354   */\n      swap3\n      swap2\n      pop\n      pop\n      jump\t// out\n        /* \"#utility.yul\":5360:6153   */\n    tag_33:\n        /* \"#utility.yul\":5444:5450   */\n      0x00\n        /* \"#utility.yul\":5452:5458   */\n      0x00\n        /* \"#utility.yul\":5460:5466   */\n      0x00\n        /* \"#utility.yul\":5509:5511   */\n      0x60\n        /* \"#utility.yul\":5497:5506   */\n      dup5\n        /* \"#utility.yul\":5488:5495   */\n      dup7\n        /* \"#utility.yul\":5484:5507   */\n      sub\n        /* \"#utility.yul\":5480:5512   */\n      slt\n        /* \"#utility.yul\":5477:5596   */\n      iszero\n      tag_164\n      jumpi\n        /* \"#utility.yul\":5515:5594   */\n      tag_165\n      tag_62\n      jump\t// in\n    tag_165:\n        /* \"#utility.yul\":5477:5596   */\n    tag_164:\n        /* \"#utility.yul\":5663:5664   */\n      0x00\n        /* \"#utility.yul\":5652:5661   */\n      dup5\n        /* \"#utility.yul\":5648:5665   */\n      add\n        /* \"#utility.yul\":5635:5666   */\n      calldataload\n        /* \"#utility.yul\":5693:5711   */\n      0xffffffffffffffff\n        /* \"#utility.yul\":5685:5691   */\n      dup2\n        /* \"#utility.yul\":5682:5712   */\n      gt\n        /* \"#utility.yul\":5679:5796   */\n      iszero\n      tag_166\n      jumpi\n        /* \"#utility.yul\":5715:5794   */\n      tag_167\n      tag_63\n      jump\t// in\n    tag_167:\n        /* \"#utility.yul\":5679:5796   */\n    tag_166:\n        /* \"#utility.yul\":5820:5883   */\n      tag_168\n        /* \"#utility.yul\":5875:5882   */\n      dup7\n        /* \"#utility.yul\":5866:5872   */\n      dup3\n        /* \"#utility.yul\":5855:5864   */\n      dup8\n        /* \"#utility.yul\":5851:5873   */\n      add\n        /* \"#utility.yul\":5820:5883   */\n      tag_73\n      jump\t// in\n    tag_168:\n        /* \"#utility.yul\":5810:5883   */\n      swap4\n      pop\n        /* \"#utility.yul\":5606:5893   */\n      pop\n        /* \"#utility.yul\":5932:5934   */\n      0x20\n        /* \"#utility.yul\":5958:6011   */\n      tag_169\n        /* \"#utility.yul\":6003:6010   */\n      dup7\n        /* \"#utility.yul\":5994:6000   */\n      dup3\n        /* \"#utility.yul\":5983:5992   */\n      dup8\n        /* \"#utility.yul\":5979:6001   */\n      add\n        /* \"#utility.yul\":5958:6011   */\n      tag_76\n      jump\t// in\n    tag_169:\n        /* \"#utility.yul\":5948:6011   */\n      swap3\n      pop\n        /* \"#utility.yul\":5903:6021   */\n      pop\n        /* \"#utility.yul\":6060:6062   */\n      0x40\n        /* \"#utility.yul\":6086:6136   */\n      tag_170\n        /* \"#utility.yul\":6128:6135   */\n      dup7\n        /* \"#utility.yul\":6119:6125   */\n      dup3\n        /* \"#utility.yul\":6108:6117   */\n      dup8\n        /* \"#utility.yul\":6104:6126   */\n      add\n        /* \"#utility.yul\":6086:6136   */\n      tag_83\n      jump\t// in\n    tag_170:\n        /* \"#utility.yul\":6076:6136   */\n      swap2\n      pop\n        /* \"#utility.yul\":6031:6146   */\n      pop\n        /* \"#utility.yul\":5360:6153   */\n      swap3\n      pop\n      swap3\n      pop\n      swap3\n      jump\t// out\n        /* \"#utility.yul\":6159:6328   */\n    tag_84:\n        /* \"#utility.yul\":6243:6254   */\n      0x00\n        /* \"#utility.yul\":6277:6283   */\n      dup3\n        /* \"#utility.yul\":6272:6275   */\n      dup3\n        /* \"#utility.yul\":6265:6284   */\n      mstore\n        /* \"#utility.yul\":6317:6321   */\n      0x20\n        /* \"#utility.yul\":6312:6315   */\n      dup3\n        /* \"#utility.yul\":6308:6322   */\n      add\n        /* \"#utility.yul\":6293:6322   */\n      swap1\n      pop\n        /* \"#utility.yul\":6159:6328   */\n      swap3\n      swap2\n      pop\n      pop\n      jump\t// out\n        /* \"#utility.yul\":6334:6504   */\n    tag_85:\n        /* \"#utility.yul\":6474:6496   */\n      0x4f6e6c79207465616368657220616c6c6f776564000000000000000000000000\n        /* \"#utility.yul\":6470:6471   */\n      0x00\n        /* \"#utility.yul\":6462:6468   */\n      dup3\n        /* \"#utility.yul\":6458:6472   */\n      add\n        /* \"#utility.yul\":6451:6497   */\n      mstore\n        /* \"#utility.yul\":6334:6504   */\n      pop\n      jump\t// out\n        /* \"#utility.yul\":6510:6876   */\n    tag_86:\n        /* \"#utility.yul\":6652:6655   */\n      0x00\n        /* \"#utility.yul\":6673:6740   */\n      tag_174\n        /* \"#utility.yul\":6737:6739   */\n      0x14\n        /* \"#utility.yul\":6732:6735   */\n      dup4\n        /* \"#utility.yul\":6673:6740   */\n      tag_84\n      jump\t// in\n    tag_174:\n        /* \"#utility.yul\":6666:6740   */\n      swap2\n      pop\n        /* \"#utility.yul\":6749:6842   */\n      tag_175\n        /* \"#utility.yul\":6838:6841   */\n      dup3\n        /* \"#utility.yul\":6749:6842   */\n      tag_85\n      jump\t// in\n    tag_175:\n        /* \"#utility.yul\":6867:6869   */\n      0x20\n        /* \"#utility.yul\":6862:6865   */\n      dup3\n        /* \"#utility.yul\":6858:6870   */\n      add\n        /* \"#utility.yul\":6851:6870   */\n      swap1\n      pop\n        /* \"#utility.yul\":6510:6876   */\n      swap2\n      swap1\n      pop\n      jump\t// out\n        /* \"#utility.yul\":6882:7301   */\n    tag_38:\n        /* \"#utility.yul\":7048:7052   */\n      0x00\n        /* \"#utility.yul\":7086:7088   */\n      0x20\n        /* \"#utility.yul\":7075:7084   */\n      dup3\n        /* \"#utility.yul\":7071:7089   */\n      add\n        /* \"#utility.yul\":7063:7089   */\n      swap1\n      pop\n        /* \"#utility.yul\":7135:7144   */\n      dup2\n        /* \"#utility.yul\":7129:7133   */\n      dup2\n        /* \"#utility.yul\":7125:7145   */\n      sub\n        /* \"#utility.yul\":7121:7122   */\n      0x00\n        /* \"#utility.yul\":7110:7119   */\n      dup4\n        /* \"#utility.yul\":7106:7123   */\n      add\n        /* \"#utility.yul\":7099:7146   */\n      mstore\n        /* \"#utility.yul\":7163:7294   */\n      tag_177\n        /* \"#utility.yul\":7289:7293   */\n      dup2\n        /* \"#utility.yul\":7163:7294   */\n      tag_86\n      jump\t// in\n    tag_177:\n        /* \"#utility.yul\":7155:7294   */\n      swap1\n      pop\n        /* \"#utility.yul\":6882:7301   */\n      swap2\n      swap1\n      pop\n      jump\t// out\n        /* \"#utility.yul\":7307:7406   */\n    tag_87:\n        /* \"#utility.yul\":7359:7365   */\n      0x00\n        /* \"#utility.yul\":7393:7398   */\n      dup2\n        /* \"#utility.yul\":7387:7399   */\n      mload\n        /* \"#utility.yul\":7377:7399   */\n      swap1\n      pop\n        /* \"#utility.yul\":7307:7406   */\n      swap2\n      swap1\n      pop\n      jump\t// out\n        /* \"#utility.yul\":7412:7560   */\n    tag_88:\n        /* \"#utility.yul\":7514:7525   */\n      0x00\n        /* \"#utility.yul\":7551:7554   */\n      dup2\n        /* \"#utility.yul\":7536:7554   */\n      swap1\n      pop\n        /* \"#utility.yul\":7412:7560   */\n      swap3\n      swap2\n      pop\n      pop\n      jump\t// out\n        /* \"#utility.yul\":7566:7705   */\n    tag_89:\n        /* \"#utility.yul\":7655:7661   */\n      dup3\n        /* \"#utility.yul\":7650:7653   */\n      dup2\n        /* \"#utility.yul\":7645:7648   */\n      dup4\n        /* \"#utility.yul\":7639:7662   */\n      mcopy\n        /* \"#utility.yul\":7696:7697   */\n      0x00\n        /* \"#utility.yul\":7687:7693   */\n      dup4\n        /* \"#utility.yul\":7682:7685   */\n      dup4\n        /* \"#utility.yul\":7678:7694   */\n      add\n        /* \"#utility.yul\":7671:7698   */\n      mstore\n        /* \"#utility.yul\":7566:7705   */\n      pop\n      pop\n      pop\n      jump\t// out\n        /* \"#utility.yul\":7711:8101   */\n    tag_90:\n        /* \"#utility.yul\":7817:7820   */\n      0x00\n        /* \"#utility.yul\":7845:7884   */\n      tag_182\n        /* \"#utility.yul\":7878:7883   */\n      dup3\n        /* \"#utility.yul\":7845:7884   */\n      tag_87\n      jump\t// in\n    tag_182:\n        /* \"#utility.yul\":7900:7989   */\n      tag_183\n        /* \"#utility.yul\":7982:7988   */\n      dup2\n        /* \"#utility.yul\":7977:7980   */\n      dup6\n        /* \"#utility.yul\":7900:7989   */\n      tag_88\n      jump\t// in\n    tag_183:\n        /* \"#utility.yul\":7893:7989   */\n      swap4\n      pop\n        /* \"#utility.yul\":7998:8063   */\n      tag_184\n        /* \"#utility.yul\":8056:8062   */\n      dup2\n        /* \"#utility.yul\":8051:8054   */\n      dup6\n        /* \"#utility.yul\":8044:8048   */\n      0x20\n        /* \"#utility.yul\":8037:8042   */\n      dup7\n        /* \"#utility.yul\":8033:8049   */\n      add\n        /* \"#utility.yul\":7998:8063   */\n      tag_89\n      jump\t// in\n    tag_184:\n        /* \"#utility.yul\":8088:8094   */\n      dup1\n        /* \"#utility.yul\":8083:8086   */\n      dup5\n        /* \"#utility.yul\":8079:8095   */\n      add\n        /* \"#utility.yul\":8072:8095   */\n      swap2\n      pop\n        /* \"#utility.yul\":7821:8101   */\n      pop\n        /* \"#utility.yul\":7711:8101   */\n      swap3\n      swap2\n      pop\n      pop\n      jump\t// out\n        /* \"#utility.yul\":8107:8382   */\n    tag_41:\n        /* \"#utility.yul\":8239:8242   */\n      0x00\n        /* \"#utility.yul\":8261:8356   */\n      tag_186\n        /* \"#utility.yul\":8352:8355   */\n      dup3\n        /* \"#utility.yul\":8343:8349   */\n      dup5\n        /* \"#utility.yul\":8261:8356   */\n      tag_90\n      jump\t// in\n    tag_186:\n        /* \"#utility.yul\":8254:8356   */\n      swap2\n      pop\n        /* \"#utility.yul\":8373:8376   */\n      dup2\n        /* \"#utility.yul\":8366:8376   */\n      swap1\n      pop\n        /* \"#utility.yul\":8107:8382   */\n      swap3\n      swap2\n      pop\n      pop\n      jump\t// out\n        /* \"#utility.yul\":8388:8564   */\n    tag_91:\n        /* \"#utility.yul\":8528:8556   */\n      0x53747564656e7420616c72656164792072656769737465726564000000000000\n        /* \"#utility.yul\":8524:8525   */\n      0x00\n        /* \"#utility.yul\":8516:8522   */\n      dup3\n        /* \"#utility.yul\":8512:8526   */\n      add\n        /* \"#utility.yul\":8505:8557   */\n      mstore\n        /* \"#utility.yul\":8388:8564   */\n      pop\n      jump\t// out\n        /* \"#utility.yul\":8570:8936   */\n    tag_92:\n        /* \"#utility.yul\":8712:8715   */\n      0x00\n        /* \"#utility.yul\":8733:8800   */\n      tag_189\n        /* \"#utility.yul\":8797:8799   */\n      0x1a\n        /* \"#utility.yul\":8792:8795   */\n      dup4\n        /* \"#utility.yul\":8733:8800   */\n      tag_84\n      jump\t// in\n    tag_189:\n        /* \"#utility.yul\":8726:8800   */\n      swap2\n      pop\n        /* \"#utility.yul\":8809:8902   */\n      tag_190\n        /* \"#utility.yul\":8898:8901   */\n      dup3\n        /* \"#utility.yul\":8809:8902   */\n      tag_91\n      jump\t// in\n    tag_190:\n        /* \"#utility.yul\":8927:8929   */\n      0x20\n        /* \"#utility.yul\":8922:8925   */\n      dup3\n        /* \"#utility.yul\":8918:8930   */\n      add\n        /* \"#utility.yul\":8911:8930   */\n      swap1\n      pop\n        /* \"#utility.yul\":8570:8936   */\n      swap2\n      swap1\n      pop\n      jump\t// out\n        /* \"#utility.yul\":8942:9361   */\n    tag_44:\n        /* \"#utility.yul\":9108:9112   */\n      0x00\n        /* \"#utility.yul\":9146:9148   */\n      0x20\n        /* \"#utility.yul\":9135:9144   */\n      dup3\n        /* \"#utility.yul\":9131:9149   */\n      add\n        /* \"#utility.yul\":9123:9149   */\n      swap1\n      pop\n        /* \"#utility.yul\":9195:9204   */\n      dup2\n        /* \"#utility.yul\":9189:9193   */\n      dup2\n        /* \"#utility.yul\":9185:9205   */\n      sub\n        /* \"#utility.yul\":9181:9182   */\n      0x00\n        /* \"#utility.yul\":9170:9179   */\n      dup4\n        /* \"#utility.yul\":9166:9183   */\n      add\n        /* \"#utility.yul\":9159:9206   */\n      mstore\n        /* \"#utility.yul\":9223:9354   */\n      tag_192\n        /* \"#utility.yul\":9349:9353   */\n      dup2\n        /* \"#utility.yul\":9223:9354   */\n      tag_92\n      jump\t// in\n    tag_192:\n        /* \"#utility.yul\":9215:9354   */\n      swap1\n      pop\n        /* \"#utility.yul\":8942:9361   */\n      swap2\n      swap1\n      pop\n      jump\t// out\n        /* \"#utility.yul\":9367:9744   */\n    tag_93:\n        /* \"#utility.yul\":9455:9458   */\n      0x00\n        /* \"#utility.yul\":9483:9522   */\n      tag_194\n        /* \"#utility.yul\":9516:9521   */\n      dup3\n        /* \"#utility.yul\":9483:9522   */\n      tag_87\n      jump\t// in\n    tag_194:\n        /* \"#utility.yul\":9538:9609   */\n      tag_195\n        /* \"#utility.yul\":9602:9608   */\n      dup2\n        /* \"#utility.yul\":9597:9600   */\n      dup6\n        /* \"#utility.yul\":9538:9609   */\n      tag_84\n      jump\t// in\n    tag_195:\n        /* \"#utility.yul\":9531:9609   */\n      swap4\n      pop\n        /* \"#utility.yul\":9618:9683   */\n      tag_196\n        /* \"#utility.yul\":9676:9682   */\n      dup2\n        /* \"#utility.yul\":9671:9674   */\n      dup6\n        /* \"#utility.yul\":9664:9668   */\n      0x20\n        /* \"#utility.yul\":9657:9662   */\n      dup7\n        /* \"#utility.yul\":9653:9669   */\n      add\n        /* \"#utility.yul\":9618:9683   */\n      tag_89\n      jump\t// in\n    tag_196:\n        /* \"#utility.yul\":9708:9737   */\n      tag_197\n        /* \"#utility.yul\":9730:9736   */\n      dup2\n        /* \"#utility.yul\":9708:9737   */\n      tag_66\n      jump\t// in\n    tag_197:\n        /* \"#utility.yul\":9703:9706   */\n      dup5\n        /* \"#utility.yul\":9699:9738   */\n      add\n        /* \"#utility.yul\":9692:9738   */\n      swap2\n      pop\n        /* \"#utility.yul\":9459:9744   */\n      pop\n        /* \"#utility.yul\":9367:9744   */\n      swap3\n      swap2\n      pop\n      pop\n      jump\t// out\n        /* \"#utility.yul\":9750:10063   */\n    tag_47:\n        /* \"#utility.yul\":9863:9867   */\n      0x00\n        /* \"#utility.yul\":9901:9903   */\n      0x20\n        /* \"#utility.yul\":9890:9899   */\n      dup3\n        /* \"#utility.yul\":9886:9904   */\n      add\n        /* \"#utility.yul\":9878:9904   */\n      swap1\n      pop\n        /* \"#utility.yul\":9950:9959   */\n      dup2\n        /* \"#utility.yul\":9944:9948   */\n      dup2\n        /* \"#utility.yul\":9940:9960   */\n      sub\n        /* \"#utility.yul\":9936:9937   */\n      0x00\n        /* \"#utility.yul\":9925:9934   */\n      dup4\n        /* \"#utility.yul\":9921:9938   */\n      add\n        /* \"#utility.yul\":9914:9961   */\n      mstore\n        /* \"#utility.yul\":9978:10056   */\n      tag_199\n        /* \"#utility.yul\":10051:10055   */\n      dup2\n        /* \"#utility.yul\":10042:10048   */\n      dup5\n        /* \"#utility.yul\":9978:10056   */\n      tag_93\n      jump\t// in\n    tag_199:\n        /* \"#utility.yul\":9970:10056   */\n      swap1\n      pop\n        /* \"#utility.yul\":9750:10063   */\n      swap3\n      swap2\n      pop\n      pop\n      jump\t// out\n        /* \"#utility.yul\":10069:10241   */\n    tag_94:\n        /* \"#utility.yul\":10209:10233   */\n      0x53747564656e74206e6f74207265676973746572656400000000000000000000\n        /* \"#utility.yul\":10205:10206   */\n      0x00\n        /* \"#utility.yul\":10197:10203   */\n      dup3\n        /* \"#utility.yul\":10193:10207   */\n      add\n        /* \"#utility.yul\":10186:10234   */\n      mstore\n        /* \"#utility.yul\":10069:10241   */\n      pop\n      jump\t// out\n        /* \"#utility.yul\":10247:10613   */\n    tag_95:\n        /* \"#utility.yul\":10389:10392   */\n      0x00\n        /* \"#utility.yul\":10410:10477   */\n      tag_202\n        /* \"#utility.yul\":10474:10476   */\n      0x16\n        /* \"#utility.yul\":10469:10472   */\n      dup4\n        /* \"#utility.yul\":10410:10477   */\n      tag_84\n      jump\t// in\n    tag_202:\n        /* \"#utility.yul\":10403:10477   */\n      swap2\n      pop\n        /* \"#utility.yul\":10486:10579   */\n      tag_203\n        /* \"#utility.yul\":10575:10578   */\n      dup3\n        /* \"#utility.yul\":10486:10579   */\n      tag_94\n      jump\t// in\n    tag_203:\n        /* \"#utility.yul\":10604:10606   */\n      0x20\n        /* \"#utility.yul\":10599:10602   */\n      dup3\n        /* \"#utility.yul\":10595:10607   */\n      add\n        /* \"#utility.yul\":10588:10607   */\n      swap1\n      pop\n        /* \"#utility.yul\":10247:10613   */\n      swap2\n      swap1\n      pop\n      jump\t// out\n        /* \"#utility.yul\":10619:11038   */\n    tag_57:\n        /* \"#utility.yul\":10785:10789   */\n      0x00\n        /* \"#utility.yul\":10823:10825   */\n      0x20\n        /* \"#utility.yul\":10812:10821   */\n      dup3\n        /* \"#utility.yul\":10808:10826   */\n      add\n        /* \"#utility.yul\":10800:10826   */\n      swap1\n      pop\n        /* \"#utility.yul\":10872:10881   */\n      dup2\n        /* \"#utility.yul\":10866:10870   */\n      dup2\n        /* \"#utility.yul\":10862:10882   */\n      sub\n        /* \"#utility.yul\":10858:10859   */\n      0x00\n        /* \"#utility.yul\":10847:10856   */\n      dup4\n        /* \"#utility.yul\":10843:10860   */\n      add\n        /* \"#utility.yul\":10836:10883   */\n      mstore\n        /* \"#utility.yul\":10900:11031   */\n      tag_205\n        /* \"#utility.yul\":11026:11030   */\n      dup2\n        /* \"#utility.yul\":10900:11031   */\n      tag_95\n      jump\t// in\n    tag_205:\n        /* \"#utility.yul\":10892:11031   */\n      swap1\n      pop\n        /* \"#utility.yul\":10619:11038   */\n      swap2\n      swap1\n      pop\n      jump\t// out\n        /* \"#utility.yul\":11044:11162   */\n    tag_96:\n        /* \"#utility.yul\":11131:11155   */\n      tag_207\n        /* \"#utility.yul\":11149:11154   */\n      dup2\n        /* \"#utility.yul\":11131:11155   */\n      tag_74\n      jump\t// in\n    tag_207:\n        /* \"#utility.yul\":11126:11129   */\n      dup3\n        /* \"#utility.yul\":11119:11156   */\n      mstore\n        /* \"#utility.yul\":11044:11162   */\n      pop\n      pop\n      jump\t// out\n        /* \"#utility.yul\":11168:11689   */\n    tag_60:\n        /* \"#utility.yul\":11331:11335   */\n      0x00\n        /* \"#utility.yul\":11369:11371   */\n      0x60\n        /* \"#utility.yul\":11358:11367   */\n      dup3\n        /* \"#utility.yul\":11354:11372   */\n      add\n        /* \"#utility.yul\":11346:11372   */\n      swap1\n      pop\n        /* \"#utility.yul\":11418:11427   */\n      dup2\n        /* \"#utility.yul\":11412:11416   */\n      dup2\n        /* \"#utility.yul\":11408:11428   */\n      sub\n        /* \"#utility.yul\":11404:11405   */\n      0x00\n        /* \"#utility.yul\":11393:11402   */\n      dup4\n        /* \"#utility.yul\":11389:11406   */\n      add\n        /* \"#utility.yul\":11382:11429   */\n      mstore\n        /* \"#utility.yul\":11446:11524   */\n      tag_209\n        /* \"#utility.yul\":11519:11523   */\n      dup2\n        /* \"#utility.yul\":11510:11516   */\n      dup7\n        /* \"#utility.yul\":11446:11524   */\n      tag_93\n      jump\t// in\n    tag_209:\n        /* \"#utility.yul\":11438:11524   */\n      swap1\n      pop\n        /* \"#utility.yul\":11534:11606   */\n      tag_210\n        /* \"#utility.yul\":11602:11604   */\n      0x20\n        /* \"#utility.yul\":11591:11600   */\n      dup4\n        /* \"#utility.yul\":11587:11605   */\n      add\n        /* \"#utility.yul\":11578:11584   */\n      dup6\n        /* \"#utility.yul\":11534:11606   */\n      tag_96\n      jump\t// in\n    tag_210:\n        /* \"#utility.yul\":11616:11682   */\n      tag_211\n        /* \"#utility.yul\":11678:11680   */\n      0x40\n        /* \"#utility.yul\":11667:11676   */\n      dup4\n        /* \"#utility.yul\":11663:11681   */\n      add\n        /* \"#utility.yul\":11654:11660   */\n      dup5\n        /* \"#utility.yul\":11616:11682   */\n      tag_78\n      jump\t// in\n    tag_211:\n        /* \"#utility.yul\":11168:11689   */\n      swap5\n      swap4\n      pop\n      pop\n      pop\n      pop\n      jump\t// out\n\n    auxdata: 0xa26469706673582212207b62430acfe027e40fdf3b90ad351c6daafa783ee88251fe7f606121e28299b464736f6c634300081e0033\n}\n",
				"bytecode": {
					"linkReferences": {},
					"object": "6080604052348015600e575f5ffd5b50335f5f6101000a81548173ffffffffffffffffffffffffffffffffffffffff021916908373ffffffffffffffffffffffffffffffffffffffff160217905550610ad78061005b5f395ff3fe608060405234801561000f575f5ffd5b5060043610610060575f3560e01c806371e1744514610064578063801773df14610080578063a1e241b3146100b0578063b46bff89146100e0578063c822d7f0146100fe578063f6705d6e1461012e575b5f5ffd5b61007e60048036038101906100799190610659565b61014a565b005b61009a600480360381019061009591906106d3565b6102b2565b6040516100a79190610747565b60405180910390f35b6100ca60048036038101906100c591906106d3565b6102f4565b6040516100d79190610747565b60405180910390f35b6100e8610337565b6040516100f5919061079f565b60405180910390f35b61011860048036038101906101139190610659565b61035b565b6040516101259190610747565b60405180910390f35b610148600480360381019061014391906107e2565b610390565b005b5f5f9054906101000a900473ffffffffffffffffffffffffffffffffffffffff1673ffffffffffffffffffffffffffffffffffffffff163373ffffffffffffffffffffffffffffffffffffffff16146101d8576040517f08c379a00000000000000000000000000000000000000000000000000000000081526004016101cf906108a8565b60405180910390fd5b6001816040516101e89190610918565b90815260200160405180910390205f9054906101000a900460ff1615610243576040517f08c379a000000000000000000000000000000000000000000000000000000000815260040161023a90610978565b60405180910390fd5b600180826040516102549190610918565b90815260200160405180910390205f6101000a81548160ff0219169083151502179055507fc3a6f43a7cc3fde4e2804af17db6de647d06bb0ad7c2e04192613b6517120d28816040516102a791906109ce565b60405180910390a150565b600282805160208101820180518482526020830160208501208183528095505050505050602052805f5260405f205f915091509054906101000a900460ff1681565b5f6002836040516103059190610918565b90815260200160405180910390205f8381526020019081526020015f205f9054906101000a900460ff16905092915050565b5f5f9054906101000a900473ffffffffffffffffffffffffffffffffffffffff1681565b6001818051602081018201805184825260208301602085012081835280955050505050505f915054906101000a900460ff1681565b5f5f9054906101000a900473ffffffffffffffffffffffffffffffffffffffff1673ffffffffffffffffffffffffffffffffffffffff163373ffffffffffffffffffffffffffffffffffffffff161461041e576040517f08c379a0000000000000000000000000000000000000000000000000000000008152600401610415906108a8565b60405180910390fd5b60018360405161042e9190610918565b90815260200160405180910390205f9054906101000a900460ff16610488576040517f08c379a000000000000000000000000000000000000000000000000000000000815260040161047f90610a38565b60405180910390fd5b806002846040516104999190610918565b90815260200160405180910390205f8481526020019081526020015f205f6101000a81548160ff0219169083151502179055507f93523652616297f19b6fff3a5ab003eeec919a119da9aba03d5d6dcf19ab5af38383836040516104ff93929190610a65565b60405180910390a1505050565b5f604051905090565b5f5ffd5b5f5ffd5b5f5ffd5b5f5ffd5b5f601f19601f8301169050919050565b7f4e487b71000000000000000000000000000000000000000000000000000000005f52604160045260245ffd5b61056b82610525565b810181811067ffffffffffffffff8211171561058a57610589610535565b5b80604052505050565b5f61059c61050c565b90506105a88282610562565b919050565b5f67ffffffffffffffff8211156105c7576105c6610535565b5b6105d082610525565b9050602081019050919050565b828183375f83830152505050565b5f6105fd6105f8846105ad565b610593565b90508281526020810184848401111561061957610618610521565b5b6106248482856105dd565b509392505050565b5f82601f8301126106405761063f61051d565b5b81356106508482602086016105eb565b91505092915050565b5f6020828403121561066e5761066d610515565b5b5f82013567ffffffffffffffff81111561068b5761068a610519565b5b6106978482850161062c565b91505092915050565b5f819050919050565b6106b2816106a0565b81146106bc575f5ffd5b50565b5f813590506106cd816106a9565b92915050565b5f5f604083850312156106e9576106e8610515565b5b5f83013567ffffffffffffffff81111561070657610705610519565b5b6107128582860161062c565b9250506020610723858286016106bf565b9150509250929050565b5f8115159050919050565b6107418161072d565b82525050565b5f60208201905061075a5f830184610738565b92915050565b5f73ffffffffffffffffffffffffffffffffffffffff82169050919050565b5f61078982610760565b9050919050565b6107998161077f565b82525050565b5f6020820190506107b25f830184610790565b92915050565b6107c18161072d565b81146107cb575f5ffd5b50565b5f813590506107dc816107b8565b92915050565b5f5f5f606084860312156107f9576107f8610515565b5b5f84013567ffffffffffffffff81111561081657610815610519565b5b6108228682870161062c565b9350506020610833868287016106bf565b9250506040610844868287016107ce565b9150509250925092565b5f82825260208201905092915050565b7f4f6e6c79207465616368657220616c6c6f7765640000000000000000000000005f82015250565b5f61089260148361084e565b915061089d8261085e565b602082019050919050565b5f6020820190508181035f8301526108bf81610886565b9050919050565b5f81519050919050565b5f81905092915050565b8281835e5f83830152505050565b5f6108f2826108c6565b6108fc81856108d0565b935061090c8185602086016108da565b80840191505092915050565b5f61092382846108e8565b915081905092915050565b7f53747564656e7420616c726561647920726567697374657265640000000000005f82015250565b5f610962601a8361084e565b915061096d8261092e565b602082019050919050565b5f6020820190508181035f83015261098f81610956565b9050919050565b5f6109a0826108c6565b6109aa818561084e565b93506109ba8185602086016108da565b6109c381610525565b840191505092915050565b5f6020820190508181035f8301526109e68184610996565b905092915050565b7f53747564656e74206e6f742072656769737465726564000000000000000000005f82015250565b5f610a2260168361084e565b9150610a2d826109ee565b602082019050919050565b5f6020820190508181035f830152610a4f81610a16565b9050919050565b610a5f816106a0565b82525050565b5f6060820190508181035f830152610a7d8186610996565b9050610a8c6020830185610a56565b610a996040830184610738565b94935050505056fea26469706673582212207b62430acfe027e40fdf3b90ad351c6daafa783ee88251fe7f606121e28299b464736f6c634300081e0033",
					"opcodes": "PUSH1 0x80 PUSH1 0x40 MSTORE CALLVALUE DUP1 ISZERO PUSH1 0xE JUMPI PUSH0 PUSH0 REVERT JUMPDEST POP CALLER PUSH0 PUSH0 PUSH2 0x100 EXP DUP2 SLOAD DUP2 PUSH20 0xFFFFFFFFFFFFFFFFFFFFFFFFFFFFFFFFFFFFFFFF MUL NOT AND SWAP1 DUP4 PUSH20 0xFFFFFFFFFFFFFFFFFFFFFFFFFFFFFFFFFFFFFFFF AND MUL OR SWAP1 SSTORE POP PUSH2 0xAD7 DUP1 PUSH2 0x5B PUSH0 CODECOPY PUSH0 RETURN INVALID PUSH1 0x80 PUSH1 0x40 MSTORE CALLVALUE DUP1 ISZERO PUSH2 0xF JUMPI PUSH0 PUSH0 REVERT JUMPDEST POP PUSH1 0x4 CALLDATASIZE LT PUSH2 0x60 JUMPI PUSH0 CALLDATALOAD PUSH1 0xE0 SHR DUP1 PUSH4 0x71E17445 EQ PUSH2 0x64 JUMPI DUP1 PUSH4 0x801773DF EQ PUSH2 0x80 JUMPI DUP1 PUSH4 0xA1E241B3 EQ PUSH2 0xB0 JUMPI DUP1 PUSH4 0xB46BFF89 EQ PUSH2 0xE0 JUMPI DUP1 PUSH4 0xC822D7F0 EQ PUSH2 0xFE JUMPI DUP1 PUSH4 0xF6705D6E EQ PUSH2 0x12E JUMPI JUMPDEST PUSH0 PUSH0 REVERT JUMPDEST PUSH2 0x7E PUSH1 0x4 DUP1 CALLDATASIZE SUB DUP2 ADD SWAP1 PUSH2 0x79 SWAP2 SWAP1 PUSH2 0x659 JUMP JUMPDEST PUSH2 0x14A JUMP JUMPDEST STOP JUMPDEST PUSH2 0x9A PUSH1 0x4 DUP1 CALLDATASIZE SUB DUP2 ADD SWAP1 PUSH2 0x95 SWAP2 SWAP1 PUSH2 0x6D3 JUMP JUMPDEST PUSH2 0x2B2 JUMP JUMPDEST PUSH1 0x40 MLOAD PUSH2 0xA7 SWAP2 SWAP1 PUSH2 0x747 JUMP JUMPDEST PUSH1 0x40 MLOAD DUP1 SWAP2 SUB SWAP1 RETURN JUMPDEST PUSH2 0xCA PUSH1 0x4 DUP1 CALLDATASIZE SUB DUP2 ADD SWAP1 PUSH2 0xC5 SWAP2 SWAP1 PUSH2 0x6D3 JUMP JUMPDEST PUSH2 0x2F4 JUMP JUMPDEST PUSH1 0x40 MLOAD PUSH2 0xD7 SWAP2 SWAP1 PUSH2 0x747 JUMP JUMPDEST PUSH1 0x40 MLOAD DUP1 SWAP2 SUB SWAP1 RETURN JUMPDEST PUSH2 0xE8 PUSH2 0x337 JUMP JUMPDEST PUSH1 0x40 MLOAD PUSH2 0xF5 SWAP2 SWAP1 PUSH2 0x79F JUMP JUMPDEST PUSH1 0x40 MLOAD DUP1 SWAP2 SUB SWAP1 RETURN JUMPDEST PUSH2 0x118 PUSH1 0x4 DUP1 CALLDATASIZE SUB DUP2 ADD SWAP1 PUSH2 0x113 SWAP2 SWAP1 PUSH2 0x659 JUMP JUMPDEST PUSH2 0x35B JUMP JUMPDEST PUSH1 0x40 MLOAD PUSH2 0x125 SWAP2 SWAP1 PUSH2 0x747 JUMP JUMPDEST PUSH1 0x40 MLOAD DUP1 SWAP2 SUB SWAP1 RETURN JUMPDEST PUSH2 0x148 PUSH1 0x4 DUP1 CALLDATASIZE SUB DUP2 ADD SWAP1 PUSH2 0x143 SWAP2 SWAP1 PUSH2 0x7E2 JUMP JUMPDEST PUSH2 0x390 JUMP JUMPDEST STOP JUMPDEST PUSH0 PUSH0 SWAP1 SLOAD SWAP1 PUSH2 0x100 EXP SWAP1 DIV PUSH20 0xFFFFFFFFFFFFFFFFFFFFFFFFFFFFFFFFFFFFFFFF AND PUSH20 0xFFFFFFFFFFFFFFFFFFFFFFFFFFFFFFFFFFFFFFFF AND CALLER PUSH20 0xFFFFFFFFFFFFFFFFFFFFFFFFFFFFFFFFFFFFFFFF AND EQ PUSH2 0x1D8 JUMPI PUSH1 0x40 MLOAD PUSH32 0x8C379A000000000000000000000000000000000000000000000000000000000 DUP2 MSTORE PUSH1 0x4 ADD PUSH2 0x1CF SWAP1 PUSH2 0x8A8 JUMP JUMPDEST PUSH1 0x40 MLOAD DUP1 SWAP2 SUB SWAP1 REVERT JUMPDEST PUSH1 0x1 DUP2 PUSH1 0x40 MLOAD PUSH2 0x1E8 SWAP2 SWAP1 PUSH2 0x918 JUMP JUMPDEST SWAP1 DUP2 MSTORE PUSH1 0x20 ADD PUSH1 0x40 MLOAD DUP1 SWAP2 SUB SWAP1 KECCAK256 PUSH0 SWAP1 SLOAD SWAP1 PUSH2 0x100 EXP SWAP1 DIV PUSH1 0xFF AND ISZERO PUSH2 0x243 JUMPI PUSH1 0x40 MLOAD PUSH32 0x8C379A000000000000000000000000000000000000000000000000000000000 DUP2 MSTORE PUSH1 0x4 ADD PUSH2 0x23A SWAP1 PUSH2 0x978 JUMP JUMPDEST PUSH1 0x40 MLOAD DUP1 SWAP2 SUB SWAP1 REVERT JUMPDEST PUSH1 0x1 DUP1 DUP3 PUSH1 0x40 MLOAD PUSH2 0x254 SWAP2 SWAP1 PUSH2 0x918 JUMP JUMPDEST SWAP1 DUP2 MSTORE PUSH1 0x20 ADD PUSH1 0x40 MLOAD DUP1 SWAP2 SUB SWAP1 KECCAK256 PUSH0 PUSH2 0x100 EXP DUP2 SLOAD DUP2 PUSH1 0xFF MUL NOT AND SWAP1 DUP4 ISZERO ISZERO MUL OR SWAP1 SSTORE POP PUSH32 0xC3A6F43A7CC3FDE4E2804AF17DB6DE647D06BB0AD7C2E04192613B6517120D28 DUP2 PUSH1 0x40 MLOAD PUSH2 0x2A7 SWAP2 SWAP1 PUSH2 0x9CE JUMP JUMPDEST PUSH1 0x40 MLOAD DUP1 SWAP2 SUB SWAP1 LOG1 POP JUMP JUMPDEST PUSH1 0x2 DUP3 DUP1 MLOAD PUSH1 0x20 DUP2 ADD DUP3 ADD DUP1 MLOAD DUP5 DUP3 MSTORE PUSH1 0x20 DUP4 ADD PUSH1 0x20 DUP6 ADD KECCAK256 DUP2 DUP4 MSTORE DUP1 SWAP6 POP POP POP POP POP POP PUSH1 0x20 MSTORE DUP1 PUSH0 MSTORE PUSH1 0x40 PUSH0 KECCAK256 PUSH0 SWAP2 POP SWAP2 POP SWAP1 SLOAD SWAP1 PUSH2 0x100 EXP SWAP1 DIV PUSH1 0xFF AND DUP2 JUMP JUMPDEST PUSH0 PUSH1 0x2 DUP4 PUSH1 0x40 MLOAD PUSH2 0x305 SWAP2 SWAP1 PUSH2 0x918 JUMP JUMPDEST SWAP1 DUP2 MSTORE PUSH1 0x20 ADD PUSH1 0x40 MLOAD DUP1 SWAP2 SUB SWAP1 KECCAK256 PUSH0 DUP4 DUP2 MSTORE PUSH1 0x20 ADD SWAP1 DUP2 MSTORE PUSH1 0x20 ADD PUSH0 KECCAK256 PUSH0 SWAP1 SLOAD SWAP1 PUSH2 0x100 EXP SWAP1 DIV PUSH1 0xFF AND SWAP1 POP SWAP3 SWAP2 POP POP JUMP JUMPDEST PUSH0 PUSH0 SWAP1 SLOAD SWAP1 PUSH2 0x100 EXP SWAP1 DIV PUSH20 0xFFFFFFFFFFFFFFFFFFFFFFFFFFFFFFFFFFFFFFFF AND DUP2 JUMP JUMPDEST PUSH1 0x1 DUP2 DUP1 MLOAD PUSH1 0x20 DUP2 ADD DUP3 ADD DUP1 MLOAD DUP5 DUP3 MSTORE PUSH1 0x20 DUP4 ADD PUSH1 0x20 DUP6 ADD KECCAK256 DUP2 DUP4 MSTORE DUP1 SWAP6 POP POP POP POP POP POP PUSH0 SWAP2 POP SLOAD SWAP1 PUSH2 0x100 EXP SWAP1 DIV PUSH1 0xFF AND DUP2 JUMP JUMPDEST PUSH0 PUSH0 SWAP1 SLOAD SWAP1 PUSH2 0x100 EXP SWAP1 DIV PUSH20 0xFFFFFFFFFFFFFFFFFFFFFFFFFFFFFFFFFFFFFFFF AND PUSH20 0xFFFFFFFFFFFFFFFFFFFFFFFFFFFFFFFFFFFFFFFF AND CALLER PUSH20 0xFFFFFFFFFFFFFFFFFFFFFFFFFFFFFFFFFFFFFFFF AND EQ PUSH2 0x41E JUMPI PUSH1 0x40 MLOAD PUSH32 0x8C379A000000000000000000000000000000000000000000000000000000000 DUP2 MSTORE PUSH1 0x4 ADD PUSH2 0x415 SWAP1 PUSH2 0x8A8 JUMP JUMPDEST PUSH1 0x40 MLOAD DUP1 SWAP2 SUB SWAP1 REVERT JUMPDEST PUSH1 0x1 DUP4 PUSH1 0x40 MLOAD PUSH2 0x42E SWAP2 SWAP1 PUSH2 0x918 JUMP JUMPDEST SWAP1 DUP2 MSTORE PUSH1 0x20 ADD PUSH1 0x40 MLOAD DUP1 SWAP2 SUB SWAP1 KECCAK256 PUSH0 SWAP1 SLOAD SWAP1 PUSH2 0x100 EXP SWAP1 DIV PUSH1 0xFF AND PUSH2 0x488 JUMPI PUSH1 0x40 MLOAD PUSH32 0x8C379A000000000000000000000000000000000000000000000000000000000 DUP2 MSTORE PUSH1 0x4 ADD PUSH2 0x47F SWAP1 PUSH2 0xA38 JUMP JUMPDEST PUSH1 0x40 MLOAD DUP1 SWAP2 SUB SWAP1 REVERT JUMPDEST DUP1 PUSH1 0x2 DUP5 PUSH1 0x40 MLOAD PUSH2 0x499 SWAP2 SWAP1 PUSH2 0x918 JUMP JUMPDEST SWAP1 DUP2 MSTORE PUSH1 0x20 ADD PUSH1 0x40 MLOAD DUP1 SWAP2 SUB SWAP1 KECCAK256 PUSH0 DUP5 DUP2 MSTORE PUSH1 0x20 ADD SWAP1 DUP2 MSTORE PUSH1 0x20 ADD PUSH0 KECCAK256 PUSH0 PUSH2 0x100 EXP DUP2 SLOAD DUP2 PUSH1 0xFF MUL NOT AND SWAP1 DUP4 ISZERO ISZERO MUL OR SWAP1 SSTORE POP PUSH32 0x93523652616297F19B6FFF3A5AB003EEEC919A119DA9ABA03D5D6DCF19AB5AF3 DUP4 DUP4 DUP4 PUSH1 0x40 MLOAD PUSH2 0x4FF SWAP4 SWAP3 SWAP2 SWAP1 PUSH2 0xA65 JUMP JUMPDEST PUSH1 0x40 MLOAD DUP1 SWAP2 SUB SWAP1 LOG1 POP POP POP JUMP JUMPDEST PUSH0 PUSH1 0x40 MLOAD SWAP1 POP SWAP1 JUMP JUMPDEST PUSH0 PUSH0 REVERT JUMPDEST PUSH0 PUSH0 REVERT JUMPDEST PUSH0 PUSH0 REVERT JUMPDEST PUSH0 PUSH0 REVERT JUMPDEST PUSH0 PUSH1 0x1F NOT PUSH1 0x1F DUP4 ADD AND SWAP1 POP SWAP2 SWAP1 POP JUMP JUMPDEST PUSH32 0x4E487B7100000000000000000000000000000000000000000000000000000000 PUSH0 MSTORE PUSH1 0x41 PUSH1 0x4 MSTORE PUSH1 0x24 PUSH0 REVERT JUMPDEST PUSH2 0x56B DUP3 PUSH2 0x525 JUMP JUMPDEST DUP2 ADD DUP2 DUP2 LT PUSH8 0xFFFFFFFFFFFFFFFF DUP3 GT OR ISZERO PUSH2 0x58A JUMPI PUSH2 0x589 PUSH2 0x535 JUMP JUMPDEST JUMPDEST DUP1 PUSH1 0x40 MSTORE POP POP POP JUMP JUMPDEST PUSH0 PUSH2 0x59C PUSH2 0x50C JUMP JUMPDEST SWAP1 POP PUSH2 0x5A8 DUP3 DUP3 PUSH2 0x562 JUMP JUMPDEST SWAP2 SWAP1 POP JUMP JUMPDEST PUSH0 PUSH8 0xFFFFFFFFFFFFFFFF DUP3 GT ISZERO PUSH2 0x5C7 JUMPI PUSH2 0x5C6 PUSH2 0x535 JUMP JUMPDEST JUMPDEST PUSH2 0x5D0 DUP3 PUSH2 0x525 JUMP JUMPDEST SWAP1 POP PUSH1 0x20 DUP2 ADD SWAP1 POP SWAP2 SWAP1 POP JUMP JUMPDEST DUP3 DUP2 DUP4 CALLDATACOPY PUSH0 DUP4 DUP4 ADD MSTORE POP POP POP JUMP JUMPDEST PUSH0 PUSH2 0x5FD PUSH2 0x5F8 DUP5 PUSH2 0x5AD JUMP JUMPDEST PUSH2 0x593 JUMP JUMPDEST SWAP1 POP DUP3 DUP2 MSTORE PUSH1 0x20 DUP2 ADD DUP5 DUP5 DUP5 ADD GT ISZERO PUSH2 0x619 JUMPI PUSH2 0x618 PUSH2 0x521 JUMP JUMPDEST JUMPDEST PUSH2 0x624 DUP5 DUP3 DUP6 PUSH2 0x5DD JUMP JUMPDEST POP SWAP4 SWAP3 POP POP POP JUMP JUMPDEST PUSH0 DUP3 PUSH1 0x1F DUP4 ADD SLT PUSH2 0x640 JUMPI PUSH2 0x63F PUSH2 0x51D JUMP JUMPDEST JUMPDEST DUP2 CALLDATALOAD PUSH2 0x650 DUP5 DUP3 PUSH1 0x20 DUP7 ADD PUSH2 0x5EB JUMP JUMPDEST SWAP2 POP POP SWAP3 SWAP2 POP POP JUMP JUMPDEST PUSH0 PUSH1 0x20 DUP3 DUP5 SUB SLT ISZERO PUSH2 0x66E JUMPI PUSH2 0x66D PUSH2 0x515 JUMP JUMPDEST JUMPDEST PUSH0 DUP3 ADD CALLDATALOAD PUSH8 0xFFFFFFFFFFFFFFFF DUP2 GT ISZERO PUSH2 0x68B JUMPI PUSH2 0x68A PUSH2 0x519 JUMP JUMPDEST JUMPDEST PUSH2 0x697 DUP5 DUP3 DUP6 ADD PUSH2 0x62C JUMP JUMPDEST SWAP2 POP POP SWAP3 SWAP2 POP POP JUMP JUMPDEST PUSH0 DUP2 SWAP1 POP SWAP2 SWAP1 POP JUMP JUMPDEST PUSH2 0x6B2 DUP2 PUSH2 0x6A0 JUMP JUMPDEST DUP2 EQ PUSH2 0x6BC JUMPI PUSH0 PUSH0 REVERT JUMPDEST POP JUMP JUMPDEST PUSH0 DUP2 CALLDATALOAD SWAP1 POP PUSH2 0x6CD DUP2 PUSH2 0x6A9 JUMP JUMPDEST SWAP3 SWAP2 POP POP JUMP JUMPDEST PUSH0 PUSH0 PUSH1 0x40 DUP4 DUP6 SUB SLT ISZERO PUSH2 0x6E9 JUMPI PUSH2 0x6E8 PUSH2 0x515 JUMP JUMPDEST JUMPDEST PUSH0 DUP4 ADD CALLDATALOAD PUSH8 0xFFFFFFFFFFFFFFFF DUP2 GT ISZERO PUSH2 0x706 JUMPI PUSH2 0x705 PUSH2 0x519 JUMP JUMPDEST JUMPDEST PUSH2 0x712 DUP6 DUP3 DUP7 ADD PUSH2 0x62C JUMP JUMPDEST SWAP3 POP POP PUSH1 0x20 PUSH2 0x723 DUP6 DUP3 DUP7 ADD PUSH2 0x6BF JUMP JUMPDEST SWAP2 POP POP SWAP3 POP SWAP3 SWAP1 POP JUMP JUMPDEST PUSH0 DUP2 ISZERO ISZERO SWAP1 POP SWAP2 SWAP1 POP JUMP JUMPDEST PUSH2 0x741 DUP2 PUSH2 0x72D JUMP JUMPDEST DUP3 MSTORE POP POP JUMP JUMPDEST PUSH0 PUSH1 0x20 DUP3 ADD SWAP1 POP PUSH2 0x75A PUSH0 DUP4 ADD DUP5 PUSH2 0x738 JUMP JUMPDEST SWAP3 SWAP2 POP POP JUMP JUMPDEST PUSH0 PUSH20 0xFFFFFFFFFFFFFFFFFFFFFFFFFFFFFFFFFFFFFFFF DUP3 AND SWAP1 POP SWAP2 SWAP1 POP JUMP JUMPDEST PUSH0 PUSH2 0x789 DUP3 PUSH2 0x760 JUMP JUMPDEST SWAP1 POP SWAP2 SWAP1 POP JUMP JUMPDEST PUSH2 0x799 DUP2 PUSH2 0x77F JUMP JUMPDEST DUP3 MSTORE POP POP JUMP JUMPDEST PUSH0 PUSH1 0x20 DUP3 ADD SWAP1 POP PUSH2 0x7B2 PUSH0 DUP4 ADD DUP5 PUSH2 0x790 JUMP JUMPDEST SWAP3 SWAP2 POP POP JUMP JUMPDEST PUSH2 0x7C1 DUP2 PUSH2 0x72D JUMP JUMPDEST DUP2 EQ PUSH2 0x7CB JUMPI PUSH0 PUSH0 REVERT JUMPDEST POP JUMP JUMPDEST PUSH0 DUP2 CALLDATALOAD SWAP1 POP PUSH2 0x7DC DUP2 PUSH2 0x7B8 JUMP JUMPDEST SWAP3 SWAP2 POP POP JUMP JUMPDEST PUSH0 PUSH0 PUSH0 PUSH1 0x60 DUP5 DUP7 SUB SLT ISZERO PUSH2 0x7F9 JUMPI PUSH2 0x7F8 PUSH2 0x515 JUMP JUMPDEST JUMPDEST PUSH0 DUP5 ADD CALLDATALOAD PUSH8 0xFFFFFFFFFFFFFFFF DUP2 GT ISZERO PUSH2 0x816 JUMPI PUSH2 0x815 PUSH2 0x519 JUMP JUMPDEST JUMPDEST PUSH2 0x822 DUP7 DUP3 DUP8 ADD PUSH2 0x62C JUMP JUMPDEST SWAP4 POP POP PUSH1 0x20 PUSH2 0x833 DUP7 DUP3 DUP8 ADD PUSH2 0x6BF JUMP JUMPDEST SWAP3 POP POP PUSH1 0x40 PUSH2 0x844 DUP7 DUP3 DUP8 ADD PUSH2 0x7CE JUMP JUMPDEST SWAP2 POP POP SWAP3 POP SWAP3 POP SWAP3 JUMP JUMPDEST PUSH0 DUP3 DUP3 MSTORE PUSH1 0x20 DUP3 ADD SWAP1 POP SWAP3 SWAP2 POP POP JUMP JUMPDEST PUSH32 0x4F6E6C79207465616368657220616C6C6F776564000000000000000000000000 PUSH0 DUP3 ADD MSTORE POP JUMP JUMPDEST PUSH0 PUSH2 0x892 PUSH1 0x14 DUP4 PUSH2 0x84E JUMP JUMPDEST SWAP2 POP PUSH2 0x89D DUP3 PUSH2 0x85E JUMP JUMPDEST PUSH1 0x20 DUP3 ADD SWAP1 POP SWAP2 SWAP1 POP JUMP JUMPDEST PUSH0 PUSH1 0x20 DUP3 ADD SWAP1 POP DUP2 DUP2 SUB PUSH0 DUP4 ADD MSTORE PUSH2 0x8BF DUP2 PUSH2 0x886 JUMP JUMPDEST SWAP1 POP SWAP2 SWAP1 POP JUMP JUMPDEST PUSH0 DUP2 MLOAD SWAP1 POP SWAP2 SWAP1 POP JUMP JUMPDEST PUSH0 DUP2 SWAP1 POP SWAP3 SWAP2 POP POP JUMP JUMPDEST DUP3 DUP2 DUP4 MCOPY PUSH0 DUP4 DUP4 ADD MSTORE POP POP POP JUMP JUMPDEST PUSH0 PUSH2 0x8F2 DUP3 PUSH2 0x8C6 JUMP JUMPDEST PUSH2 0x8FC DUP2 DUP6 PUSH2 0x8D0 JUMP JUMPDEST SWAP4 POP PUSH2 0x90C DUP2 DUP6 PUSH1 0x20 DUP7 ADD PUSH2 0x8DA JUMP JUMPDEST DUP1 DUP5 ADD SWAP2 POP POP SWAP3 SWAP2 POP POP JUMP JUMPDEST PUSH0 PUSH2 0x923 DUP3 DUP5 PUSH2 0x8E8 JUMP JUMPDEST SWAP2 POP DUP2 SWAP1 POP SWAP3 SWAP2 POP POP JUMP JUMPDEST PUSH32 0x53747564656E7420616C72656164792072656769737465726564000000000000 PUSH0 DUP3 ADD MSTORE POP JUMP JUMPDEST PUSH0 PUSH2 0x962 PUSH1 0x1A DUP4 PUSH2 0x84E JUMP JUMPDEST SWAP2 POP PUSH2 0x96D DUP3 PUSH2 0x92E JUMP JUMPDEST PUSH1 0x20 DUP3 ADD SWAP1 POP SWAP2 SWAP1 POP JUMP JUMPDEST PUSH0 PUSH1 0x20 DUP3 ADD SWAP1 POP DUP2 DUP2 SUB PUSH0 DUP4 ADD MSTORE PUSH2 0x98F DUP2 PUSH2 0x956 JUMP JUMPDEST SWAP1 POP SWAP2 SWAP1 POP JUMP JUMPDEST PUSH0 PUSH2 0x9A0 DUP3 PUSH2 0x8C6 JUMP JUMPDEST PUSH2 0x9AA DUP2 DUP6 PUSH2 0x84E JUMP JUMPDEST SWAP4 POP PUSH2 0x9BA DUP2 DUP6 PUSH1 0x20 DUP7 ADD PUSH2 0x8DA JUMP JUMPDEST PUSH2 0x9C3 DUP2 PUSH2 0x525 JUMP JUMPDEST DUP5 ADD SWAP2 POP POP SWAP3 SWAP2 POP POP JUMP JUMPDEST PUSH0 PUSH1 0x20 DUP3 ADD SWAP1 POP DUP2 DUP2 SUB PUSH0 DUP4 ADD MSTORE PUSH2 0x9E6 DUP2 DUP5 PUSH2 0x996 JUMP JUMPDEST SWAP1 POP SWAP3 SWAP2 POP POP JUMP JUMPDEST PUSH32 0x53747564656E74206E6F74207265676973746572656400000000000000000000 PUSH0 DUP3 ADD MSTORE POP JUMP JUMPDEST PUSH0 PUSH2 0xA22 PUSH1 0x16 DUP4 PUSH2 0x84E JUMP JUMPDEST SWAP2 POP PUSH2 0xA2D DUP3 PUSH2 0x9EE JUMP JUMPDEST PUSH1 0x20 DUP3 ADD SWAP1 POP SWAP2 SWAP1 POP JUMP JUMPDEST PUSH0 PUSH1 0x20 DUP3 ADD SWAP1 POP DUP2 DUP2 SUB PUSH0 DUP4 ADD MSTORE PUSH2 0xA4F DUP2 PUSH2 0xA16 JUMP JUMPDEST SWAP1 POP SWAP2 SWAP1 POP JUMP JUMPDEST PUSH2 0xA5F DUP2 PUSH2 0x6A0 JUMP JUMPDEST DUP3 MSTORE POP POP JUMP JUMPDEST PUSH0 PUSH1 0x60 DUP3 ADD SWAP1 POP DUP2 DUP2 SUB PUSH0 DUP4 ADD MSTORE PUSH2 0xA7D DUP2 DUP7 PUSH2 0x996 JUMP JUMPDEST SWAP1 POP PUSH2 0xA8C PUSH1 0x20 DUP4 ADD DUP6 PUSH2 0xA56 JUMP JUMPDEST PUSH2 0xA99 PUSH1 0x40 DUP4 ADD DUP5 PUSH2 0x738 JUMP JUMPDEST SWAP5 SWAP4 POP POP POP POP JUMP INVALID LOG2 PUSH5 0x6970667358 0x22 SLT KECCAK256 PUSH28 0x62430ACFE027E40FDF3B90AD351C6DAAFA783EE88251FE7F606121E2 DUP3 SWAP10 0xB4 PUSH5 0x736F6C6343 STOP ADDMOD 0x1E STOP CALLER "
				},
				"gasEstimates": {
					"creation": {
						"codeDepositCost": "555000",
						"executionCost": "24849",
						"totalCost": "579849"
					},
					"external": {
						"attendance(string,uint256)": "infinite",
						"checkAttendance(string,uint256)": "infinite",
						"isRegistered(string)": "infinite",
						"markAttendance(string,uint256,bool)": "infinite",
						"registerStudent(string)": "infinite",
						"teacher()": "2551"
					}
				},
				"methodIdentifiers": {
					"attendance(string,uint256)": "801773df",
					"checkAttendance(string,uint256)": "a1e241b3",
					"isRegistered(string)": "c822d7f0",
					"markAttendance(string,uint256,bool)": "f6705d6e",
					"registerStudent(string)": "71e17445",
					"teacher()": "b46bff89"
				}
			},
			"storageLayout": {
				"storage": [
					{
						"astId": 3,
						"contract": "contracts/attendance.sol:ClassAttendance",
						"label": "teacher",
						"offset": 0,
						"slot": "0",
						"type": "t_address"
					},
					{
						"astId": 28,
						"contract": "contracts/attendance.sol:ClassAttendance",
						"label": "isRegistered",
						"offset": 0,
						"slot": "1",
						"type": "t_mapping(t_string_memory_ptr,t_bool)"
					},
					{
						"astId": 34,
						"contract": "contracts/attendance.sol:ClassAttendance",
						"label": "attendance",
						"offset": 0,
						"slot": "2",
						"type": "t_mapping(t_string_memory_ptr,t_mapping(t_uint256,t_bool))"
					}
				],
				"types": {
					"t_address": {
						"encoding": "inplace",
						"label": "address",
						"numberOfBytes": "20"
					},
					"t_bool": {
						"encoding": "inplace",
						"label": "bool",
						"numberOfBytes": "1"
					},
					"t_mapping(t_string_memory_ptr,t_bool)": {
						"encoding": "mapping",
						"key": "t_string_memory_ptr",
						"label": "mapping(string => bool)",
						"numberOfBytes": "32",
						"value": "t_bool"
					},
					"t_mapping(t_string_memory_ptr,t_mapping(t_uint256,t_bool))": {
						"encoding": "mapping",
						"key": "t_string_memory_ptr",
						"label": "mapping(string => mapping(uint256 => bool))",
						"numberOfBytes": "32",
						"value": "t_mapping(t_uint256,t_bool)"
					},
					"t_mapping(t_uint256,t_bool)": {
						"encoding": "mapping",
						"key": "t_uint256",
						"label": "mapping(uint256 => bool)",
						"numberOfBytes": "32",
						"value": "t_bool"
					},
					"t_string_memory_ptr": {
						"encoding": "bytes",
						"label": "string",
						"numberOfBytes": "32"
					},
					"t_uint256": {
						"encoding": "inplace",
						"label": "uint256",
						"numberOfBytes": "32"
					}
				}
			},
			"userdoc": {
				"kind": "user",
				"methods": {
					"checkAttendance(string,uint256)": {
						"notice": "Check if student was present on a given date"
					},
					"markAttendance(string,uint256,bool)": {
						"notice": "Teacher marks attendance for a student for a specific date"
					},
					"registerStudent(string)": {
						"notice": "Register a student using a unique ID (ex: \"STU101\")"
					}
				},
				"version": 1
			}
		}
	}
}