{
	"attendance.sol": {
		"Attendance": {
			"abi": [
				{
					"inputs": [],
					"stateMutability": "nonpayable",
					"type": "constructor"
				},
				{
					"anonymous": false,
					"inputs": [
						{
							"indexed": true,
							"internalType": "string",
							"name": "studentId",
							"type": "string"
						},
						{
							"indexed": true,
							"internalType": "uint256",
							"name": "dayKey",
							"type": "uint256"
						},
						{
							"indexed": true,
							"internalType": "address",
							"name": "markedBy",
							"type": "address"
						},
						{
							"indexed": false,
							"internalType": "uint256",
							"name": "ts",
							"type": "uint256"
						},
						{
							"indexed": false,
							"internalType": "bool",
							"name": "present",
							"type": "bool"
						}
					],
					"name": "AttendanceMarked",
					"type": "event"
				},
				{
					"anonymous": false,
					"inputs": [
						{
							"indexed": true,
							"internalType": "string",
							"name": "studentId",
							"type": "string"
						},
						{
							"indexed": true,
							"internalType": "address",
							"name": "wallet",
							"type": "address"
						},
						{
							"indexed": false,
							"internalType": "uint256",
							"name": "ts",
							"type": "uint256"
						}
					],
					"name": "StudentRegistered",
					"type": "event"
				},
				{
					"anonymous": false,
					"inputs": [
						{
							"indexed": true,
							"internalType": "address",
							"name": "teacher",
							"type": "address"
						}
					],
					"name": "TeacherAdded",
					"type": "event"
				},
				{
					"anonymous": false,
					"inputs": [
						{
							"indexed": true,
							"internalType": "address",
							"name": "teacher",
							"type": "address"
						}
					],
					"name": "TeacherRemoved",
					"type": "event"
				},
				{
					"inputs": [
						{
							"internalType": "address",
							"name": "teacher",
							"type": "address"
						}
					],
					"name": "addTeacher",
					"outputs": [],
					"stateMutability": "nonpayable",
					"type": "function"
				},
				{
					"inputs": [
						{
							"internalType": "string",
							"name": "studentId",
							"type": "string"
						},
						{
							"internalType": "uint256[]",
							"name": "dayKeys",
							"type": "uint256[]"
						}
					],
					"name": "batchIsPresent",
					"outputs": [
						{
							"internalType": "bool[]",
							"name": "",
							"type": "bool[]"
						},
						{
							"internalType": "uint256[]",
							"name": "",
							"type": "uint256[]"
						}
					],
					"stateMutability": "view",
					"type": "function"
				},
				{
					"inputs": [
						{
							"internalType": "string",
							"name": "studentId",
							"type": "string"
						}
					],
					"name": "getStudent",
					"outputs": [
						{
							"internalType": "string",
							"name": "",
							"type": "string"
						},
						{
							"internalType": "address",
							"name": "",
							"type": "address"
						},
						{
							"internalType": "uint256",
							"name": "",
							"type": "uint256"
						}
					],
					"stateMutability": "view",
					"type": "function"
				},
				{
					"inputs": [
						{
							"internalType": "string",
							"name": "studentId",
							"type": "string"
						},
						{
							"internalType": "uint256",
							"name": "dayKey",
							"type": "uint256"
						}
					],
					"name": "isPresent",
					"outputs": [
						{
							"internalType": "bool",
							"name": "",
							"type": "bool"
						},
						{
							"internalType": "uint256",
							"name": "",
							"type": "uint256"
						}
					],
					"stateMutability": "view",
					"type": "function"
				},
				{
					"inputs": [
						{
							"internalType": "string",
							"name": "studentId",
							"type": "string"
						}
					],
					"name": "isRegistered",
					"outputs": [
						{
							"internalType": "bool",
							"name": "",
							"type": "bool"
						}
					],
					"stateMutability": "view",
					"type": "function"
				},
				{
					"inputs": [
						{
							"internalType": "address",
							"name": "",
							"type": "address"
						}
					],
					"name": "isTeacher",
					"outputs": [
						{
							"internalType": "bool",
							"name": "",
							"type": "bool"
						}
					],
					"stateMutability": "view",
					"type": "function"
				},
				{
					"inputs": [
						{
							"internalType": "string",
							"name": "studentId",
							"type": "string"
						},
						{
							"internalType": "uint256",
							"name": "dayKey",
							"type": "uint256"
						},
						{
							"internalType": "bool",
							"name": "present",
							"type": "bool"
						}
					],
					"name": "markAttendance",
					"outputs": [],
					"stateMutability": "nonpayable",
					"type": "function"
				},
				{
					"inputs": [],
					"name": "owner",
					"outputs": [
						{
							"internalType": "address",
							"name": "",
							"type": "address"
						}
					],
					"stateMutability": "view",
					"type": "function"
				},
				{
					"inputs": [
						{
							"internalType": "string",
							"name": "studentId",
							"type": "string"
						},
						{
							"internalType": "address",
							"name": "wallet",
							"type": "address"
						}
					],
					"name": "registerStudent",
					"outputs": [],
					"stateMutability": "nonpayable",
					"type": "function"
				},
				{
					"inputs": [
						{
							"internalType": "address",
							"name": "teacher",
							"type": "address"
						}
					],
					"name": "removeTeacher",
					"outputs": [],
					"stateMutability": "nonpayable",
					"type": "function"
				},
				{
					"inputs": [
						{
							"internalType": "string",
							"name": "studentId",
							"type": "string"
						},
						{
							"internalType": "uint256",
							"name": "dayKey",
							"type": "uint256"
						},
						{
							"internalType": "bool",
							"name": "present",
							"type": "bool"
						}
					],
					"name": "selfCheckIn",
					"outputs": [],
					"stateMutability": "nonpayable",
					"type": "function"
				},
				{
					"inputs": [
						{
							"internalType": "address",
							"name": "newOwner",
							"type": "address"
						}
					],
					"name": "transferOwnership",
					"outputs": [],
					"stateMutability": "nonpayable",
					"type": "function"
				}
			],
			"devdoc": {
				"kind": "dev",
				"methods": {
					"markAttendance(string,uint256,bool)": {
						"params": {
							"dayKey": "date encoded as YYYYMMDD (e.g., 20251120 for Nov 20, 2025) or any agreed-upon uint",
							"present": "true = present, false = absent",
							"studentId": "student identifier (string, e.g., \"S1234\")"
						}
					}
				},
				"title": "Attendance - Basic student attendance verification",
				"version": 1
			},
			"evm": {
				"assembly": "    /* \"attendance.sol\":297:5306  contract Attendance {... */\n  mstore(0x40, 0x80)\n    /* \"attendance.sol\":455:506  constructor() {... */\n  callvalue\n  dup1\n  iszero\n  tag_1\n  jumpi\n  revert(0x00, 0x00)\ntag_1:\n  pop\n    /* \"attendance.sol\":488:498  msg.sender */\n  caller\n    /* \"attendance.sol\":480:485  owner */\n  0x00\n  0x00\n    /* \"attendance.sol\":480:498  owner = msg.sender */\n  0x0100\n  exp\n  dup2\n  sload\n  dup2\n  0xffffffffffffffffffffffffffffffffffffffff\n  mul\n  not\n  and\n  swap1\n  dup4\n  0xffffffffffffffffffffffffffffffffffffffff\n  and\n  mul\n  or\n  swap1\n  sstore\n  pop\n    /* \"attendance.sol\":297:5306  contract Attendance {... */\n  dataSize(sub_0)\n  dup1\n  dataOffset(sub_0)\n  0x00\n  codecopy\n  0x00\n  return\nstop\n\nsub_0: assembly {\n        /* \"attendance.sol\":297:5306  contract Attendance {... */\n      mstore(0x40, 0x80)\n      callvalue\n      dup1\n      iszero\n      tag_1\n      jumpi\n      revert(0x00, 0x00)\n    tag_1:\n      pop\n      jumpi(tag_2, lt(calldatasize, 0x04))\n      shr(0xe0, calldataload(0x00))\n      dup1\n      0x8da5cb5b\n      gt\n      tag_15\n      jumpi\n      dup1\n      0x8da5cb5b\n      eq\n      tag_9\n      jumpi\n      dup1\n      0xaec37eb3\n      eq\n      tag_10\n      jumpi\n      dup1\n      0xc822d7f0\n      eq\n      tag_11\n      jumpi\n      dup1\n      0xd0296612\n      eq\n      tag_12\n      jumpi\n      dup1\n      0xf2fde38b\n      eq\n      tag_13\n      jumpi\n      dup1\n      0xf6705d6e\n      eq\n      tag_14\n      jumpi\n      jump(tag_2)\n    tag_15:\n      dup1\n      0x3bc6e309\n      eq\n      tag_3\n      jumpi\n      dup1\n      0x4282c686\n      eq\n      tag_4\n      jumpi\n      dup1\n      0x528bcbac\n      eq\n      tag_5\n      jumpi\n      dup1\n      0x52ff6846\n      eq\n      tag_6\n      jumpi\n      dup1\n      0x7a3cacdc\n      eq\n      tag_7\n      jumpi\n      dup1\n      0x85bbdb4a\n      eq\n      tag_8\n      jumpi\n    tag_2:\n      revert(0x00, 0x00)\n        /* \"attendance.sol\":863:1057  function addTeacher(address teacher) external onlyOwner {... */\n    tag_3:\n      tag_16\n      0x04\n      dup1\n      calldatasize\n      sub\n      dup2\n      add\n      swap1\n      tag_17\n      swap2\n      swap1\n      tag_18\n      jump\t// in\n    tag_17:\n      tag_19\n      jump\t// in\n    tag_16:\n      stop\n        /* \"attendance.sol\":3927:4117  function isPresent(string calldata studentId, uint256 dayKey) external view returns (bool, uint256) {... */\n    tag_4:\n      tag_20\n      0x04\n      dup1\n      calldatasize\n      sub\n      dup2\n      add\n      swap1\n      tag_21\n      swap2\n      swap1\n      tag_22\n      jump\t// in\n    tag_21:\n      tag_23\n      jump\t// in\n    tag_20:\n      mload(0x40)\n      tag_24\n      swap3\n      swap2\n      swap1\n      tag_25\n      jump\t// in\n    tag_24:\n      mload(0x40)\n      dup1\n      swap2\n      sub\n      swap1\n      return\n        /* \"attendance.sol\":1635:2185  function registerStudent(string calldata studentId, address wallet) external {... */\n    tag_5:\n      tag_26\n      0x04\n      dup1\n      calldatasize\n      sub\n      dup2\n      add\n      swap1\n      tag_27\n      swap2\n      swap1\n      tag_28\n      jump\t// in\n    tag_27:\n      tag_29\n      jump\t// in\n    tag_26:\n      stop\n        /* \"attendance.sol\":1065:1207  function removeTeacher(address teacher) external onlyOwner {... */\n    tag_6:\n      tag_30\n      0x04\n      dup1\n      calldatasize\n      sub\n      dup2\n      add\n      swap1\n      tag_31\n      swap2\n      swap1\n      tag_18\n      jump\t// in\n    tag_31:\n      tag_32\n      jump\t// in\n    tag_30:\n      stop\n        /* \"attendance.sol\":4834:5303  function selfCheckIn(string calldata studentId, uint256 dayKey, bool present) external {... */\n    tag_7:\n      tag_33\n      0x04\n      dup1\n      calldatasize\n      sub\n      dup2\n      add\n      swap1\n      tag_34\n      swap2\n      swap1\n      tag_35\n      jump\t// in\n    tag_34:\n      tag_36\n      jump\t// in\n    tag_33:\n      stop\n        /* \"attendance.sol\":4195:4667  function batchIsPresent(string calldata studentId, uint256[] calldata dayKeys) external view returns (bool[] memory, uint256[] memory) {... */\n    tag_8:\n      tag_37\n      0x04\n      dup1\n      calldatasize\n      sub\n      dup2\n      add\n      swap1\n      tag_38\n      swap2\n      swap1\n      tag_39\n      jump\t// in\n    tag_38:\n      tag_40\n      jump\t// in\n    tag_37:\n      mload(0x40)\n      tag_41\n      swap3\n      swap2\n      swap1\n      tag_42\n      jump\t// in\n    tag_41:\n      mload(0x40)\n      dup1\n      swap2\n      sub\n      swap1\n      return\n        /* \"attendance.sol\":324:344  address public owner */\n    tag_9:\n      tag_43\n      tag_44\n      jump\t// in\n    tag_43:\n      mload(0x40)\n      tag_45\n      swap2\n      swap1\n      tag_46\n      jump\t// in\n    tag_45:\n      mload(0x40)\n      dup1\n      swap2\n      sub\n      swap1\n      return\n        /* \"attendance.sol\":711:752  mapping(address => bool) public isTeacher */\n    tag_10:\n      tag_47\n      0x04\n      dup1\n      calldatasize\n      sub\n      dup2\n      add\n      swap1\n      tag_48\n      swap2\n      swap1\n      tag_18\n      jump\t// in\n    tag_48:\n      tag_49\n      jump\t// in\n    tag_47:\n      mload(0x40)\n      tag_50\n      swap2\n      swap1\n      tag_51\n      jump\t// in\n    tag_50:\n      mload(0x40)\n      dup1\n      swap2\n      sub\n      swap1\n      return\n        /* \"attendance.sol\":2418:2557  function isRegistered(string calldata studentId) public view returns (bool) {... */\n    tag_11:\n      tag_52\n      0x04\n      dup1\n      calldatasize\n      sub\n      dup2\n      add\n      swap1\n      tag_53\n      swap2\n      swap1\n      tag_54\n      jump\t// in\n    tag_53:\n      tag_55\n      jump\t// in\n    tag_52:\n      mload(0x40)\n      tag_56\n      swap2\n      swap1\n      tag_51\n      jump\t// in\n    tag_56:\n      mload(0x40)\n      dup1\n      swap2\n      sub\n      swap1\n      return\n        /* \"attendance.sol\":2193:2410  function getStudent(string calldata studentId) external view returns (string memory, address, uint256) {... */\n    tag_12:\n      tag_57\n      0x04\n      dup1\n      calldatasize\n      sub\n      dup2\n      add\n      swap1\n      tag_58\n      swap2\n      swap1\n      tag_54\n      jump\t// in\n    tag_58:\n      tag_59\n      jump\t// in\n    tag_57:\n      mload(0x40)\n      tag_60\n      swap4\n      swap3\n      swap2\n      swap1\n      tag_61\n      jump\t// in\n    tag_60:\n      mload(0x40)\n      dup1\n      swap2\n      sub\n      swap1\n      return\n        /* \"attendance.sol\":514:671  function transferOwnership(address newOwner) external onlyOwner {... */\n    tag_13:\n      tag_62\n      0x04\n      dup1\n      calldatasize\n      sub\n      dup2\n      add\n      swap1\n      tag_63\n      swap2\n      swap1\n      tag_18\n      jump\t// in\n    tag_63:\n      tag_64\n      jump\t// in\n    tag_62:\n      stop\n        /* \"attendance.sol\":3394:3842  function markAttendance(string calldata studentId, uint256 dayKey, bool present) external {... */\n    tag_14:\n      tag_65\n      0x04\n      dup1\n      calldatasize\n      sub\n      dup2\n      add\n      swap1\n      tag_66\n      swap2\n      swap1\n      tag_35\n      jump\t// in\n    tag_66:\n      tag_67\n      jump\t// in\n    tag_65:\n      stop\n        /* \"attendance.sol\":863:1057  function addTeacher(address teacher) external onlyOwner {... */\n    tag_19:\n        /* \"attendance.sol\":407:412  owner */\n      0x00\n      0x00\n      swap1\n      sload\n      swap1\n      0x0100\n      exp\n      swap1\n      div\n      0xffffffffffffffffffffffffffffffffffffffff\n      and\n        /* \"attendance.sol\":393:412  msg.sender == owner */\n      0xffffffffffffffffffffffffffffffffffffffff\n      and\n        /* \"attendance.sol\":393:403  msg.sender */\n      caller\n        /* \"attendance.sol\":393:412  msg.sender == owner */\n      0xffffffffffffffffffffffffffffffffffffffff\n      and\n      eq\n        /* \"attendance.sol\":385:427  require(msg.sender == owner, \"only owner\") */\n      tag_69\n      jumpi\n      mload(0x40)\n      0x08c379a000000000000000000000000000000000000000000000000000000000\n      dup2\n      mstore\n      0x04\n      add\n      tag_70\n      swap1\n      tag_71\n      jump\t// in\n    tag_70:\n      mload(0x40)\n      dup1\n      swap2\n      sub\n      swap1\n      revert\n    tag_69:\n        /* \"attendance.sol\":957:958  0 */\n      0x00\n        /* \"attendance.sol\":938:959  teacher != address(0) */\n      0xffffffffffffffffffffffffffffffffffffffff\n      and\n        /* \"attendance.sol\":938:945  teacher */\n      dup2\n        /* \"attendance.sol\":938:959  teacher != address(0) */\n      0xffffffffffffffffffffffffffffffffffffffff\n      and\n      sub\n        /* \"attendance.sol\":930:976  require(teacher != address(0), \"zero address\") */\n      tag_73\n      jumpi\n      mload(0x40)\n      0x08c379a000000000000000000000000000000000000000000000000000000000\n      dup2\n      mstore\n      0x04\n      add\n      tag_74\n      swap1\n      tag_75\n      jump\t// in\n    tag_74:\n      mload(0x40)\n      dup1\n      swap2\n      sub\n      swap1\n      revert\n    tag_73:\n        /* \"attendance.sol\":1008:1012  true */\n      0x01\n        /* \"attendance.sol\":987:996  isTeacher */\n      dup1\n        /* \"attendance.sol\":987:1005  isTeacher[teacher] */\n      0x00\n        /* \"attendance.sol\":997:1004  teacher */\n      dup4\n        /* \"attendance.sol\":987:1005  isTeacher[teacher] */\n      0xffffffffffffffffffffffffffffffffffffffff\n      and\n      0xffffffffffffffffffffffffffffffffffffffff\n      and\n      dup2\n      mstore\n      0x20\n      add\n      swap1\n      dup2\n      mstore\n      0x20\n      add\n      0x00\n      keccak256\n      0x00\n        /* \"attendance.sol\":987:1012  isTeacher[teacher] = true */\n      0x0100\n      exp\n      dup2\n      sload\n      dup2\n      0xff\n      mul\n      not\n      and\n      swap1\n      dup4\n      iszero\n      iszero\n      mul\n      or\n      swap1\n      sstore\n      pop\n        /* \"attendance.sol\":1041:1048  teacher */\n      dup1\n        /* \"attendance.sol\":1028:1049  TeacherAdded(teacher) */\n      0xffffffffffffffffffffffffffffffffffffffff\n      and\n      0x04e1c63d2b2fafca3496ea9c3f23b77835b9a91f5d74802ced76b7f929b3265e\n      mload(0x40)\n      mload(0x40)\n      dup1\n      swap2\n      sub\n      swap1\n      log2\n        /* \"attendance.sol\":863:1057  function addTeacher(address teacher) external onlyOwner {... */\n      pop\n      jump\t// out\n        /* \"attendance.sol\":3927:4117  function isPresent(string calldata studentId, uint256 dayKey) external view returns (bool, uint256) {... */\n    tag_23:\n        /* \"attendance.sol\":4012:4016  bool */\n      0x00\n        /* \"attendance.sol\":4018:4025  uint256 */\n      0x00\n        /* \"attendance.sol\":4046:4056  attendance */\n      0x03\n        /* \"attendance.sol\":4057:4066  studentId */\n      dup6\n      dup6\n        /* \"attendance.sol\":4046:4067  attendance[studentId] */\n      mload(0x40)\n      tag_77\n      swap3\n      swap2\n      swap1\n      tag_78\n      jump\t// in\n    tag_77:\n      swap1\n      dup2\n      mstore\n      0x20\n      add\n      mload(0x40)\n      dup1\n      swap2\n      sub\n      swap1\n      keccak256\n        /* \"attendance.sol\":4046:4075  attendance[studentId][dayKey] */\n      0x00\n        /* \"attendance.sol\":4068:4074  dayKey */\n      dup5\n        /* \"attendance.sol\":4046:4075  attendance[studentId][dayKey] */\n      dup2\n      mstore\n      0x20\n      add\n      swap1\n      dup2\n      mstore\n      0x20\n      add\n      0x00\n      keccak256\n      0x00\n      swap1\n      sload\n      swap1\n      0x0100\n      exp\n      swap1\n      div\n      0xff\n      and\n        /* \"attendance.sol\":4077:4089  attendanceTs */\n      0x04\n        /* \"attendance.sol\":4090:4099  studentId */\n      dup7\n      dup7\n        /* \"attendance.sol\":4077:4100  attendanceTs[studentId] */\n      mload(0x40)\n      tag_79\n      swap3\n      swap2\n      swap1\n      tag_78\n      jump\t// in\n    tag_79:\n      swap1\n      dup2\n      mstore\n      0x20\n      add\n      mload(0x40)\n      dup1\n      swap2\n      sub\n      swap1\n      keccak256\n        /* \"attendance.sol\":4077:4108  attendanceTs[studentId][dayKey] */\n      0x00\n        /* \"attendance.sol\":4101:4107  dayKey */\n      dup6\n        /* \"attendance.sol\":4077:4108  attendanceTs[studentId][dayKey] */\n      dup2\n      mstore\n      0x20\n      add\n      swap1\n      dup2\n      mstore\n      0x20\n      add\n      0x00\n      keccak256\n      sload\n        /* \"attendance.sol\":4038:4109  return (attendance[studentId][dayKey], attendanceTs[studentId][dayKey]) */\n      swap2\n      pop\n      swap2\n      pop\n        /* \"attendance.sol\":3927:4117  function isPresent(string calldata studentId, uint256 dayKey) external view returns (bool, uint256) {... */\n      swap4\n      pop\n      swap4\n      swap2\n      pop\n      pop\n      jump\t// out\n        /* \"attendance.sol\":1635:2185  function registerStudent(string calldata studentId, address wallet) external {... */\n    tag_29:\n        /* \"attendance.sol\":1731:1740  isTeacher */\n      0x01\n        /* \"attendance.sol\":1731:1752  isTeacher[msg.sender] */\n      0x00\n        /* \"attendance.sol\":1741:1751  msg.sender */\n      caller\n        /* \"attendance.sol\":1731:1752  isTeacher[msg.sender] */\n      0xffffffffffffffffffffffffffffffffffffffff\n      and\n      0xffffffffffffffffffffffffffffffffffffffff\n      and\n      dup2\n      mstore\n      0x20\n      add\n      swap1\n      dup2\n      mstore\n      0x20\n      add\n      0x00\n      keccak256\n      0x00\n      swap1\n      sload\n      swap1\n      0x0100\n      exp\n      swap1\n      div\n      0xff\n      and\n        /* \"attendance.sol\":1731:1775  isTeacher[msg.sender] || msg.sender == owner */\n      dup1\n      tag_81\n      jumpi\n      pop\n        /* \"attendance.sol\":1770:1775  owner */\n      0x00\n      0x00\n      swap1\n      sload\n      swap1\n      0x0100\n      exp\n      swap1\n      div\n      0xffffffffffffffffffffffffffffffffffffffff\n      and\n        /* \"attendance.sol\":1756:1775  msg.sender == owner */\n      0xffffffffffffffffffffffffffffffffffffffff\n      and\n        /* \"attendance.sol\":1756:1766  msg.sender */\n      caller\n        /* \"attendance.sol\":1756:1775  msg.sender == owner */\n      0xffffffffffffffffffffffffffffffffffffffff\n      and\n      eq\n        /* \"attendance.sol\":1731:1775  isTeacher[msg.sender] || msg.sender == owner */\n    tag_81:\n        /* \"attendance.sol\":1723:1794  require(isTeacher[msg.sender] || msg.sender == owner, \"not authorized\") */\n      tag_82\n      jumpi\n      mload(0x40)\n      0x08c379a000000000000000000000000000000000000000000000000000000000\n      dup2\n      mstore\n      0x04\n      add\n      tag_83\n      swap1\n      tag_84\n      jump\t// in\n    tag_83:\n      mload(0x40)\n      dup1\n      swap2\n      sub\n      swap1\n      revert\n    tag_82:\n        /* \"attendance.sol\":1805:1822  Student storage s */\n      0x00\n        /* \"attendance.sol\":1825:1833  students */\n      0x02\n        /* \"attendance.sol\":1834:1843  studentId */\n      dup5\n      dup5\n        /* \"attendance.sol\":1825:1844  students[studentId] */\n      mload(0x40)\n      tag_85\n      swap3\n      swap2\n      swap1\n      tag_78\n      jump\t// in\n    tag_85:\n      swap1\n      dup2\n      mstore\n      0x20\n      add\n      mload(0x40)\n      dup1\n      swap2\n      sub\n      swap1\n      keccak256\n        /* \"attendance.sol\":1805:1844  Student storage s = students[studentId] */\n      swap1\n      pop\n        /* \"attendance.sol\":1877:1878  0 */\n      0x00\n        /* \"attendance.sol\":1859:1860  s */\n      dup2\n        /* \"attendance.sol\":1859:1873  s.registeredAt */\n      0x02\n      add\n      sload\n        /* \"attendance.sol\":1859:1878  s.registeredAt == 0 */\n      sub\n        /* \"attendance.sol\":1855:2178  if (s.registeredAt == 0) {... */\n      tag_86\n      jumpi\n        /* \"attendance.sol\":1909:1918  studentId */\n      dup4\n      dup4\n        /* \"attendance.sol\":1895:1896  s */\n      dup3\n        /* \"attendance.sol\":1895:1906  s.studentId */\n      0x00\n      add\n        /* \"attendance.sol\":1895:1918  s.studentId = studentId */\n      swap2\n      dup3\n      tag_87\n      swap3\n      swap2\n      swap1\n      tag_88\n      jump\t// in\n    tag_87:\n      pop\n        /* \"attendance.sol\":1944:1950  wallet */\n      dup2\n        /* \"attendance.sol\":1933:1934  s */\n      dup2\n        /* \"attendance.sol\":1933:1941  s.wallet */\n      0x01\n      add\n      0x00\n        /* \"attendance.sol\":1933:1950  s.wallet = wallet */\n      0x0100\n      exp\n      dup2\n      sload\n      dup2\n      0xffffffffffffffffffffffffffffffffffffffff\n      mul\n      not\n      and\n      swap1\n      dup4\n      0xffffffffffffffffffffffffffffffffffffffff\n      and\n      mul\n      or\n      swap1\n      sstore\n      pop\n        /* \"attendance.sol\":1982:1997  block.timestamp */\n      timestamp\n        /* \"attendance.sol\":1965:1966  s */\n      dup2\n        /* \"attendance.sol\":1965:1979  s.registeredAt */\n      0x02\n      add\n        /* \"attendance.sol\":1965:1997  s.registeredAt = block.timestamp */\n      dup2\n      swap1\n      sstore\n      pop\n        /* \"attendance.sol\":2046:2052  wallet */\n      dup2\n        /* \"attendance.sol\":2017:2070  StudentRegistered(studentId, wallet, block.timestamp) */\n      0xffffffffffffffffffffffffffffffffffffffff\n      and\n        /* \"attendance.sol\":2035:2044  studentId */\n      dup5\n      dup5\n        /* \"attendance.sol\":2017:2070  StudentRegistered(studentId, wallet, block.timestamp) */\n      mload(0x40)\n      tag_89\n      swap3\n      swap2\n      swap1\n      tag_78\n      jump\t// in\n    tag_89:\n      mload(0x40)\n      dup1\n      swap2\n      sub\n      swap1\n      keccak256\n      0x1ca227814cecb0d4e3b9a4c4d202ce03ab7b5b8e8df99ab1471550f72d668270\n        /* \"attendance.sol\":2054:2069  block.timestamp */\n      timestamp\n        /* \"attendance.sol\":2017:2070  StudentRegistered(studentId, wallet, block.timestamp) */\n      mload(0x40)\n      tag_90\n      swap2\n      swap1\n      tag_91\n      jump\t// in\n    tag_90:\n      mload(0x40)\n      dup1\n      swap2\n      sub\n      swap1\n      log3\n        /* \"attendance.sol\":1855:2178  if (s.registeredAt == 0) {... */\n      jump(tag_92)\n    tag_86:\n        /* \"attendance.sol\":2160:2166  wallet */\n      dup2\n        /* \"attendance.sol\":2149:2150  s */\n      dup2\n        /* \"attendance.sol\":2149:2157  s.wallet */\n      0x01\n      add\n      0x00\n        /* \"attendance.sol\":2149:2166  s.wallet = wallet */\n      0x0100\n      exp\n      dup2\n      sload\n      dup2\n      0xffffffffffffffffffffffffffffffffffffffff\n      mul\n      not\n      and\n      swap1\n      dup4\n      0xffffffffffffffffffffffffffffffffffffffff\n      and\n      mul\n      or\n      swap1\n      sstore\n      pop\n        /* \"attendance.sol\":1855:2178  if (s.registeredAt == 0) {... */\n    tag_92:\n        /* \"attendance.sol\":1712:2185  {... */\n      pop\n        /* \"attendance.sol\":1635:2185  function registerStudent(string calldata studentId, address wallet) external {... */\n      pop\n      pop\n      pop\n      jump\t// out\n        /* \"attendance.sol\":1065:1207  function removeTeacher(address teacher) external onlyOwner {... */\n    tag_32:\n        /* \"attendance.sol\":407:412  owner */\n      0x00\n      0x00\n      swap1\n      sload\n      swap1\n      0x0100\n      exp\n      swap1\n      div\n      0xffffffffffffffffffffffffffffffffffffffff\n      and\n        /* \"attendance.sol\":393:412  msg.sender == owner */\n      0xffffffffffffffffffffffffffffffffffffffff\n      and\n        /* \"attendance.sol\":393:403  msg.sender */\n      caller\n        /* \"attendance.sol\":393:412  msg.sender == owner */\n      0xffffffffffffffffffffffffffffffffffffffff\n      and\n      eq\n        /* \"attendance.sol\":385:427  require(msg.sender == owner, \"only owner\") */\n      tag_94\n      jumpi\n      mload(0x40)\n      0x08c379a000000000000000000000000000000000000000000000000000000000\n      dup2\n      mstore\n      0x04\n      add\n      tag_95\n      swap1\n      tag_71\n      jump\t// in\n    tag_95:\n      mload(0x40)\n      dup1\n      swap2\n      sub\n      swap1\n      revert\n    tag_94:\n        /* \"attendance.sol\":1142:1151  isTeacher */\n      0x01\n        /* \"attendance.sol\":1142:1160  isTeacher[teacher] */\n      0x00\n        /* \"attendance.sol\":1152:1159  teacher */\n      dup3\n        /* \"attendance.sol\":1142:1160  isTeacher[teacher] */\n      0xffffffffffffffffffffffffffffffffffffffff\n      and\n      0xffffffffffffffffffffffffffffffffffffffff\n      and\n      dup2\n      mstore\n      0x20\n      add\n      swap1\n      dup2\n      mstore\n      0x20\n      add\n      0x00\n      keccak256\n      0x00\n        /* \"attendance.sol\":1135:1160  delete isTeacher[teacher] */\n      0x0100\n      exp\n      dup2\n      sload\n      swap1\n      0xff\n      mul\n      not\n      and\n      swap1\n      sstore\n        /* \"attendance.sol\":1191:1198  teacher */\n      dup1\n        /* \"attendance.sol\":1176:1199  TeacherRemoved(teacher) */\n      0xffffffffffffffffffffffffffffffffffffffff\n      and\n      0x024a5dd50126818a1d488f90df37ad02592196a4ea744aff4799818139297734\n      mload(0x40)\n      mload(0x40)\n      dup1\n      swap2\n      sub\n      swap1\n      log2\n        /* \"attendance.sol\":1065:1207  function removeTeacher(address teacher) external onlyOwner {... */\n      pop\n      jump\t// out\n        /* \"attendance.sol\":4834:5303  function selfCheckIn(string calldata studentId, uint256 dayKey, bool present) external {... */\n    tag_36:\n        /* \"attendance.sol\":4932:4948  Student memory s */\n      0x00\n        /* \"attendance.sol\":4951:4959  students */\n      0x02\n        /* \"attendance.sol\":4960:4969  studentId */\n      dup6\n      dup6\n        /* \"attendance.sol\":4951:4970  students[studentId] */\n      mload(0x40)\n      tag_98\n      swap3\n      swap2\n      swap1\n      tag_78\n      jump\t// in\n    tag_98:\n      swap1\n      dup2\n      mstore\n      0x20\n      add\n      mload(0x40)\n      dup1\n      swap2\n      sub\n      swap1\n      keccak256\n        /* \"attendance.sol\":4932:4970  Student memory s = students[studentId] */\n      mload(0x40)\n      dup1\n      0x60\n      add\n      0x40\n      mstore\n      swap1\n      dup2\n      0x00\n      dup3\n      add\n      dup1\n      sload\n      tag_99\n      swap1\n      tag_100\n      jump\t// in\n    tag_99:\n      dup1\n      0x1f\n      add\n      0x20\n      dup1\n      swap2\n      div\n      mul\n      0x20\n      add\n      mload(0x40)\n      swap1\n      dup2\n      add\n      0x40\n      mstore\n      dup1\n      swap3\n      swap2\n      swap1\n      dup2\n      dup2\n      mstore\n      0x20\n      add\n      dup3\n      dup1\n      sload\n      tag_101\n      swap1\n      tag_100\n      jump\t// in\n    tag_101:\n      dup1\n      iszero\n      tag_102\n      jumpi\n      dup1\n      0x1f\n      lt\n      tag_103\n      jumpi\n      0x0100\n      dup1\n      dup4\n      sload\n      div\n      mul\n      dup4\n      mstore\n      swap2\n      0x20\n      add\n      swap2\n      jump(tag_102)\n    tag_103:\n      dup3\n      add\n      swap2\n      swap1\n      0x00\n      mstore\n      keccak256(0x00, 0x20)\n      swap1\n    tag_104:\n      dup2\n      sload\n      dup2\n      mstore\n      swap1\n      0x01\n      add\n      swap1\n      0x20\n      add\n      dup1\n      dup4\n      gt\n      tag_104\n      jumpi\n      dup3\n      swap1\n      sub\n      0x1f\n      and\n      dup3\n      add\n      swap2\n    tag_102:\n      pop\n      pop\n      pop\n      pop\n      pop\n      dup2\n      mstore\n      0x20\n      add\n      0x01\n      dup3\n      add\n      0x00\n      swap1\n      sload\n      swap1\n      0x0100\n      exp\n      swap1\n      div\n      0xffffffffffffffffffffffffffffffffffffffff\n      and\n      0xffffffffffffffffffffffffffffffffffffffff\n      and\n      0xffffffffffffffffffffffffffffffffffffffff\n      and\n      dup2\n      mstore\n      0x20\n      add\n      0x02\n      dup3\n      add\n      sload\n      dup2\n      mstore\n      pop\n      pop\n      swap1\n      pop\n        /* \"attendance.sol\":5007:5008  0 */\n      0x00\n        /* \"attendance.sol\":4989:4990  s */\n      dup2\n        /* \"attendance.sol\":4989:5003  s.registeredAt */\n      0x40\n      add\n      mload\n        /* \"attendance.sol\":4989:5008  s.registeredAt != 0 */\n      sub\n        /* \"attendance.sol\":4981:5035  require(s.registeredAt != 0, \"student not registered\") */\n      tag_105\n      jumpi\n      mload(0x40)\n      0x08c379a000000000000000000000000000000000000000000000000000000000\n      dup2\n      mstore\n      0x04\n      add\n      tag_106\n      swap1\n      tag_107\n      jump\t// in\n    tag_106:\n      mload(0x40)\n      dup1\n      swap2\n      sub\n      swap1\n      revert\n    tag_105:\n        /* \"attendance.sol\":5066:5076  msg.sender */\n      caller\n        /* \"attendance.sol\":5054:5076  s.wallet == msg.sender */\n      0xffffffffffffffffffffffffffffffffffffffff\n      and\n        /* \"attendance.sol\":5054:5055  s */\n      dup2\n        /* \"attendance.sol\":5054:5062  s.wallet */\n      0x20\n      add\n      mload\n        /* \"attendance.sol\":5054:5076  s.wallet == msg.sender */\n      0xffffffffffffffffffffffffffffffffffffffff\n      and\n      eq\n        /* \"attendance.sol\":5046:5096  require(s.wallet == msg.sender, \"wallet mismatch\") */\n      tag_108\n      jumpi\n      mload(0x40)\n      0x08c379a000000000000000000000000000000000000000000000000000000000\n      dup2\n      mstore\n      0x04\n      add\n      tag_109\n      swap1\n      tag_110\n      jump\t// in\n    tag_109:\n      mload(0x40)\n      dup1\n      swap2\n      sub\n      swap1\n      revert\n    tag_108:\n        /* \"attendance.sol\":5139:5146  present */\n      dup2\n        /* \"attendance.sol\":5107:5117  attendance */\n      0x03\n        /* \"attendance.sol\":5118:5127  studentId */\n      dup7\n      dup7\n        /* \"attendance.sol\":5107:5128  attendance[studentId] */\n      mload(0x40)\n      tag_111\n      swap3\n      swap2\n      swap1\n      tag_78\n      jump\t// in\n    tag_111:\n      swap1\n      dup2\n      mstore\n      0x20\n      add\n      mload(0x40)\n      dup1\n      swap2\n      sub\n      swap1\n      keccak256\n        /* \"attendance.sol\":5107:5136  attendance[studentId][dayKey] */\n      0x00\n        /* \"attendance.sol\":5129:5135  dayKey */\n      dup6\n        /* \"attendance.sol\":5107:5136  attendance[studentId][dayKey] */\n      dup2\n      mstore\n      0x20\n      add\n      swap1\n      dup2\n      mstore\n      0x20\n      add\n      0x00\n      keccak256\n      0x00\n        /* \"attendance.sol\":5107:5146  attendance[studentId][dayKey] = present */\n      0x0100\n      exp\n      dup2\n      sload\n      dup2\n      0xff\n      mul\n      not\n      and\n      swap1\n      dup4\n      iszero\n      iszero\n      mul\n      or\n      swap1\n      sstore\n      pop\n        /* \"attendance.sol\":5191:5206  block.timestamp */\n      timestamp\n        /* \"attendance.sol\":5157:5169  attendanceTs */\n      0x04\n        /* \"attendance.sol\":5170:5179  studentId */\n      dup7\n      dup7\n        /* \"attendance.sol\":5157:5180  attendanceTs[studentId] */\n      mload(0x40)\n      tag_112\n      swap3\n      swap2\n      swap1\n      tag_78\n      jump\t// in\n    tag_112:\n      swap1\n      dup2\n      mstore\n      0x20\n      add\n      mload(0x40)\n      dup1\n      swap2\n      sub\n      swap1\n      keccak256\n        /* \"attendance.sol\":5157:5188  attendanceTs[studentId][dayKey] */\n      0x00\n        /* \"attendance.sol\":5181:5187  dayKey */\n      dup6\n        /* \"attendance.sol\":5157:5188  attendanceTs[studentId][dayKey] */\n      dup2\n      mstore\n      0x20\n      add\n      swap1\n      dup2\n      mstore\n      0x20\n      add\n      0x00\n      keccak256\n        /* \"attendance.sol\":5157:5206  attendanceTs[studentId][dayKey] = block.timestamp */\n      dup2\n      swap1\n      sstore\n      pop\n        /* \"attendance.sol\":5258:5268  msg.sender */\n      caller\n        /* \"attendance.sol\":5222:5295  AttendanceMarked(studentId, dayKey, msg.sender, block.timestamp, present) */\n      0xffffffffffffffffffffffffffffffffffffffff\n      and\n        /* \"attendance.sol\":5250:5256  dayKey */\n      dup4\n        /* \"attendance.sol\":5239:5248  studentId */\n      dup7\n      dup7\n        /* \"attendance.sol\":5222:5295  AttendanceMarked(studentId, dayKey, msg.sender, block.timestamp, present) */\n      mload(0x40)\n      tag_113\n      swap3\n      swap2\n      swap1\n      tag_78\n      jump\t// in\n    tag_113:\n      mload(0x40)\n      dup1\n      swap2\n      sub\n      swap1\n      keccak256\n      0xad81d6c88e64aef25d56ec488d23e480633131c75ab8bb4acea9e88daf7e76fc\n        /* \"attendance.sol\":5270:5285  block.timestamp */\n      timestamp\n        /* \"attendance.sol\":5287:5294  present */\n      dup7\n        /* \"attendance.sol\":5222:5295  AttendanceMarked(studentId, dayKey, msg.sender, block.timestamp, present) */\n      mload(0x40)\n      tag_114\n      swap3\n      swap2\n      swap1\n      tag_115\n      jump\t// in\n    tag_114:\n      mload(0x40)\n      dup1\n      swap2\n      sub\n      swap1\n      log4\n        /* \"attendance.sol\":4921:5303  {... */\n      pop\n        /* \"attendance.sol\":4834:5303  function selfCheckIn(string calldata studentId, uint256 dayKey, bool present) external {... */\n      pop\n      pop\n      pop\n      pop\n      jump\t// out\n        /* \"attendance.sol\":4195:4667  function batchIsPresent(string calldata studentId, uint256[] calldata dayKeys) external view returns (bool[] memory, uint256[] memory) {... */\n    tag_40:\n        /* \"attendance.sol\":4297:4310  bool[] memory */\n      0x60\n        /* \"attendance.sol\":4312:4328  uint256[] memory */\n      dup1\n        /* \"attendance.sol\":4341:4350  uint256 n */\n      0x00\n        /* \"attendance.sol\":4353:4360  dayKeys */\n      dup5\n      dup5\n        /* \"attendance.sol\":4353:4367  dayKeys.length */\n      swap1\n      pop\n        /* \"attendance.sol\":4341:4367  uint256 n = dayKeys.length */\n      swap1\n      pop\n        /* \"attendance.sol\":4378:4396  bool[] memory pres */\n      0x00\n        /* \"attendance.sol\":4410:4411  n */\n      dup2\n        /* \"attendance.sol\":4399:4412  new bool[](n) */\n      0xffffffffffffffff\n      dup2\n      gt\n      iszero\n      tag_117\n      jumpi\n      tag_118\n      tag_119\n      jump\t// in\n    tag_118:\n    tag_117:\n      mload(0x40)\n      swap1\n      dup1\n      dup3\n      mstore\n      dup1\n      0x20\n      mul\n      0x20\n      add\n      dup3\n      add\n      0x40\n      mstore\n      dup1\n      iszero\n      tag_120\n      jumpi\n      dup2\n      0x20\n      add\n      0x20\n      dup3\n      mul\n      dup1\n      calldatasize\n      dup4\n      calldatacopy\n      dup1\n      dup3\n      add\n      swap2\n      pop\n      pop\n      swap1\n      pop\n    tag_120:\n      pop\n        /* \"attendance.sol\":4378:4412  bool[] memory pres = new bool[](n) */\n      swap1\n      pop\n        /* \"attendance.sol\":4423:4442  uint256[] memory ts */\n      0x00\n        /* \"attendance.sol\":4459:4460  n */\n      dup3\n        /* \"attendance.sol\":4445:4461  new uint256[](n) */\n      0xffffffffffffffff\n      dup2\n      gt\n      iszero\n      tag_121\n      jumpi\n      tag_122\n      tag_119\n      jump\t// in\n    tag_122:\n    tag_121:\n      mload(0x40)\n      swap1\n      dup1\n      dup3\n      mstore\n      dup1\n      0x20\n      mul\n      0x20\n      add\n      dup3\n      add\n      0x40\n      mstore\n      dup1\n      iszero\n      tag_123\n      jumpi\n      dup2\n      0x20\n      add\n      0x20\n      dup3\n      mul\n      dup1\n      calldatasize\n      dup4\n      calldatacopy\n      dup1\n      dup3\n      add\n      swap2\n      pop\n      pop\n      swap1\n      pop\n    tag_123:\n      pop\n        /* \"attendance.sol\":4423:4461  uint256[] memory ts = new uint256[](n) */\n      swap1\n      pop\n        /* \"attendance.sol\":4477:4486  uint256 i */\n      0x00\n        /* \"attendance.sol\":4489:4490  0 */\n      0x00\n        /* \"attendance.sol\":4477:4490  uint256 i = 0 */\n      swap1\n      pop\n        /* \"attendance.sol\":4472:4632  for (uint256 i = 0; i < n; i++) {... */\n    tag_124:\n        /* \"attendance.sol\":4496:4497  n */\n      dup4\n        /* \"attendance.sol\":4492:4493  i */\n      dup2\n        /* \"attendance.sol\":4492:4497  i < n */\n      lt\n        /* \"attendance.sol\":4472:4632  for (uint256 i = 0; i < n; i++) {... */\n      iszero\n      tag_125\n      jumpi\n        /* \"attendance.sol\":4529:4539  attendance */\n      0x03\n        /* \"attendance.sol\":4540:4549  studentId */\n      dup11\n      dup11\n        /* \"attendance.sol\":4529:4550  attendance[studentId] */\n      mload(0x40)\n      tag_127\n      swap3\n      swap2\n      swap1\n      tag_78\n      jump\t// in\n    tag_127:\n      swap1\n      dup2\n      mstore\n      0x20\n      add\n      mload(0x40)\n      dup1\n      swap2\n      sub\n      swap1\n      keccak256\n        /* \"attendance.sol\":4529:4562  attendance[studentId][dayKeys[i]] */\n      0x00\n        /* \"attendance.sol\":4551:4558  dayKeys */\n      dup10\n      dup10\n        /* \"attendance.sol\":4559:4560  i */\n      dup5\n        /* \"attendance.sol\":4551:4561  dayKeys[i] */\n      dup2\n      dup2\n      lt\n      tag_128\n      jumpi\n      tag_129\n      tag_130\n      jump\t// in\n    tag_129:\n    tag_128:\n      swap1\n      pop\n      0x20\n      mul\n      add\n      calldataload\n        /* \"attendance.sol\":4529:4562  attendance[studentId][dayKeys[i]] */\n      dup2\n      mstore\n      0x20\n      add\n      swap1\n      dup2\n      mstore\n      0x20\n      add\n      0x00\n      keccak256\n      0x00\n      swap1\n      sload\n      swap1\n      0x0100\n      exp\n      swap1\n      div\n      0xff\n      and\n        /* \"attendance.sol\":4519:4523  pres */\n      dup4\n        /* \"attendance.sol\":4524:4525  i */\n      dup3\n        /* \"attendance.sol\":4519:4526  pres[i] */\n      dup2\n      mload\n      dup2\n      lt\n      tag_131\n      jumpi\n      tag_132\n      tag_130\n      jump\t// in\n    tag_132:\n    tag_131:\n      0x20\n      mul\n      0x20\n      add\n      add\n        /* \"attendance.sol\":4519:4562  pres[i] = attendance[studentId][dayKeys[i]] */\n      swap1\n      iszero\n      iszero\n      swap1\n      dup2\n      iszero\n      iszero\n      dup2\n      mstore\n      pop\n      pop\n        /* \"attendance.sol\":4585:4597  attendanceTs */\n      0x04\n        /* \"attendance.sol\":4598:4607  studentId */\n      dup11\n      dup11\n        /* \"attendance.sol\":4585:4608  attendanceTs[studentId] */\n      mload(0x40)\n      tag_133\n      swap3\n      swap2\n      swap1\n      tag_78\n      jump\t// in\n    tag_133:\n      swap1\n      dup2\n      mstore\n      0x20\n      add\n      mload(0x40)\n      dup1\n      swap2\n      sub\n      swap1\n      keccak256\n        /* \"attendance.sol\":4585:4620  attendanceTs[studentId][dayKeys[i]] */\n      0x00\n        /* \"attendance.sol\":4609:4616  dayKeys */\n      dup10\n      dup10\n        /* \"attendance.sol\":4617:4618  i */\n      dup5\n        /* \"attendance.sol\":4609:4619  dayKeys[i] */\n      dup2\n      dup2\n      lt\n      tag_134\n      jumpi\n      tag_135\n      tag_130\n      jump\t// in\n    tag_135:\n    tag_134:\n      swap1\n      pop\n      0x20\n      mul\n      add\n      calldataload\n        /* \"attendance.sol\":4585:4620  attendanceTs[studentId][dayKeys[i]] */\n      dup2\n      mstore\n      0x20\n      add\n      swap1\n      dup2\n      mstore\n      0x20\n      add\n      0x00\n      keccak256\n      sload\n        /* \"attendance.sol\":4577:4579  ts */\n      dup3\n        /* \"attendance.sol\":4580:4581  i */\n      dup3\n        /* \"attendance.sol\":4577:4582  ts[i] */\n      dup2\n      mload\n      dup2\n      lt\n      tag_136\n      jumpi\n      tag_137\n      tag_130\n      jump\t// in\n    tag_137:\n    tag_136:\n      0x20\n      mul\n      0x20\n      add\n      add\n        /* \"attendance.sol\":4577:4620  ts[i] = attendanceTs[studentId][dayKeys[i]] */\n      dup2\n      dup2\n      mstore\n      pop\n      pop\n        /* \"attendance.sol\":4499:4502  i++ */\n      dup1\n      dup1\n      0x01\n      add\n      swap2\n      pop\n      pop\n        /* \"attendance.sol\":4472:4632  for (uint256 i = 0; i < n; i++) {... */\n      jump(tag_124)\n    tag_125:\n      pop\n        /* \"attendance.sol\":4650:4654  pres */\n      dup2\n        /* \"attendance.sol\":4656:4658  ts */\n      dup2\n        /* \"attendance.sol\":4642:4659  return (pres, ts) */\n      swap5\n      pop\n      swap5\n      pop\n      pop\n      pop\n      pop\n        /* \"attendance.sol\":4195:4667  function batchIsPresent(string calldata studentId, uint256[] calldata dayKeys) external view returns (bool[] memory, uint256[] memory) {... */\n      swap5\n      pop\n      swap5\n      swap3\n      pop\n      pop\n      pop\n      jump\t// out\n        /* \"attendance.sol\":324:344  address public owner */\n    tag_44:\n      0x00\n      0x00\n      swap1\n      sload\n      swap1\n      0x0100\n      exp\n      swap1\n      div\n      0xffffffffffffffffffffffffffffffffffffffff\n      and\n      dup2\n      jump\t// out\n        /* \"attendance.sol\":711:752  mapping(address => bool) public isTeacher */\n    tag_49:\n      mstore(0x20, 0x01)\n      dup1\n      0x00\n      mstore\n      keccak256(0x00, 0x40)\n      0x00\n      swap2\n      pop\n      sload\n      swap1\n      0x0100\n      exp\n      swap1\n      div\n      0xff\n      and\n      dup2\n      jump\t// out\n        /* \"attendance.sol\":2418:2557  function isRegistered(string calldata studentId) public view returns (bool) {... */\n    tag_55:\n        /* \"attendance.sol\":2488:2492  bool */\n      0x00\n        /* \"attendance.sol\":2548:2549  0 */\n      0x00\n        /* \"attendance.sol\":2512:2520  students */\n      0x02\n        /* \"attendance.sol\":2521:2530  studentId */\n      dup5\n      dup5\n        /* \"attendance.sol\":2512:2531  students[studentId] */\n      mload(0x40)\n      tag_139\n      swap3\n      swap2\n      swap1\n      tag_78\n      jump\t// in\n    tag_139:\n      swap1\n      dup2\n      mstore\n      0x20\n      add\n      mload(0x40)\n      dup1\n      swap2\n      sub\n      swap1\n      keccak256\n        /* \"attendance.sol\":2512:2544  students[studentId].registeredAt */\n      0x02\n      add\n      sload\n        /* \"attendance.sol\":2512:2549  students[studentId].registeredAt != 0 */\n      eq\n      iszero\n        /* \"attendance.sol\":2505:2549  return students[studentId].registeredAt != 0 */\n      swap1\n      pop\n        /* \"attendance.sol\":2418:2557  function isRegistered(string calldata studentId) public view returns (bool) {... */\n      swap3\n      swap2\n      pop\n      pop\n      jump\t// out\n        /* \"attendance.sol\":2193:2410  function getStudent(string calldata studentId) external view returns (string memory, address, uint256) {... */\n    tag_59:\n        /* \"attendance.sol\":2263:2276  string memory */\n      0x60\n        /* \"attendance.sol\":2278:2285  address */\n      0x00\n        /* \"attendance.sol\":2287:2294  uint256 */\n      0x00\n        /* \"attendance.sol\":2307:2323  Student memory s */\n      0x00\n        /* \"attendance.sol\":2326:2334  students */\n      0x02\n        /* \"attendance.sol\":2335:2344  studentId */\n      dup7\n      dup7\n        /* \"attendance.sol\":2326:2345  students[studentId] */\n      mload(0x40)\n      tag_141\n      swap3\n      swap2\n      swap1\n      tag_78\n      jump\t// in\n    tag_141:\n      swap1\n      dup2\n      mstore\n      0x20\n      add\n      mload(0x40)\n      dup1\n      swap2\n      sub\n      swap1\n      keccak256\n        /* \"attendance.sol\":2307:2345  Student memory s = students[studentId] */\n      mload(0x40)\n      dup1\n      0x60\n      add\n      0x40\n      mstore\n      swap1\n      dup2\n      0x00\n      dup3\n      add\n      dup1\n      sload\n      tag_142\n      swap1\n      tag_100\n      jump\t// in\n    tag_142:\n      dup1\n      0x1f\n      add\n      0x20\n      dup1\n      swap2\n      div\n      mul\n      0x20\n      add\n      mload(0x40)\n      swap1\n      dup2\n      add\n      0x40\n      mstore\n      dup1\n      swap3\n      swap2\n      swap1\n      dup2\n      dup2\n      mstore\n      0x20\n      add\n      dup3\n      dup1\n      sload\n      tag_143\n      swap1\n      tag_100\n      jump\t// in\n    tag_143:\n      dup1\n      iszero\n      tag_144\n      jumpi\n      dup1\n      0x1f\n      lt\n      tag_145\n      jumpi\n      0x0100\n      dup1\n      dup4\n      sload\n      div\n      mul\n      dup4\n      mstore\n      swap2\n      0x20\n      add\n      swap2\n      jump(tag_144)\n    tag_145:\n      dup3\n      add\n      swap2\n      swap1\n      0x00\n      mstore\n      keccak256(0x00, 0x20)\n      swap1\n    tag_146:\n      dup2\n      sload\n      dup2\n      mstore\n      swap1\n      0x01\n      add\n      swap1\n      0x20\n      add\n      dup1\n      dup4\n      gt\n      tag_146\n      jumpi\n      dup3\n      swap1\n      sub\n      0x1f\n      and\n      dup3\n      add\n      swap2\n    tag_144:\n      pop\n      pop\n      pop\n      pop\n      pop\n      dup2\n      mstore\n      0x20\n      add\n      0x01\n      dup3\n      add\n      0x00\n      swap1\n      sload\n      swap1\n      0x0100\n      exp\n      swap1\n      div\n      0xffffffffffffffffffffffffffffffffffffffff\n      and\n      0xffffffffffffffffffffffffffffffffffffffff\n      and\n      0xffffffffffffffffffffffffffffffffffffffff\n      and\n      dup2\n      mstore\n      0x20\n      add\n      0x02\n      dup3\n      add\n      sload\n      dup2\n      mstore\n      pop\n      pop\n      swap1\n      pop\n        /* \"attendance.sol\":2364:2365  s */\n      dup1\n        /* \"attendance.sol\":2364:2375  s.studentId */\n      0x00\n      add\n      mload\n        /* \"attendance.sol\":2377:2378  s */\n      dup2\n        /* \"attendance.sol\":2377:2385  s.wallet */\n      0x20\n      add\n      mload\n        /* \"attendance.sol\":2387:2388  s */\n      dup3\n        /* \"attendance.sol\":2387:2401  s.registeredAt */\n      0x40\n      add\n      mload\n        /* \"attendance.sol\":2356:2402  return (s.studentId, s.wallet, s.registeredAt) */\n      swap4\n      pop\n      swap4\n      pop\n      swap4\n      pop\n      pop\n        /* \"attendance.sol\":2193:2410  function getStudent(string calldata studentId) external view returns (string memory, address, uint256) {... */\n      swap3\n      pop\n      swap3\n      pop\n      swap3\n      jump\t// out\n        /* \"attendance.sol\":514:671  function transferOwnership(address newOwner) external onlyOwner {... */\n    tag_64:\n        /* \"attendance.sol\":407:412  owner */\n      0x00\n      0x00\n      swap1\n      sload\n      swap1\n      0x0100\n      exp\n      swap1\n      div\n      0xffffffffffffffffffffffffffffffffffffffff\n      and\n        /* \"attendance.sol\":393:412  msg.sender == owner */\n      0xffffffffffffffffffffffffffffffffffffffff\n      and\n        /* \"attendance.sol\":393:403  msg.sender */\n      caller\n        /* \"attendance.sol\":393:412  msg.sender == owner */\n      0xffffffffffffffffffffffffffffffffffffffff\n      and\n      eq\n        /* \"attendance.sol\":385:427  require(msg.sender == owner, \"only owner\") */\n      tag_148\n      jumpi\n      mload(0x40)\n      0x08c379a000000000000000000000000000000000000000000000000000000000\n      dup2\n      mstore\n      0x04\n      add\n      tag_149\n      swap1\n      tag_71\n      jump\t// in\n    tag_149:\n      mload(0x40)\n      dup1\n      swap2\n      sub\n      swap1\n      revert\n    tag_148:\n        /* \"attendance.sol\":617:618  0 */\n      0x00\n        /* \"attendance.sol\":597:619  newOwner != address(0) */\n      0xffffffffffffffffffffffffffffffffffffffff\n      and\n        /* \"attendance.sol\":597:605  newOwner */\n      dup2\n        /* \"attendance.sol\":597:619  newOwner != address(0) */\n      0xffffffffffffffffffffffffffffffffffffffff\n      and\n      sub\n        /* \"attendance.sol\":589:636  require(newOwner != address(0), \"zero address\") */\n      tag_151\n      jumpi\n      mload(0x40)\n      0x08c379a000000000000000000000000000000000000000000000000000000000\n      dup2\n      mstore\n      0x04\n      add\n      tag_152\n      swap1\n      tag_75\n      jump\t// in\n    tag_152:\n      mload(0x40)\n      dup1\n      swap2\n      sub\n      swap1\n      revert\n    tag_151:\n        /* \"attendance.sol\":655:663  newOwner */\n      dup1\n        /* \"attendance.sol\":647:652  owner */\n      0x00\n      0x00\n        /* \"attendance.sol\":647:663  owner = newOwner */\n      0x0100\n      exp\n      dup2\n      sload\n      dup2\n      0xffffffffffffffffffffffffffffffffffffffff\n      mul\n      not\n      and\n      swap1\n      dup4\n      0xffffffffffffffffffffffffffffffffffffffff\n      and\n      mul\n      or\n      swap1\n      sstore\n      pop\n        /* \"attendance.sol\":514:671  function transferOwnership(address newOwner) external onlyOwner {... */\n      pop\n      jump\t// out\n        /* \"attendance.sol\":3394:3842  function markAttendance(string calldata studentId, uint256 dayKey, bool present) external {... */\n    tag_67:\n        /* \"attendance.sol\":3503:3512  isTeacher */\n      0x01\n        /* \"attendance.sol\":3503:3524  isTeacher[msg.sender] */\n      0x00\n        /* \"attendance.sol\":3513:3523  msg.sender */\n      caller\n        /* \"attendance.sol\":3503:3524  isTeacher[msg.sender] */\n      0xffffffffffffffffffffffffffffffffffffffff\n      and\n      0xffffffffffffffffffffffffffffffffffffffff\n      and\n      dup2\n      mstore\n      0x20\n      add\n      swap1\n      dup2\n      mstore\n      0x20\n      add\n      0x00\n      keccak256\n      0x00\n      swap1\n      sload\n      swap1\n      0x0100\n      exp\n      swap1\n      div\n      0xff\n      and\n        /* \"attendance.sol\":3503:3547  isTeacher[msg.sender] || msg.sender == owner */\n      dup1\n      tag_154\n      jumpi\n      pop\n        /* \"attendance.sol\":3542:3547  owner */\n      0x00\n      0x00\n      swap1\n      sload\n      swap1\n      0x0100\n      exp\n      swap1\n      div\n      0xffffffffffffffffffffffffffffffffffffffff\n      and\n        /* \"attendance.sol\":3528:3547  msg.sender == owner */\n      0xffffffffffffffffffffffffffffffffffffffff\n      and\n        /* \"attendance.sol\":3528:3538  msg.sender */\n      caller\n        /* \"attendance.sol\":3528:3547  msg.sender == owner */\n      0xffffffffffffffffffffffffffffffffffffffff\n      and\n      eq\n        /* \"attendance.sol\":3503:3547  isTeacher[msg.sender] || msg.sender == owner */\n    tag_154:\n        /* \"attendance.sol\":3495:3566  require(isTeacher[msg.sender] || msg.sender == owner, \"not authorized\") */\n      tag_155\n      jumpi\n      mload(0x40)\n      0x08c379a000000000000000000000000000000000000000000000000000000000\n      dup2\n      mstore\n      0x04\n      add\n      tag_156\n      swap1\n      tag_84\n      jump\t// in\n    tag_156:\n      mload(0x40)\n      dup1\n      swap2\n      sub\n      swap1\n      revert\n    tag_155:\n        /* \"attendance.sol\":3585:3608  isRegistered(studentId) */\n      tag_157\n        /* \"attendance.sol\":3598:3607  studentId */\n      dup5\n      dup5\n        /* \"attendance.sol\":3585:3597  isRegistered */\n      tag_55\n        /* \"attendance.sol\":3585:3608  isRegistered(studentId) */\n      jump\t// in\n    tag_157:\n        /* \"attendance.sol\":3577:3635  require(isRegistered(studentId), \"student not registered\") */\n      tag_158\n      jumpi\n      mload(0x40)\n      0x08c379a000000000000000000000000000000000000000000000000000000000\n      dup2\n      mstore\n      0x04\n      add\n      tag_159\n      swap1\n      tag_107\n      jump\t// in\n    tag_159:\n      mload(0x40)\n      dup1\n      swap2\n      sub\n      swap1\n      revert\n    tag_158:\n        /* \"attendance.sol\":3678:3685  present */\n      dup1\n        /* \"attendance.sol\":3646:3656  attendance */\n      0x03\n        /* \"attendance.sol\":3657:3666  studentId */\n      dup6\n      dup6\n        /* \"attendance.sol\":3646:3667  attendance[studentId] */\n      mload(0x40)\n      tag_160\n      swap3\n      swap2\n      swap1\n      tag_78\n      jump\t// in\n    tag_160:\n      swap1\n      dup2\n      mstore\n      0x20\n      add\n      mload(0x40)\n      dup1\n      swap2\n      sub\n      swap1\n      keccak256\n        /* \"attendance.sol\":3646:3675  attendance[studentId][dayKey] */\n      0x00\n        /* \"attendance.sol\":3668:3674  dayKey */\n      dup5\n        /* \"attendance.sol\":3646:3675  attendance[studentId][dayKey] */\n      dup2\n      mstore\n      0x20\n      add\n      swap1\n      dup2\n      mstore\n      0x20\n      add\n      0x00\n      keccak256\n      0x00\n        /* \"attendance.sol\":3646:3685  attendance[studentId][dayKey] = present */\n      0x0100\n      exp\n      dup2\n      sload\n      dup2\n      0xff\n      mul\n      not\n      and\n      swap1\n      dup4\n      iszero\n      iszero\n      mul\n      or\n      swap1\n      sstore\n      pop\n        /* \"attendance.sol\":3730:3745  block.timestamp */\n      timestamp\n        /* \"attendance.sol\":3696:3708  attendanceTs */\n      0x04\n        /* \"attendance.sol\":3709:3718  studentId */\n      dup6\n      dup6\n        /* \"attendance.sol\":3696:3719  attendanceTs[studentId] */\n      mload(0x40)\n      tag_161\n      swap3\n      swap2\n      swap1\n      tag_78\n      jump\t// in\n    tag_161:\n      swap1\n      dup2\n      mstore\n      0x20\n      add\n      mload(0x40)\n      dup1\n      swap2\n      sub\n      swap1\n      keccak256\n        /* \"attendance.sol\":3696:3727  attendanceTs[studentId][dayKey] */\n      0x00\n        /* \"attendance.sol\":3720:3726  dayKey */\n      dup5\n        /* \"attendance.sol\":3696:3727  attendanceTs[studentId][dayKey] */\n      dup2\n      mstore\n      0x20\n      add\n      swap1\n      dup2\n      mstore\n      0x20\n      add\n      0x00\n      keccak256\n        /* \"attendance.sol\":3696:3745  attendanceTs[studentId][dayKey] = block.timestamp */\n      dup2\n      swap1\n      sstore\n      pop\n        /* \"attendance.sol\":3797:3807  msg.sender */\n      caller\n        /* \"attendance.sol\":3761:3834  AttendanceMarked(studentId, dayKey, msg.sender, block.timestamp, present) */\n      0xffffffffffffffffffffffffffffffffffffffff\n      and\n        /* \"attendance.sol\":3789:3795  dayKey */\n      dup3\n        /* \"attendance.sol\":3778:3787  studentId */\n      dup6\n      dup6\n        /* \"attendance.sol\":3761:3834  AttendanceMarked(studentId, dayKey, msg.sender, block.timestamp, present) */\n      mload(0x40)\n      tag_162\n      swap3\n      swap2\n      swap1\n      tag_78\n      jump\t// in\n    tag_162:\n      mload(0x40)\n      dup1\n      swap2\n      sub\n      swap1\n      keccak256\n      0xad81d6c88e64aef25d56ec488d23e480633131c75ab8bb4acea9e88daf7e76fc\n        /* \"attendance.sol\":3809:3824  block.timestamp */\n      timestamp\n        /* \"attendance.sol\":3826:3833  present */\n      dup6\n        /* \"attendance.sol\":3761:3834  AttendanceMarked(studentId, dayKey, msg.sender, block.timestamp, present) */\n      mload(0x40)\n      tag_163\n      swap3\n      swap2\n      swap1\n      tag_115\n      jump\t// in\n    tag_163:\n      mload(0x40)\n      dup1\n      swap2\n      sub\n      swap1\n      log4\n        /* \"attendance.sol\":3394:3842  function markAttendance(string calldata studentId, uint256 dayKey, bool present) external {... */\n      pop\n      pop\n      pop\n      pop\n      jump\t// out\n        /* \"#utility.yul\":88:205   */\n    tag_165:\n        /* \"#utility.yul\":197:198   */\n      0x00\n        /* \"#utility.yul\":194:195   */\n      0x00\n        /* \"#utility.yul\":187:199   */\n      revert\n        /* \"#utility.yul\":211:328   */\n    tag_166:\n        /* \"#utility.yul\":320:321   */\n      0x00\n        /* \"#utility.yul\":317:318   */\n      0x00\n        /* \"#utility.yul\":310:322   */\n      revert\n        /* \"#utility.yul\":334:460   */\n    tag_167:\n        /* \"#utility.yul\":371:378   */\n      0x00\n        /* \"#utility.yul\":411:453   */\n      0xffffffffffffffffffffffffffffffffffffffff\n        /* \"#utility.yul\":404:409   */\n      dup3\n        /* \"#utility.yul\":400:454   */\n      and\n        /* \"#utility.yul\":389:454   */\n      swap1\n      pop\n        /* \"#utility.yul\":334:460   */\n      swap2\n      swap1\n      pop\n      jump\t// out\n        /* \"#utility.yul\":466:562   */\n    tag_168:\n        /* \"#utility.yul\":503:510   */\n      0x00\n        /* \"#utility.yul\":532:556   */\n      tag_240\n        /* \"#utility.yul\":550:555   */\n      dup3\n        /* \"#utility.yul\":532:556   */\n      tag_167\n      jump\t// in\n    tag_240:\n        /* \"#utility.yul\":521:556   */\n      swap1\n      pop\n        /* \"#utility.yul\":466:562   */\n      swap2\n      swap1\n      pop\n      jump\t// out\n        /* \"#utility.yul\":568:690   */\n    tag_169:\n        /* \"#utility.yul\":641:665   */\n      tag_242\n        /* \"#utility.yul\":659:664   */\n      dup2\n        /* \"#utility.yul\":641:665   */\n      tag_168\n      jump\t// in\n    tag_242:\n        /* \"#utility.yul\":634:639   */\n      dup2\n        /* \"#utility.yul\":631:666   */\n      eq\n        /* \"#utility.yul\":621:684   */\n      tag_243\n      jumpi\n        /* \"#utility.yul\":680:681   */\n      0x00\n        /* \"#utility.yul\":677:678   */\n      0x00\n        /* \"#utility.yul\":670:682   */\n      revert\n        /* \"#utility.yul\":621:684   */\n    tag_243:\n        /* \"#utility.yul\":568:690   */\n      pop\n      jump\t// out\n        /* \"#utility.yul\":696:835   */\n    tag_170:\n        /* \"#utility.yul\":742:747   */\n      0x00\n        /* \"#utility.yul\":780:786   */\n      dup2\n        /* \"#utility.yul\":767:787   */\n      calldataload\n        /* \"#utility.yul\":758:787   */\n      swap1\n      pop\n        /* \"#utility.yul\":796:829   */\n      tag_245\n        /* \"#utility.yul\":823:828   */\n      dup2\n        /* \"#utility.yul\":796:829   */\n      tag_169\n      jump\t// in\n    tag_245:\n        /* \"#utility.yul\":696:835   */\n      swap3\n      swap2\n      pop\n      pop\n      jump\t// out\n        /* \"#utility.yul\":841:1170   */\n    tag_18:\n        /* \"#utility.yul\":900:906   */\n      0x00\n        /* \"#utility.yul\":949:951   */\n      0x20\n        /* \"#utility.yul\":937:946   */\n      dup3\n        /* \"#utility.yul\":928:935   */\n      dup5\n        /* \"#utility.yul\":924:947   */\n      sub\n        /* \"#utility.yul\":920:952   */\n      slt\n        /* \"#utility.yul\":917:1036   */\n      iszero\n      tag_247\n      jumpi\n        /* \"#utility.yul\":955:1034   */\n      tag_248\n      tag_165\n      jump\t// in\n    tag_248:\n        /* \"#utility.yul\":917:1036   */\n    tag_247:\n        /* \"#utility.yul\":1075:1076   */\n      0x00\n        /* \"#utility.yul\":1100:1153   */\n      tag_249\n        /* \"#utility.yul\":1145:1152   */\n      dup5\n        /* \"#utility.yul\":1136:1142   */\n      dup3\n        /* \"#utility.yul\":1125:1134   */\n      dup6\n        /* \"#utility.yul\":1121:1143   */\n      add\n        /* \"#utility.yul\":1100:1153   */\n      tag_170\n      jump\t// in\n    tag_249:\n        /* \"#utility.yul\":1090:1153   */\n      swap2\n      pop\n        /* \"#utility.yul\":1046:1163   */\n      pop\n        /* \"#utility.yul\":841:1170   */\n      swap3\n      swap2\n      pop\n      pop\n      jump\t// out\n        /* \"#utility.yul\":1176:1293   */\n    tag_171:\n        /* \"#utility.yul\":1285:1286   */\n      0x00\n        /* \"#utility.yul\":1282:1283   */\n      0x00\n        /* \"#utility.yul\":1275:1287   */\n      revert\n        /* \"#utility.yul\":1299:1416   */\n    tag_172:\n        /* \"#utility.yul\":1408:1409   */\n      0x00\n        /* \"#utility.yul\":1405:1406   */\n      0x00\n        /* \"#utility.yul\":1398:1410   */\n      revert\n        /* \"#utility.yul\":1422:1539   */\n    tag_173:\n        /* \"#utility.yul\":1531:1532   */\n      0x00\n        /* \"#utility.yul\":1528:1529   */\n      0x00\n        /* \"#utility.yul\":1521:1533   */\n      revert\n        /* \"#utility.yul\":1559:2112   */\n    tag_174:\n        /* \"#utility.yul\":1617:1625   */\n      0x00\n        /* \"#utility.yul\":1627:1633   */\n      0x00\n        /* \"#utility.yul\":1677:1680   */\n      dup4\n        /* \"#utility.yul\":1670:1674   */\n      0x1f\n        /* \"#utility.yul\":1662:1668   */\n      dup5\n        /* \"#utility.yul\":1658:1675   */\n      add\n        /* \"#utility.yul\":1654:1681   */\n      slt\n        /* \"#utility.yul\":1644:1766   */\n      tag_254\n      jumpi\n        /* \"#utility.yul\":1685:1764   */\n      tag_255\n      tag_171\n      jump\t// in\n    tag_255:\n        /* \"#utility.yul\":1644:1766   */\n    tag_254:\n        /* \"#utility.yul\":1798:1804   */\n      dup3\n        /* \"#utility.yul\":1785:1805   */\n      calldataload\n        /* \"#utility.yul\":1775:1805   */\n      swap1\n      pop\n        /* \"#utility.yul\":1828:1846   */\n      0xffffffffffffffff\n        /* \"#utility.yul\":1820:1826   */\n      dup2\n        /* \"#utility.yul\":1817:1847   */\n      gt\n        /* \"#utility.yul\":1814:1931   */\n      iszero\n      tag_256\n      jumpi\n        /* \"#utility.yul\":1850:1929   */\n      tag_257\n      tag_172\n      jump\t// in\n    tag_257:\n        /* \"#utility.yul\":1814:1931   */\n    tag_256:\n        /* \"#utility.yul\":1964:1968   */\n      0x20\n        /* \"#utility.yul\":1956:1962   */\n      dup4\n        /* \"#utility.yul\":1952:1969   */\n      add\n        /* \"#utility.yul\":1940:1969   */\n      swap2\n      pop\n        /* \"#utility.yul\":2018:2021   */\n      dup4\n        /* \"#utility.yul\":2010:2014   */\n      0x01\n        /* \"#utility.yul\":2002:2008   */\n      dup3\n        /* \"#utility.yul\":1998:2015   */\n      mul\n        /* \"#utility.yul\":1988:1996   */\n      dup4\n        /* \"#utility.yul\":1984:2016   */\n      add\n        /* \"#utility.yul\":1981:2022   */\n      gt\n        /* \"#utility.yul\":1978:2106   */\n      iszero\n      tag_258\n      jumpi\n        /* \"#utility.yul\":2025:2104   */\n      tag_259\n      tag_173\n      jump\t// in\n    tag_259:\n        /* \"#utility.yul\":1978:2106   */\n    tag_258:\n        /* \"#utility.yul\":1559:2112   */\n      swap3\n      pop\n      swap3\n      swap1\n      pop\n      jump\t// out\n        /* \"#utility.yul\":2118:2195   */\n    tag_175:\n        /* \"#utility.yul\":2155:2162   */\n      0x00\n        /* \"#utility.yul\":2184:2189   */\n      dup2\n        /* \"#utility.yul\":2173:2189   */\n      swap1\n      pop\n        /* \"#utility.yul\":2118:2195   */\n      swap2\n      swap1\n      pop\n      jump\t// out\n        /* \"#utility.yul\":2201:2323   */\n    tag_176:\n        /* \"#utility.yul\":2274:2298   */\n      tag_262\n        /* \"#utility.yul\":2292:2297   */\n      dup2\n        /* \"#utility.yul\":2274:2298   */\n      tag_175\n      jump\t// in\n    tag_262:\n        /* \"#utility.yul\":2267:2272   */\n      dup2\n        /* \"#utility.yul\":2264:2299   */\n      eq\n        /* \"#utility.yul\":2254:2317   */\n      tag_263\n      jumpi\n        /* \"#utility.yul\":2313:2314   */\n      0x00\n        /* \"#utility.yul\":2310:2311   */\n      0x00\n        /* \"#utility.yul\":2303:2315   */\n      revert\n        /* \"#utility.yul\":2254:2317   */\n    tag_263:\n        /* \"#utility.yul\":2201:2323   */\n      pop\n      jump\t// out\n        /* \"#utility.yul\":2329:2468   */\n    tag_177:\n        /* \"#utility.yul\":2375:2380   */\n      0x00\n        /* \"#utility.yul\":2413:2419   */\n      dup2\n        /* \"#utility.yul\":2400:2420   */\n      calldataload\n        /* \"#utility.yul\":2391:2420   */\n      swap1\n      pop\n        /* \"#utility.yul\":2429:2462   */\n      tag_265\n        /* \"#utility.yul\":2456:2461   */\n      dup2\n        /* \"#utility.yul\":2429:2462   */\n      tag_176\n      jump\t// in\n    tag_265:\n        /* \"#utility.yul\":2329:2468   */\n      swap3\n      swap2\n      pop\n      pop\n      jump\t// out\n        /* \"#utility.yul\":2474:3148   */\n    tag_22:\n        /* \"#utility.yul\":2554:2560   */\n      0x00\n        /* \"#utility.yul\":2562:2568   */\n      0x00\n        /* \"#utility.yul\":2570:2576   */\n      0x00\n        /* \"#utility.yul\":2619:2621   */\n      0x40\n        /* \"#utility.yul\":2607:2616   */\n      dup5\n        /* \"#utility.yul\":2598:2605   */\n      dup7\n        /* \"#utility.yul\":2594:2617   */\n      sub\n        /* \"#utility.yul\":2590:2622   */\n      slt\n        /* \"#utility.yul\":2587:2706   */\n      iszero\n      tag_267\n      jumpi\n        /* \"#utility.yul\":2625:2704   */\n      tag_268\n      tag_165\n      jump\t// in\n    tag_268:\n        /* \"#utility.yul\":2587:2706   */\n    tag_267:\n        /* \"#utility.yul\":2773:2774   */\n      0x00\n        /* \"#utility.yul\":2762:2771   */\n      dup5\n        /* \"#utility.yul\":2758:2775   */\n      add\n        /* \"#utility.yul\":2745:2776   */\n      calldataload\n        /* \"#utility.yul\":2803:2821   */\n      0xffffffffffffffff\n        /* \"#utility.yul\":2795:2801   */\n      dup2\n        /* \"#utility.yul\":2792:2822   */\n      gt\n        /* \"#utility.yul\":2789:2906   */\n      iszero\n      tag_269\n      jumpi\n        /* \"#utility.yul\":2825:2904   */\n      tag_270\n      tag_166\n      jump\t// in\n    tag_270:\n        /* \"#utility.yul\":2789:2906   */\n    tag_269:\n        /* \"#utility.yul\":2938:3003   */\n      tag_271\n        /* \"#utility.yul\":2995:3002   */\n      dup7\n        /* \"#utility.yul\":2986:2992   */\n      dup3\n        /* \"#utility.yul\":2975:2984   */\n      dup8\n        /* \"#utility.yul\":2971:2993   */\n      add\n        /* \"#utility.yul\":2938:3003   */\n      tag_174\n      jump\t// in\n    tag_271:\n        /* \"#utility.yul\":2920:3003   */\n      swap4\n      pop\n      swap4\n      pop\n        /* \"#utility.yul\":2716:3013   */\n      pop\n        /* \"#utility.yul\":3052:3054   */\n      0x20\n        /* \"#utility.yul\":3078:3131   */\n      tag_272\n        /* \"#utility.yul\":3123:3130   */\n      dup7\n        /* \"#utility.yul\":3114:3120   */\n      dup3\n        /* \"#utility.yul\":3103:3112   */\n      dup8\n        /* \"#utility.yul\":3099:3121   */\n      add\n        /* \"#utility.yul\":3078:3131   */\n      tag_177\n      jump\t// in\n    tag_272:\n        /* \"#utility.yul\":3068:3131   */\n      swap2\n      pop\n        /* \"#utility.yul\":3023:3141   */\n      pop\n        /* \"#utility.yul\":2474:3148   */\n      swap3\n      pop\n      swap3\n      pop\n      swap3\n      jump\t// out\n        /* \"#utility.yul\":3154:3244   */\n    tag_178:\n        /* \"#utility.yul\":3188:3195   */\n      0x00\n        /* \"#utility.yul\":3231:3236   */\n      dup2\n        /* \"#utility.yul\":3224:3237   */\n      iszero\n        /* \"#utility.yul\":3217:3238   */\n      iszero\n        /* \"#utility.yul\":3206:3238   */\n      swap1\n      pop\n        /* \"#utility.yul\":3154:3244   */\n      swap2\n      swap1\n      pop\n      jump\t// out\n        /* \"#utility.yul\":3250:3359   */\n    tag_179:\n        /* \"#utility.yul\":3331:3352   */\n      tag_275\n        /* \"#utility.yul\":3346:3351   */\n      dup2\n        /* \"#utility.yul\":3331:3352   */\n      tag_178\n      jump\t// in\n    tag_275:\n        /* \"#utility.yul\":3326:3329   */\n      dup3\n        /* \"#utility.yul\":3319:3353   */\n      mstore\n        /* \"#utility.yul\":3250:3359   */\n      pop\n      pop\n      jump\t// out\n        /* \"#utility.yul\":3365:3483   */\n    tag_180:\n        /* \"#utility.yul\":3452:3476   */\n      tag_277\n        /* \"#utility.yul\":3470:3475   */\n      dup2\n        /* \"#utility.yul\":3452:3476   */\n      tag_175\n      jump\t// in\n    tag_277:\n        /* \"#utility.yul\":3447:3450   */\n      dup3\n        /* \"#utility.yul\":3440:3477   */\n      mstore\n        /* \"#utility.yul\":3365:3483   */\n      pop\n      pop\n      jump\t// out\n        /* \"#utility.yul\":3489:3809   */\n    tag_25:\n        /* \"#utility.yul\":3604:3608   */\n      0x00\n        /* \"#utility.yul\":3642:3644   */\n      0x40\n        /* \"#utility.yul\":3631:3640   */\n      dup3\n        /* \"#utility.yul\":3627:3645   */\n      add\n        /* \"#utility.yul\":3619:3645   */\n      swap1\n      pop\n        /* \"#utility.yul\":3655:3720   */\n      tag_279\n        /* \"#utility.yul\":3717:3718   */\n      0x00\n        /* \"#utility.yul\":3706:3715   */\n      dup4\n        /* \"#utility.yul\":3702:3719   */\n      add\n        /* \"#utility.yul\":3693:3699   */\n      dup6\n        /* \"#utility.yul\":3655:3720   */\n      tag_179\n      jump\t// in\n    tag_279:\n        /* \"#utility.yul\":3730:3802   */\n      tag_280\n        /* \"#utility.yul\":3798:3800   */\n      0x20\n        /* \"#utility.yul\":3787:3796   */\n      dup4\n        /* \"#utility.yul\":3783:3801   */\n      add\n        /* \"#utility.yul\":3774:3780   */\n      dup5\n        /* \"#utility.yul\":3730:3802   */\n      tag_180\n      jump\t// in\n    tag_280:\n        /* \"#utility.yul\":3489:3809   */\n      swap4\n      swap3\n      pop\n      pop\n      pop\n      jump\t// out\n        /* \"#utility.yul\":3815:4489   */\n    tag_28:\n        /* \"#utility.yul\":3895:3901   */\n      0x00\n        /* \"#utility.yul\":3903:3909   */\n      0x00\n        /* \"#utility.yul\":3911:3917   */\n      0x00\n        /* \"#utility.yul\":3960:3962   */\n      0x40\n        /* \"#utility.yul\":3948:3957   */\n      dup5\n        /* \"#utility.yul\":3939:3946   */\n      dup7\n        /* \"#utility.yul\":3935:3958   */\n      sub\n        /* \"#utility.yul\":3931:3963   */\n      slt\n        /* \"#utility.yul\":3928:4047   */\n      iszero\n      tag_282\n      jumpi\n        /* \"#utility.yul\":3966:4045   */\n      tag_283\n      tag_165\n      jump\t// in\n    tag_283:\n        /* \"#utility.yul\":3928:4047   */\n    tag_282:\n        /* \"#utility.yul\":4114:4115   */\n      0x00\n        /* \"#utility.yul\":4103:4112   */\n      dup5\n        /* \"#utility.yul\":4099:4116   */\n      add\n        /* \"#utility.yul\":4086:4117   */\n      calldataload\n        /* \"#utility.yul\":4144:4162   */\n      0xffffffffffffffff\n        /* \"#utility.yul\":4136:4142   */\n      dup2\n        /* \"#utility.yul\":4133:4163   */\n      gt\n        /* \"#utility.yul\":4130:4247   */\n      iszero\n      tag_284\n      jumpi\n        /* \"#utility.yul\":4166:4245   */\n      tag_285\n      tag_166\n      jump\t// in\n    tag_285:\n        /* \"#utility.yul\":4130:4247   */\n    tag_284:\n        /* \"#utility.yul\":4279:4344   */\n      tag_286\n        /* \"#utility.yul\":4336:4343   */\n      dup7\n        /* \"#utility.yul\":4327:4333   */\n      dup3\n        /* \"#utility.yul\":4316:4325   */\n      dup8\n        /* \"#utility.yul\":4312:4334   */\n      add\n        /* \"#utility.yul\":4279:4344   */\n      tag_174\n      jump\t// in\n    tag_286:\n        /* \"#utility.yul\":4261:4344   */\n      swap4\n      pop\n      swap4\n      pop\n        /* \"#utility.yul\":4057:4354   */\n      pop\n        /* \"#utility.yul\":4393:4395   */\n      0x20\n        /* \"#utility.yul\":4419:4472   */\n      tag_287\n        /* \"#utility.yul\":4464:4471   */\n      dup7\n        /* \"#utility.yul\":4455:4461   */\n      dup3\n        /* \"#utility.yul\":4444:4453   */\n      dup8\n        /* \"#utility.yul\":4440:4462   */\n      add\n        /* \"#utility.yul\":4419:4472   */\n      tag_170\n      jump\t// in\n    tag_287:\n        /* \"#utility.yul\":4409:4472   */\n      swap2\n      pop\n        /* \"#utility.yul\":4364:4482   */\n      pop\n        /* \"#utility.yul\":3815:4489   */\n      swap3\n      pop\n      swap3\n      pop\n      swap3\n      jump\t// out\n        /* \"#utility.yul\":4495:4611   */\n    tag_181:\n        /* \"#utility.yul\":4565:4586   */\n      tag_289\n        /* \"#utility.yul\":4580:4585   */\n      dup2\n        /* \"#utility.yul\":4565:4586   */\n      tag_178\n      jump\t// in\n    tag_289:\n        /* \"#utility.yul\":4558:4563   */\n      dup2\n        /* \"#utility.yul\":4555:4587   */\n      eq\n        /* \"#utility.yul\":4545:4605   */\n      tag_290\n      jumpi\n        /* \"#utility.yul\":4601:4602   */\n      0x00\n        /* \"#utility.yul\":4598:4599   */\n      0x00\n        /* \"#utility.yul\":4591:4603   */\n      revert\n        /* \"#utility.yul\":4545:4605   */\n    tag_290:\n        /* \"#utility.yul\":4495:4611   */\n      pop\n      jump\t// out\n        /* \"#utility.yul\":4617:4750   */\n    tag_182:\n        /* \"#utility.yul\":4660:4665   */\n      0x00\n        /* \"#utility.yul\":4698:4704   */\n      dup2\n        /* \"#utility.yul\":4685:4705   */\n      calldataload\n        /* \"#utility.yul\":4676:4705   */\n      swap1\n      pop\n        /* \"#utility.yul\":4714:4744   */\n      tag_292\n        /* \"#utility.yul\":4738:4743   */\n      dup2\n        /* \"#utility.yul\":4714:4744   */\n      tag_181\n      jump\t// in\n    tag_292:\n        /* \"#utility.yul\":4617:4750   */\n      swap3\n      swap2\n      pop\n      pop\n      jump\t// out\n        /* \"#utility.yul\":4756:5569   */\n    tag_35:\n        /* \"#utility.yul\":4842:4848   */\n      0x00\n        /* \"#utility.yul\":4850:4856   */\n      0x00\n        /* \"#utility.yul\":4858:4864   */\n      0x00\n        /* \"#utility.yul\":4866:4872   */\n      0x00\n        /* \"#utility.yul\":4915:4917   */\n      0x60\n        /* \"#utility.yul\":4903:4912   */\n      dup6\n        /* \"#utility.yul\":4894:4901   */\n      dup8\n        /* \"#utility.yul\":4890:4913   */\n      sub\n        /* \"#utility.yul\":4886:4918   */\n      slt\n        /* \"#utility.yul\":4883:5002   */\n      iszero\n      tag_294\n      jumpi\n        /* \"#utility.yul\":4921:5000   */\n      tag_295\n      tag_165\n      jump\t// in\n    tag_295:\n        /* \"#utility.yul\":4883:5002   */\n    tag_294:\n        /* \"#utility.yul\":5069:5070   */\n      0x00\n        /* \"#utility.yul\":5058:5067   */\n      dup6\n        /* \"#utility.yul\":5054:5071   */\n      add\n        /* \"#utility.yul\":5041:5072   */\n      calldataload\n        /* \"#utility.yul\":5099:5117   */\n      0xffffffffffffffff\n        /* \"#utility.yul\":5091:5097   */\n      dup2\n        /* \"#utility.yul\":5088:5118   */\n      gt\n        /* \"#utility.yul\":5085:5202   */\n      iszero\n      tag_296\n      jumpi\n        /* \"#utility.yul\":5121:5200   */\n      tag_297\n      tag_166\n      jump\t// in\n    tag_297:\n        /* \"#utility.yul\":5085:5202   */\n    tag_296:\n        /* \"#utility.yul\":5234:5299   */\n      tag_298\n        /* \"#utility.yul\":5291:5298   */\n      dup8\n        /* \"#utility.yul\":5282:5288   */\n      dup3\n        /* \"#utility.yul\":5271:5280   */\n      dup9\n        /* \"#utility.yul\":5267:5289   */\n      add\n        /* \"#utility.yul\":5234:5299   */\n      tag_174\n      jump\t// in\n    tag_298:\n        /* \"#utility.yul\":5216:5299   */\n      swap5\n      pop\n      swap5\n      pop\n        /* \"#utility.yul\":5012:5309   */\n      pop\n        /* \"#utility.yul\":5348:5350   */\n      0x20\n        /* \"#utility.yul\":5374:5427   */\n      tag_299\n        /* \"#utility.yul\":5419:5426   */\n      dup8\n        /* \"#utility.yul\":5410:5416   */\n      dup3\n        /* \"#utility.yul\":5399:5408   */\n      dup9\n        /* \"#utility.yul\":5395:5417   */\n      add\n        /* \"#utility.yul\":5374:5427   */\n      tag_177\n      jump\t// in\n    tag_299:\n        /* \"#utility.yul\":5364:5427   */\n      swap3\n      pop\n        /* \"#utility.yul\":5319:5437   */\n      pop\n        /* \"#utility.yul\":5476:5478   */\n      0x40\n        /* \"#utility.yul\":5502:5552   */\n      tag_300\n        /* \"#utility.yul\":5544:5551   */\n      dup8\n        /* \"#utility.yul\":5535:5541   */\n      dup3\n        /* \"#utility.yul\":5524:5533   */\n      dup9\n        /* \"#utility.yul\":5520:5542   */\n      add\n        /* \"#utility.yul\":5502:5552   */\n      tag_182\n      jump\t// in\n    tag_300:\n        /* \"#utility.yul\":5492:5552   */\n      swap2\n      pop\n        /* \"#utility.yul\":5447:5562   */\n      pop\n        /* \"#utility.yul\":4756:5569   */\n      swap3\n      swap6\n      swap2\n      swap5\n      pop\n      swap3\n      pop\n      jump\t// out\n        /* \"#utility.yul\":5592:6160   */\n    tag_183:\n        /* \"#utility.yul\":5665:5673   */\n      0x00\n        /* \"#utility.yul\":5675:5681   */\n      0x00\n        /* \"#utility.yul\":5725:5728   */\n      dup4\n        /* \"#utility.yul\":5718:5722   */\n      0x1f\n        /* \"#utility.yul\":5710:5716   */\n      dup5\n        /* \"#utility.yul\":5706:5723   */\n      add\n        /* \"#utility.yul\":5702:5729   */\n      slt\n        /* \"#utility.yul\":5692:5814   */\n      tag_302\n      jumpi\n        /* \"#utility.yul\":5733:5812   */\n      tag_303\n      tag_171\n      jump\t// in\n    tag_303:\n        /* \"#utility.yul\":5692:5814   */\n    tag_302:\n        /* \"#utility.yul\":5846:5852   */\n      dup3\n        /* \"#utility.yul\":5833:5853   */\n      calldataload\n        /* \"#utility.yul\":5823:5853   */\n      swap1\n      pop\n        /* \"#utility.yul\":5876:5894   */\n      0xffffffffffffffff\n        /* \"#utility.yul\":5868:5874   */\n      dup2\n        /* \"#utility.yul\":5865:5895   */\n      gt\n        /* \"#utility.yul\":5862:5979   */\n      iszero\n      tag_304\n      jumpi\n        /* \"#utility.yul\":5898:5977   */\n      tag_305\n      tag_172\n      jump\t// in\n    tag_305:\n        /* \"#utility.yul\":5862:5979   */\n    tag_304:\n        /* \"#utility.yul\":6012:6016   */\n      0x20\n        /* \"#utility.yul\":6004:6010   */\n      dup4\n        /* \"#utility.yul\":6000:6017   */\n      add\n        /* \"#utility.yul\":5988:6017   */\n      swap2\n      pop\n        /* \"#utility.yul\":6066:6069   */\n      dup4\n        /* \"#utility.yul\":6058:6062   */\n      0x20\n        /* \"#utility.yul\":6050:6056   */\n      dup3\n        /* \"#utility.yul\":6046:6063   */\n      mul\n        /* \"#utility.yul\":6036:6044   */\n      dup4\n        /* \"#utility.yul\":6032:6064   */\n      add\n        /* \"#utility.yul\":6029:6070   */\n      gt\n        /* \"#utility.yul\":6026:6154   */\n      iszero\n      tag_306\n      jumpi\n        /* \"#utility.yul\":6073:6152   */\n      tag_307\n      tag_173\n      jump\t// in\n    tag_307:\n        /* \"#utility.yul\":6026:6154   */\n    tag_306:\n        /* \"#utility.yul\":5592:6160   */\n      swap3\n      pop\n      swap3\n      swap1\n      pop\n      jump\t// out\n        /* \"#utility.yul\":6166:7070   */\n    tag_39:\n        /* \"#utility.yul\":6273:6279   */\n      0x00\n        /* \"#utility.yul\":6281:6287   */\n      0x00\n        /* \"#utility.yul\":6289:6295   */\n      0x00\n        /* \"#utility.yul\":6297:6303   */\n      0x00\n        /* \"#utility.yul\":6346:6348   */\n      0x40\n        /* \"#utility.yul\":6334:6343   */\n      dup6\n        /* \"#utility.yul\":6325:6332   */\n      dup8\n        /* \"#utility.yul\":6321:6344   */\n      sub\n        /* \"#utility.yul\":6317:6349   */\n      slt\n        /* \"#utility.yul\":6314:6433   */\n      iszero\n      tag_309\n      jumpi\n        /* \"#utility.yul\":6352:6431   */\n      tag_310\n      tag_165\n      jump\t// in\n    tag_310:\n        /* \"#utility.yul\":6314:6433   */\n    tag_309:\n        /* \"#utility.yul\":6500:6501   */\n      0x00\n        /* \"#utility.yul\":6489:6498   */\n      dup6\n        /* \"#utility.yul\":6485:6502   */\n      add\n        /* \"#utility.yul\":6472:6503   */\n      calldataload\n        /* \"#utility.yul\":6530:6548   */\n      0xffffffffffffffff\n        /* \"#utility.yul\":6522:6528   */\n      dup2\n        /* \"#utility.yul\":6519:6549   */\n      gt\n        /* \"#utility.yul\":6516:6633   */\n      iszero\n      tag_311\n      jumpi\n        /* \"#utility.yul\":6552:6631   */\n      tag_312\n      tag_166\n      jump\t// in\n    tag_312:\n        /* \"#utility.yul\":6516:6633   */\n    tag_311:\n        /* \"#utility.yul\":6665:6730   */\n      tag_313\n        /* \"#utility.yul\":6722:6729   */\n      dup8\n        /* \"#utility.yul\":6713:6719   */\n      dup3\n        /* \"#utility.yul\":6702:6711   */\n      dup9\n        /* \"#utility.yul\":6698:6720   */\n      add\n        /* \"#utility.yul\":6665:6730   */\n      tag_174\n      jump\t// in\n    tag_313:\n        /* \"#utility.yul\":6647:6730   */\n      swap5\n      pop\n      swap5\n      pop\n        /* \"#utility.yul\":6443:6740   */\n      pop\n        /* \"#utility.yul\":6807:6809   */\n      0x20\n        /* \"#utility.yul\":6796:6805   */\n      dup6\n        /* \"#utility.yul\":6792:6810   */\n      add\n        /* \"#utility.yul\":6779:6811   */\n      calldataload\n        /* \"#utility.yul\":6838:6856   */\n      0xffffffffffffffff\n        /* \"#utility.yul\":6830:6836   */\n      dup2\n        /* \"#utility.yul\":6827:6857   */\n      gt\n        /* \"#utility.yul\":6824:6941   */\n      iszero\n      tag_314\n      jumpi\n        /* \"#utility.yul\":6860:6939   */\n      tag_315\n      tag_166\n      jump\t// in\n    tag_315:\n        /* \"#utility.yul\":6824:6941   */\n    tag_314:\n        /* \"#utility.yul\":6973:7053   */\n      tag_316\n        /* \"#utility.yul\":7045:7052   */\n      dup8\n        /* \"#utility.yul\":7036:7042   */\n      dup3\n        /* \"#utility.yul\":7025:7034   */\n      dup9\n        /* \"#utility.yul\":7021:7043   */\n      add\n        /* \"#utility.yul\":6973:7053   */\n      tag_183\n      jump\t// in\n    tag_316:\n        /* \"#utility.yul\":6955:7053   */\n      swap3\n      pop\n      swap3\n      pop\n        /* \"#utility.yul\":6750:7063   */\n      pop\n        /* \"#utility.yul\":6166:7070   */\n      swap3\n      swap6\n      swap2\n      swap5\n      pop\n      swap3\n      pop\n      jump\t// out\n        /* \"#utility.yul\":7076:7187   */\n    tag_184:\n        /* \"#utility.yul\":7140:7146   */\n      0x00\n        /* \"#utility.yul\":7174:7179   */\n      dup2\n        /* \"#utility.yul\":7168:7180   */\n      mload\n        /* \"#utility.yul\":7158:7180   */\n      swap1\n      pop\n        /* \"#utility.yul\":7076:7187   */\n      swap2\n      swap1\n      pop\n      jump\t// out\n        /* \"#utility.yul\":7193:7374   */\n    tag_185:\n        /* \"#utility.yul\":7289:7300   */\n      0x00\n        /* \"#utility.yul\":7323:7329   */\n      dup3\n        /* \"#utility.yul\":7318:7321   */\n      dup3\n        /* \"#utility.yul\":7311:7330   */\n      mstore\n        /* \"#utility.yul\":7363:7367   */\n      0x20\n        /* \"#utility.yul\":7358:7361   */\n      dup3\n        /* \"#utility.yul\":7354:7368   */\n      add\n        /* \"#utility.yul\":7339:7368   */\n      swap1\n      pop\n        /* \"#utility.yul\":7193:7374   */\n      swap3\n      swap2\n      pop\n      pop\n      jump\t// out\n        /* \"#utility.yul\":7380:7509   */\n    tag_186:\n        /* \"#utility.yul\":7444:7448   */\n      0x00\n        /* \"#utility.yul\":7467:7470   */\n      dup2\n        /* \"#utility.yul\":7459:7470   */\n      swap1\n      pop\n        /* \"#utility.yul\":7497:7501   */\n      0x20\n        /* \"#utility.yul\":7492:7495   */\n      dup3\n        /* \"#utility.yul\":7488:7502   */\n      add\n        /* \"#utility.yul\":7480:7502   */\n      swap1\n      pop\n        /* \"#utility.yul\":7380:7509   */\n      swap2\n      swap1\n      pop\n      jump\t// out\n        /* \"#utility.yul\":7515:7614   */\n    tag_187:\n        /* \"#utility.yul\":7586:7607   */\n      tag_321\n        /* \"#utility.yul\":7601:7606   */\n      dup2\n        /* \"#utility.yul\":7586:7607   */\n      tag_178\n      jump\t// in\n    tag_321:\n        /* \"#utility.yul\":7581:7584   */\n      dup3\n        /* \"#utility.yul\":7574:7608   */\n      mstore\n        /* \"#utility.yul\":7515:7614   */\n      pop\n      pop\n      jump\t// out\n        /* \"#utility.yul\":7620:7787   */\n    tag_188:\n        /* \"#utility.yul\":7683:7693   */\n      0x00\n        /* \"#utility.yul\":7704:7744   */\n      tag_323\n        /* \"#utility.yul\":7740:7743   */\n      dup4\n        /* \"#utility.yul\":7732:7738   */\n      dup4\n        /* \"#utility.yul\":7704:7744   */\n      tag_187\n      jump\t// in\n    tag_323:\n        /* \"#utility.yul\":7776:7780   */\n      0x20\n        /* \"#utility.yul\":7771:7774   */\n      dup4\n        /* \"#utility.yul\":7767:7781   */\n      add\n        /* \"#utility.yul\":7753:7781   */\n      swap1\n      pop\n        /* \"#utility.yul\":7620:7787   */\n      swap3\n      swap2\n      pop\n      pop\n      jump\t// out\n        /* \"#utility.yul\":7793:7903   */\n    tag_189:\n        /* \"#utility.yul\":7860:7864   */\n      0x00\n        /* \"#utility.yul\":7892:7896   */\n      0x20\n        /* \"#utility.yul\":7887:7890   */\n      dup3\n        /* \"#utility.yul\":7883:7897   */\n      add\n        /* \"#utility.yul\":7875:7897   */\n      swap1\n      pop\n        /* \"#utility.yul\":7793:7903   */\n      swap2\n      swap1\n      pop\n      jump\t// out\n        /* \"#utility.yul\":7933:8641   */\n    tag_190:\n        /* \"#utility.yul\":8046:8049   */\n      0x00\n        /* \"#utility.yul\":8075:8126   */\n      tag_326\n        /* \"#utility.yul\":8120:8125   */\n      dup3\n        /* \"#utility.yul\":8075:8126   */\n      tag_184\n      jump\t// in\n    tag_326:\n        /* \"#utility.yul\":8142:8225   */\n      tag_327\n        /* \"#utility.yul\":8218:8224   */\n      dup2\n        /* \"#utility.yul\":8213:8216   */\n      dup6\n        /* \"#utility.yul\":8142:8225   */\n      tag_185\n      jump\t// in\n    tag_327:\n        /* \"#utility.yul\":8135:8225   */\n      swap4\n      pop\n        /* \"#utility.yul\":8249:8302   */\n      tag_328\n        /* \"#utility.yul\":8296:8301   */\n      dup4\n        /* \"#utility.yul\":8249:8302   */\n      tag_186\n      jump\t// in\n    tag_328:\n        /* \"#utility.yul\":8325:8332   */\n      dup1\n        /* \"#utility.yul\":8356:8357   */\n      0x00\n        /* \"#utility.yul\":8341:8616   */\n    tag_329:\n        /* \"#utility.yul\":8366:8372   */\n      dup4\n        /* \"#utility.yul\":8363:8364   */\n      dup2\n        /* \"#utility.yul\":8360:8373   */\n      lt\n        /* \"#utility.yul\":8341:8616   */\n      iszero\n      tag_331\n      jumpi\n        /* \"#utility.yul\":8442:8448   */\n      dup2\n        /* \"#utility.yul\":8436:8449   */\n      mload\n        /* \"#utility.yul\":8469:8526   */\n      tag_332\n        /* \"#utility.yul\":8522:8525   */\n      dup9\n        /* \"#utility.yul\":8507:8520   */\n      dup3\n        /* \"#utility.yul\":8469:8526   */\n      tag_188\n      jump\t// in\n    tag_332:\n        /* \"#utility.yul\":8462:8526   */\n      swap8\n      pop\n        /* \"#utility.yul\":8549:8606   */\n      tag_333\n        /* \"#utility.yul\":8599:8605   */\n      dup4\n        /* \"#utility.yul\":8549:8606   */\n      tag_189\n      jump\t// in\n    tag_333:\n        /* \"#utility.yul\":8539:8606   */\n      swap3\n      pop\n        /* \"#utility.yul\":8401:8616   */\n      pop\n        /* \"#utility.yul\":8388:8389   */\n      0x01\n        /* \"#utility.yul\":8385:8386   */\n      dup2\n        /* \"#utility.yul\":8381:8390   */\n      add\n        /* \"#utility.yul\":8376:8390   */\n      swap1\n      pop\n        /* \"#utility.yul\":8341:8616   */\n      jump(tag_329)\n    tag_331:\n        /* \"#utility.yul\":8345:8359   */\n      pop\n        /* \"#utility.yul\":8632:8635   */\n      dup6\n        /* \"#utility.yul\":8625:8635   */\n      swap4\n      pop\n        /* \"#utility.yul\":8051:8641   */\n      pop\n      pop\n      pop\n        /* \"#utility.yul\":7933:8641   */\n      swap3\n      swap2\n      pop\n      pop\n      jump\t// out\n        /* \"#utility.yul\":8647:8761   */\n    tag_191:\n        /* \"#utility.yul\":8714:8720   */\n      0x00\n        /* \"#utility.yul\":8748:8753   */\n      dup2\n        /* \"#utility.yul\":8742:8754   */\n      mload\n        /* \"#utility.yul\":8732:8754   */\n      swap1\n      pop\n        /* \"#utility.yul\":8647:8761   */\n      swap2\n      swap1\n      pop\n      jump\t// out\n        /* \"#utility.yul\":8767:8951   */\n    tag_192:\n        /* \"#utility.yul\":8866:8877   */\n      0x00\n        /* \"#utility.yul\":8900:8906   */\n      dup3\n        /* \"#utility.yul\":8895:8898   */\n      dup3\n        /* \"#utility.yul\":8888:8907   */\n      mstore\n        /* \"#utility.yul\":8940:8944   */\n      0x20\n        /* \"#utility.yul\":8935:8938   */\n      dup3\n        /* \"#utility.yul\":8931:8945   */\n      add\n        /* \"#utility.yul\":8916:8945   */\n      swap1\n      pop\n        /* \"#utility.yul\":8767:8951   */\n      swap3\n      swap2\n      pop\n      pop\n      jump\t// out\n        /* \"#utility.yul\":8957:9089   */\n    tag_193:\n        /* \"#utility.yul\":9024:9028   */\n      0x00\n        /* \"#utility.yul\":9047:9050   */\n      dup2\n        /* \"#utility.yul\":9039:9050   */\n      swap1\n      pop\n        /* \"#utility.yul\":9077:9081   */\n      0x20\n        /* \"#utility.yul\":9072:9075   */\n      dup3\n        /* \"#utility.yul\":9068:9082   */\n      add\n        /* \"#utility.yul\":9060:9082   */\n      swap1\n      pop\n        /* \"#utility.yul\":8957:9089   */\n      swap2\n      swap1\n      pop\n      jump\t// out\n        /* \"#utility.yul\":9095:9203   */\n    tag_194:\n        /* \"#utility.yul\":9172:9196   */\n      tag_338\n        /* \"#utility.yul\":9190:9195   */\n      dup2\n        /* \"#utility.yul\":9172:9196   */\n      tag_175\n      jump\t// in\n    tag_338:\n        /* \"#utility.yul\":9167:9170   */\n      dup3\n        /* \"#utility.yul\":9160:9197   */\n      mstore\n        /* \"#utility.yul\":9095:9203   */\n      pop\n      pop\n      jump\t// out\n        /* \"#utility.yul\":9209:9388   */\n    tag_195:\n        /* \"#utility.yul\":9278:9288   */\n      0x00\n        /* \"#utility.yul\":9299:9345   */\n      tag_340\n        /* \"#utility.yul\":9341:9344   */\n      dup4\n        /* \"#utility.yul\":9333:9339   */\n      dup4\n        /* \"#utility.yul\":9299:9345   */\n      tag_194\n      jump\t// in\n    tag_340:\n        /* \"#utility.yul\":9377:9381   */\n      0x20\n        /* \"#utility.yul\":9372:9375   */\n      dup4\n        /* \"#utility.yul\":9368:9382   */\n      add\n        /* \"#utility.yul\":9354:9382   */\n      swap1\n      pop\n        /* \"#utility.yul\":9209:9388   */\n      swap3\n      swap2\n      pop\n      pop\n      jump\t// out\n        /* \"#utility.yul\":9394:9507   */\n    tag_196:\n        /* \"#utility.yul\":9464:9468   */\n      0x00\n        /* \"#utility.yul\":9496:9500   */\n      0x20\n        /* \"#utility.yul\":9491:9494   */\n      dup3\n        /* \"#utility.yul\":9487:9501   */\n      add\n        /* \"#utility.yul\":9479:9501   */\n      swap1\n      pop\n        /* \"#utility.yul\":9394:9507   */\n      swap2\n      swap1\n      pop\n      jump\t// out\n        /* \"#utility.yul\":9543:10275   */\n    tag_197:\n        /* \"#utility.yul\":9662:9665   */\n      0x00\n        /* \"#utility.yul\":9691:9745   */\n      tag_343\n        /* \"#utility.yul\":9739:9744   */\n      dup3\n        /* \"#utility.yul\":9691:9745   */\n      tag_191\n      jump\t// in\n    tag_343:\n        /* \"#utility.yul\":9761:9847   */\n      tag_344\n        /* \"#utility.yul\":9840:9846   */\n      dup2\n        /* \"#utility.yul\":9835:9838   */\n      dup6\n        /* \"#utility.yul\":9761:9847   */\n      tag_192\n      jump\t// in\n    tag_344:\n        /* \"#utility.yul\":9754:9847   */\n      swap4\n      pop\n        /* \"#utility.yul\":9871:9927   */\n      tag_345\n        /* \"#utility.yul\":9921:9926   */\n      dup4\n        /* \"#utility.yul\":9871:9927   */\n      tag_193\n      jump\t// in\n    tag_345:\n        /* \"#utility.yul\":9950:9957   */\n      dup1\n        /* \"#utility.yul\":9981:9982   */\n      0x00\n        /* \"#utility.yul\":9966:10250   */\n    tag_346:\n        /* \"#utility.yul\":9991:9997   */\n      dup4\n        /* \"#utility.yul\":9988:9989   */\n      dup2\n        /* \"#utility.yul\":9985:9998   */\n      lt\n        /* \"#utility.yul\":9966:10250   */\n      iszero\n      tag_348\n      jumpi\n        /* \"#utility.yul\":10067:10073   */\n      dup2\n        /* \"#utility.yul\":10061:10074   */\n      mload\n        /* \"#utility.yul\":10094:10157   */\n      tag_349\n        /* \"#utility.yul\":10153:10156   */\n      dup9\n        /* \"#utility.yul\":10138:10151   */\n      dup3\n        /* \"#utility.yul\":10094:10157   */\n      tag_195\n      jump\t// in\n    tag_349:\n        /* \"#utility.yul\":10087:10157   */\n      swap8\n      pop\n        /* \"#utility.yul\":10180:10240   */\n      tag_350\n        /* \"#utility.yul\":10233:10239   */\n      dup4\n        /* \"#utility.yul\":10180:10240   */\n      tag_196\n      jump\t// in\n    tag_350:\n        /* \"#utility.yul\":10170:10240   */\n      swap3\n      pop\n        /* \"#utility.yul\":10026:10250   */\n      pop\n        /* \"#utility.yul\":10013:10014   */\n      0x01\n        /* \"#utility.yul\":10010:10011   */\n      dup2\n        /* \"#utility.yul\":10006:10015   */\n      add\n        /* \"#utility.yul\":10001:10015   */\n      swap1\n      pop\n        /* \"#utility.yul\":9966:10250   */\n      jump(tag_346)\n    tag_348:\n        /* \"#utility.yul\":9970:9984   */\n      pop\n        /* \"#utility.yul\":10266:10269   */\n      dup6\n        /* \"#utility.yul\":10259:10269   */\n      swap4\n      pop\n        /* \"#utility.yul\":9667:10275   */\n      pop\n      pop\n      pop\n        /* \"#utility.yul\":9543:10275   */\n      swap3\n      swap2\n      pop\n      pop\n      jump\t// out\n        /* \"#utility.yul\":10281:10903   */\n    tag_42:\n        /* \"#utility.yul\":10496:10500   */\n      0x00\n        /* \"#utility.yul\":10534:10536   */\n      0x40\n        /* \"#utility.yul\":10523:10532   */\n      dup3\n        /* \"#utility.yul\":10519:10537   */\n      add\n        /* \"#utility.yul\":10511:10537   */\n      swap1\n      pop\n        /* \"#utility.yul\":10583:10592   */\n      dup2\n        /* \"#utility.yul\":10577:10581   */\n      dup2\n        /* \"#utility.yul\":10573:10593   */\n      sub\n        /* \"#utility.yul\":10569:10570   */\n      0x00\n        /* \"#utility.yul\":10558:10567   */\n      dup4\n        /* \"#utility.yul\":10554:10571   */\n      add\n        /* \"#utility.yul\":10547:10594   */\n      mstore\n        /* \"#utility.yul\":10611:10713   */\n      tag_352\n        /* \"#utility.yul\":10708:10712   */\n      dup2\n        /* \"#utility.yul\":10699:10705   */\n      dup6\n        /* \"#utility.yul\":10611:10713   */\n      tag_190\n      jump\t// in\n    tag_352:\n        /* \"#utility.yul\":10603:10713   */\n      swap1\n      pop\n        /* \"#utility.yul\":10760:10769   */\n      dup2\n        /* \"#utility.yul\":10754:10758   */\n      dup2\n        /* \"#utility.yul\":10750:10770   */\n      sub\n        /* \"#utility.yul\":10745:10747   */\n      0x20\n        /* \"#utility.yul\":10734:10743   */\n      dup4\n        /* \"#utility.yul\":10730:10748   */\n      add\n        /* \"#utility.yul\":10723:10771   */\n      mstore\n        /* \"#utility.yul\":10788:10896   */\n      tag_353\n        /* \"#utility.yul\":10891:10895   */\n      dup2\n        /* \"#utility.yul\":10882:10888   */\n      dup5\n        /* \"#utility.yul\":10788:10896   */\n      tag_197\n      jump\t// in\n    tag_353:\n        /* \"#utility.yul\":10780:10896   */\n      swap1\n      pop\n        /* \"#utility.yul\":10281:10903   */\n      swap4\n      swap3\n      pop\n      pop\n      pop\n      jump\t// out\n        /* \"#utility.yul\":10909:11027   */\n    tag_198:\n        /* \"#utility.yul\":10996:11020   */\n      tag_355\n        /* \"#utility.yul\":11014:11019   */\n      dup2\n        /* \"#utility.yul\":10996:11020   */\n      tag_168\n      jump\t// in\n    tag_355:\n        /* \"#utility.yul\":10991:10994   */\n      dup3\n        /* \"#utility.yul\":10984:11021   */\n      mstore\n        /* \"#utility.yul\":10909:11027   */\n      pop\n      pop\n      jump\t// out\n        /* \"#utility.yul\":11033:11255   */\n    tag_46:\n        /* \"#utility.yul\":11126:11130   */\n      0x00\n        /* \"#utility.yul\":11164:11166   */\n      0x20\n        /* \"#utility.yul\":11153:11162   */\n      dup3\n        /* \"#utility.yul\":11149:11167   */\n      add\n        /* \"#utility.yul\":11141:11167   */\n      swap1\n      pop\n        /* \"#utility.yul\":11177:11248   */\n      tag_357\n        /* \"#utility.yul\":11245:11246   */\n      0x00\n        /* \"#utility.yul\":11234:11243   */\n      dup4\n        /* \"#utility.yul\":11230:11247   */\n      add\n        /* \"#utility.yul\":11221:11227   */\n      dup5\n        /* \"#utility.yul\":11177:11248   */\n      tag_198\n      jump\t// in\n    tag_357:\n        /* \"#utility.yul\":11033:11255   */\n      swap3\n      swap2\n      pop\n      pop\n      jump\t// out\n        /* \"#utility.yul\":11261:11471   */\n    tag_51:\n        /* \"#utility.yul\":11348:11352   */\n      0x00\n        /* \"#utility.yul\":11386:11388   */\n      0x20\n        /* \"#utility.yul\":11375:11384   */\n      dup3\n        /* \"#utility.yul\":11371:11389   */\n      add\n        /* \"#utility.yul\":11363:11389   */\n      swap1\n      pop\n        /* \"#utility.yul\":11399:11464   */\n      tag_359\n        /* \"#utility.yul\":11461:11462   */\n      0x00\n        /* \"#utility.yul\":11450:11459   */\n      dup4\n        /* \"#utility.yul\":11446:11463   */\n      add\n        /* \"#utility.yul\":11437:11443   */\n      dup5\n        /* \"#utility.yul\":11399:11464   */\n      tag_179\n      jump\t// in\n    tag_359:\n        /* \"#utility.yul\":11261:11471   */\n      swap3\n      swap2\n      pop\n      pop\n      jump\t// out\n        /* \"#utility.yul\":11477:12006   */\n    tag_54:\n        /* \"#utility.yul\":11548:11554   */\n      0x00\n        /* \"#utility.yul\":11556:11562   */\n      0x00\n        /* \"#utility.yul\":11605:11607   */\n      0x20\n        /* \"#utility.yul\":11593:11602   */\n      dup4\n        /* \"#utility.yul\":11584:11591   */\n      dup6\n        /* \"#utility.yul\":11580:11603   */\n      sub\n        /* \"#utility.yul\":11576:11608   */\n      slt\n        /* \"#utility.yul\":11573:11692   */\n      iszero\n      tag_361\n      jumpi\n        /* \"#utility.yul\":11611:11690   */\n      tag_362\n      tag_165\n      jump\t// in\n    tag_362:\n        /* \"#utility.yul\":11573:11692   */\n    tag_361:\n        /* \"#utility.yul\":11759:11760   */\n      0x00\n        /* \"#utility.yul\":11748:11757   */\n      dup4\n        /* \"#utility.yul\":11744:11761   */\n      add\n        /* \"#utility.yul\":11731:11762   */\n      calldataload\n        /* \"#utility.yul\":11789:11807   */\n      0xffffffffffffffff\n        /* \"#utility.yul\":11781:11787   */\n      dup2\n        /* \"#utility.yul\":11778:11808   */\n      gt\n        /* \"#utility.yul\":11775:11892   */\n      iszero\n      tag_363\n      jumpi\n        /* \"#utility.yul\":11811:11890   */\n      tag_364\n      tag_166\n      jump\t// in\n    tag_364:\n        /* \"#utility.yul\":11775:11892   */\n    tag_363:\n        /* \"#utility.yul\":11924:11989   */\n      tag_365\n        /* \"#utility.yul\":11981:11988   */\n      dup6\n        /* \"#utility.yul\":11972:11978   */\n      dup3\n        /* \"#utility.yul\":11961:11970   */\n      dup7\n        /* \"#utility.yul\":11957:11979   */\n      add\n        /* \"#utility.yul\":11924:11989   */\n      tag_174\n      jump\t// in\n    tag_365:\n        /* \"#utility.yul\":11906:11989   */\n      swap3\n      pop\n      swap3\n      pop\n        /* \"#utility.yul\":11702:11999   */\n      pop\n        /* \"#utility.yul\":11477:12006   */\n      swap3\n      pop\n      swap3\n      swap1\n      pop\n      jump\t// out\n        /* \"#utility.yul\":12012:12111   */\n    tag_199:\n        /* \"#utility.yul\":12064:12070   */\n      0x00\n        /* \"#utility.yul\":12098:12103   */\n      dup2\n        /* \"#utility.yul\":12092:12104   */\n      mload\n        /* \"#utility.yul\":12082:12104   */\n      swap1\n      pop\n        /* \"#utility.yul\":12012:12111   */\n      swap2\n      swap1\n      pop\n      jump\t// out\n        /* \"#utility.yul\":12117:12286   */\n    tag_200:\n        /* \"#utility.yul\":12201:12212   */\n      0x00\n        /* \"#utility.yul\":12235:12241   */\n      dup3\n        /* \"#utility.yul\":12230:12233   */\n      dup3\n        /* \"#utility.yul\":12223:12242   */\n      mstore\n        /* \"#utility.yul\":12275:12279   */\n      0x20\n        /* \"#utility.yul\":12270:12273   */\n      dup3\n        /* \"#utility.yul\":12266:12280   */\n      add\n        /* \"#utility.yul\":12251:12280   */\n      swap1\n      pop\n        /* \"#utility.yul\":12117:12286   */\n      swap3\n      swap2\n      pop\n      pop\n      jump\t// out\n        /* \"#utility.yul\":12292:12431   */\n    tag_201:\n        /* \"#utility.yul\":12381:12387   */\n      dup3\n        /* \"#utility.yul\":12376:12379   */\n      dup2\n        /* \"#utility.yul\":12371:12374   */\n      dup4\n        /* \"#utility.yul\":12365:12388   */\n      mcopy\n        /* \"#utility.yul\":12422:12423   */\n      0x00\n        /* \"#utility.yul\":12413:12419   */\n      dup4\n        /* \"#utility.yul\":12408:12411   */\n      dup4\n        /* \"#utility.yul\":12404:12420   */\n      add\n        /* \"#utility.yul\":12397:12424   */\n      mstore\n        /* \"#utility.yul\":12292:12431   */\n      pop\n      pop\n      pop\n      jump\t// out\n        /* \"#utility.yul\":12437:12539   */\n    tag_202:\n        /* \"#utility.yul\":12478:12484   */\n      0x00\n        /* \"#utility.yul\":12529:12531   */\n      0x1f\n        /* \"#utility.yul\":12525:12532   */\n      not\n        /* \"#utility.yul\":12520:12522   */\n      0x1f\n        /* \"#utility.yul\":12513:12518   */\n      dup4\n        /* \"#utility.yul\":12509:12523   */\n      add\n        /* \"#utility.yul\":12505:12533   */\n      and\n        /* \"#utility.yul\":12495:12533   */\n      swap1\n      pop\n        /* \"#utility.yul\":12437:12539   */\n      swap2\n      swap1\n      pop\n      jump\t// out\n        /* \"#utility.yul\":12545:12922   */\n    tag_203:\n        /* \"#utility.yul\":12633:12636   */\n      0x00\n        /* \"#utility.yul\":12661:12700   */\n      tag_371\n        /* \"#utility.yul\":12694:12699   */\n      dup3\n        /* \"#utility.yul\":12661:12700   */\n      tag_199\n      jump\t// in\n    tag_371:\n        /* \"#utility.yul\":12716:12787   */\n      tag_372\n        /* \"#utility.yul\":12780:12786   */\n      dup2\n        /* \"#utility.yul\":12775:12778   */\n      dup6\n        /* \"#utility.yul\":12716:12787   */\n      tag_200\n      jump\t// in\n    tag_372:\n        /* \"#utility.yul\":12709:12787   */\n      swap4\n      pop\n        /* \"#utility.yul\":12796:12861   */\n      tag_373\n        /* \"#utility.yul\":12854:12860   */\n      dup2\n        /* \"#utility.yul\":12849:12852   */\n      dup6\n        /* \"#utility.yul\":12842:12846   */\n      0x20\n        /* \"#utility.yul\":12835:12840   */\n      dup7\n        /* \"#utility.yul\":12831:12847   */\n      add\n        /* \"#utility.yul\":12796:12861   */\n      tag_201\n      jump\t// in\n    tag_373:\n        /* \"#utility.yul\":12886:12915   */\n      tag_374\n        /* \"#utility.yul\":12908:12914   */\n      dup2\n        /* \"#utility.yul\":12886:12915   */\n      tag_202\n      jump\t// in\n    tag_374:\n        /* \"#utility.yul\":12881:12884   */\n      dup5\n        /* \"#utility.yul\":12877:12916   */\n      add\n        /* \"#utility.yul\":12870:12916   */\n      swap2\n      pop\n        /* \"#utility.yul\":12637:12922   */\n      pop\n        /* \"#utility.yul\":12545:12922   */\n      swap3\n      swap2\n      pop\n      pop\n      jump\t// out\n        /* \"#utility.yul\":12928:13461   */\n    tag_61:\n        /* \"#utility.yul\":13097:13101   */\n      0x00\n        /* \"#utility.yul\":13135:13137   */\n      0x60\n        /* \"#utility.yul\":13124:13133   */\n      dup3\n        /* \"#utility.yul\":13120:13138   */\n      add\n        /* \"#utility.yul\":13112:13138   */\n      swap1\n      pop\n        /* \"#utility.yul\":13184:13193   */\n      dup2\n        /* \"#utility.yul\":13178:13182   */\n      dup2\n        /* \"#utility.yul\":13174:13194   */\n      sub\n        /* \"#utility.yul\":13170:13171   */\n      0x00\n        /* \"#utility.yul\":13159:13168   */\n      dup4\n        /* \"#utility.yul\":13155:13172   */\n      add\n        /* \"#utility.yul\":13148:13195   */\n      mstore\n        /* \"#utility.yul\":13212:13290   */\n      tag_376\n        /* \"#utility.yul\":13285:13289   */\n      dup2\n        /* \"#utility.yul\":13276:13282   */\n      dup7\n        /* \"#utility.yul\":13212:13290   */\n      tag_203\n      jump\t// in\n    tag_376:\n        /* \"#utility.yul\":13204:13290   */\n      swap1\n      pop\n        /* \"#utility.yul\":13300:13372   */\n      tag_377\n        /* \"#utility.yul\":13368:13370   */\n      0x20\n        /* \"#utility.yul\":13357:13366   */\n      dup4\n        /* \"#utility.yul\":13353:13371   */\n      add\n        /* \"#utility.yul\":13344:13350   */\n      dup6\n        /* \"#utility.yul\":13300:13372   */\n      tag_198\n      jump\t// in\n    tag_377:\n        /* \"#utility.yul\":13382:13454   */\n      tag_378\n        /* \"#utility.yul\":13450:13452   */\n      0x40\n        /* \"#utility.yul\":13439:13448   */\n      dup4\n        /* \"#utility.yul\":13435:13453   */\n      add\n        /* \"#utility.yul\":13426:13432   */\n      dup5\n        /* \"#utility.yul\":13382:13454   */\n      tag_180\n      jump\t// in\n    tag_378:\n        /* \"#utility.yul\":12928:13461   */\n      swap5\n      swap4\n      pop\n      pop\n      pop\n      pop\n      jump\t// out\n        /* \"#utility.yul\":13467:13627   */\n    tag_204:\n        /* \"#utility.yul\":13607:13619   */\n      0x6f6e6c79206f776e657200000000000000000000000000000000000000000000\n        /* \"#utility.yul\":13603:13604   */\n      0x00\n        /* \"#utility.yul\":13595:13601   */\n      dup3\n        /* \"#utility.yul\":13591:13605   */\n      add\n        /* \"#utility.yul\":13584:13620   */\n      mstore\n        /* \"#utility.yul\":13467:13627   */\n      pop\n      jump\t// out\n        /* \"#utility.yul\":13633:13999   */\n    tag_205:\n        /* \"#utility.yul\":13775:13778   */\n      0x00\n        /* \"#utility.yul\":13796:13863   */\n      tag_381\n        /* \"#utility.yul\":13860:13862   */\n      0x0a\n        /* \"#utility.yul\":13855:13858   */\n      dup4\n        /* \"#utility.yul\":13796:13863   */\n      tag_200\n      jump\t// in\n    tag_381:\n        /* \"#utility.yul\":13789:13863   */\n      swap2\n      pop\n        /* \"#utility.yul\":13872:13965   */\n      tag_382\n        /* \"#utility.yul\":13961:13964   */\n      dup3\n        /* \"#utility.yul\":13872:13965   */\n      tag_204\n      jump\t// in\n    tag_382:\n        /* \"#utility.yul\":13990:13992   */\n      0x20\n        /* \"#utility.yul\":13985:13988   */\n      dup3\n        /* \"#utility.yul\":13981:13993   */\n      add\n        /* \"#utility.yul\":13974:13993   */\n      swap1\n      pop\n        /* \"#utility.yul\":13633:13999   */\n      swap2\n      swap1\n      pop\n      jump\t// out\n        /* \"#utility.yul\":14005:14424   */\n    tag_71:\n        /* \"#utility.yul\":14171:14175   */\n      0x00\n        /* \"#utility.yul\":14209:14211   */\n      0x20\n        /* \"#utility.yul\":14198:14207   */\n      dup3\n        /* \"#utility.yul\":14194:14212   */\n      add\n        /* \"#utility.yul\":14186:14212   */\n      swap1\n      pop\n        /* \"#utility.yul\":14258:14267   */\n      dup2\n        /* \"#utility.yul\":14252:14256   */\n      dup2\n        /* \"#utility.yul\":14248:14268   */\n      sub\n        /* \"#utility.yul\":14244:14245   */\n      0x00\n        /* \"#utility.yul\":14233:14242   */\n      dup4\n        /* \"#utility.yul\":14229:14246   */\n      add\n        /* \"#utility.yul\":14222:14269   */\n      mstore\n        /* \"#utility.yul\":14286:14417   */\n      tag_384\n        /* \"#utility.yul\":14412:14416   */\n      dup2\n        /* \"#utility.yul\":14286:14417   */\n      tag_205\n      jump\t// in\n    tag_384:\n        /* \"#utility.yul\":14278:14417   */\n      swap1\n      pop\n        /* \"#utility.yul\":14005:14424   */\n      swap2\n      swap1\n      pop\n      jump\t// out\n        /* \"#utility.yul\":14430:14592   */\n    tag_206:\n        /* \"#utility.yul\":14570:14584   */\n      0x7a65726f20616464726573730000000000000000000000000000000000000000\n        /* \"#utility.yul\":14566:14567   */\n      0x00\n        /* \"#utility.yul\":14558:14564   */\n      dup3\n        /* \"#utility.yul\":14554:14568   */\n      add\n        /* \"#utility.yul\":14547:14585   */\n      mstore\n        /* \"#utility.yul\":14430:14592   */\n      pop\n      jump\t// out\n        /* \"#utility.yul\":14598:14964   */\n    tag_207:\n        /* \"#utility.yul\":14740:14743   */\n      0x00\n        /* \"#utility.yul\":14761:14828   */\n      tag_387\n        /* \"#utility.yul\":14825:14827   */\n      0x0c\n        /* \"#utility.yul\":14820:14823   */\n      dup4\n        /* \"#utility.yul\":14761:14828   */\n      tag_200\n      jump\t// in\n    tag_387:\n        /* \"#utility.yul\":14754:14828   */\n      swap2\n      pop\n        /* \"#utility.yul\":14837:14930   */\n      tag_388\n        /* \"#utility.yul\":14926:14929   */\n      dup3\n        /* \"#utility.yul\":14837:14930   */\n      tag_206\n      jump\t// in\n    tag_388:\n        /* \"#utility.yul\":14955:14957   */\n      0x20\n        /* \"#utility.yul\":14950:14953   */\n      dup3\n        /* \"#utility.yul\":14946:14958   */\n      add\n        /* \"#utility.yul\":14939:14958   */\n      swap1\n      pop\n        /* \"#utility.yul\":14598:14964   */\n      swap2\n      swap1\n      pop\n      jump\t// out\n        /* \"#utility.yul\":14970:15389   */\n    tag_75:\n        /* \"#utility.yul\":15136:15140   */\n      0x00\n        /* \"#utility.yul\":15174:15176   */\n      0x20\n        /* \"#utility.yul\":15163:15172   */\n      dup3\n        /* \"#utility.yul\":15159:15177   */\n      add\n        /* \"#utility.yul\":15151:15177   */\n      swap1\n      pop\n        /* \"#utility.yul\":15223:15232   */\n      dup2\n        /* \"#utility.yul\":15217:15221   */\n      dup2\n        /* \"#utility.yul\":15213:15233   */\n      sub\n        /* \"#utility.yul\":15209:15210   */\n      0x00\n        /* \"#utility.yul\":15198:15207   */\n      dup4\n        /* \"#utility.yul\":15194:15211   */\n      add\n        /* \"#utility.yul\":15187:15234   */\n      mstore\n        /* \"#utility.yul\":15251:15382   */\n      tag_390\n        /* \"#utility.yul\":15377:15381   */\n      dup2\n        /* \"#utility.yul\":15251:15382   */\n      tag_207\n      jump\t// in\n    tag_390:\n        /* \"#utility.yul\":15243:15382   */\n      swap1\n      pop\n        /* \"#utility.yul\":14970:15389   */\n      swap2\n      swap1\n      pop\n      jump\t// out\n        /* \"#utility.yul\":15395:15543   */\n    tag_208:\n        /* \"#utility.yul\":15497:15508   */\n      0x00\n        /* \"#utility.yul\":15534:15537   */\n      dup2\n        /* \"#utility.yul\":15519:15537   */\n      swap1\n      pop\n        /* \"#utility.yul\":15395:15543   */\n      swap3\n      swap2\n      pop\n      pop\n      jump\t// out\n        /* \"#utility.yul\":15549:15697   */\n    tag_209:\n        /* \"#utility.yul\":15647:15653   */\n      dup3\n        /* \"#utility.yul\":15642:15645   */\n      dup2\n        /* \"#utility.yul\":15637:15640   */\n      dup4\n        /* \"#utility.yul\":15624:15654   */\n      calldatacopy\n        /* \"#utility.yul\":15688:15689   */\n      0x00\n        /* \"#utility.yul\":15679:15685   */\n      dup4\n        /* \"#utility.yul\":15674:15677   */\n      dup4\n        /* \"#utility.yul\":15670:15686   */\n      add\n        /* \"#utility.yul\":15663:15690   */\n      mstore\n        /* \"#utility.yul\":15549:15697   */\n      pop\n      pop\n      pop\n      jump\t// out\n        /* \"#utility.yul\":15727:16057   */\n    tag_210:\n        /* \"#utility.yul\":15843:15846   */\n      0x00\n        /* \"#utility.yul\":15864:15953   */\n      tag_394\n        /* \"#utility.yul\":15946:15952   */\n      dup4\n        /* \"#utility.yul\":15941:15944   */\n      dup6\n        /* \"#utility.yul\":15864:15953   */\n      tag_208\n      jump\t// in\n    tag_394:\n        /* \"#utility.yul\":15857:15953   */\n      swap4\n      pop\n        /* \"#utility.yul\":15963:16019   */\n      tag_395\n        /* \"#utility.yul\":16012:16018   */\n      dup4\n        /* \"#utility.yul\":16007:16010   */\n      dup6\n        /* \"#utility.yul\":16000:16005   */\n      dup5\n        /* \"#utility.yul\":15963:16019   */\n      tag_209\n      jump\t// in\n    tag_395:\n        /* \"#utility.yul\":16044:16050   */\n      dup3\n        /* \"#utility.yul\":16039:16042   */\n      dup5\n        /* \"#utility.yul\":16035:16051   */\n      add\n        /* \"#utility.yul\":16028:16051   */\n      swap1\n      pop\n        /* \"#utility.yul\":15727:16057   */\n      swap4\n      swap3\n      pop\n      pop\n      pop\n      jump\t// out\n        /* \"#utility.yul\":16063:16358   */\n    tag_78:\n        /* \"#utility.yul\":16205:16208   */\n      0x00\n        /* \"#utility.yul\":16227:16332   */\n      tag_397\n        /* \"#utility.yul\":16328:16331   */\n      dup3\n        /* \"#utility.yul\":16319:16325   */\n      dup5\n        /* \"#utility.yul\":16311:16317   */\n      dup7\n        /* \"#utility.yul\":16227:16332   */\n      tag_210\n      jump\t// in\n    tag_397:\n        /* \"#utility.yul\":16220:16332   */\n      swap2\n      pop\n        /* \"#utility.yul\":16349:16352   */\n      dup2\n        /* \"#utility.yul\":16342:16352   */\n      swap1\n      pop\n        /* \"#utility.yul\":16063:16358   */\n      swap4\n      swap3\n      pop\n      pop\n      pop\n      jump\t// out\n        /* \"#utility.yul\":16364:16528   */\n    tag_211:\n        /* \"#utility.yul\":16504:16520   */\n      0x6e6f7420617574686f72697a6564000000000000000000000000000000000000\n        /* \"#utility.yul\":16500:16501   */\n      0x00\n        /* \"#utility.yul\":16492:16498   */\n      dup3\n        /* \"#utility.yul\":16488:16502   */\n      add\n        /* \"#utility.yul\":16481:16521   */\n      mstore\n        /* \"#utility.yul\":16364:16528   */\n      pop\n      jump\t// out\n        /* \"#utility.yul\":16534:16900   */\n    tag_212:\n        /* \"#utility.yul\":16676:16679   */\n      0x00\n        /* \"#utility.yul\":16697:16764   */\n      tag_400\n        /* \"#utility.yul\":16761:16763   */\n      0x0e\n        /* \"#utility.yul\":16756:16759   */\n      dup4\n        /* \"#utility.yul\":16697:16764   */\n      tag_200\n      jump\t// in\n    tag_400:\n        /* \"#utility.yul\":16690:16764   */\n      swap2\n      pop\n        /* \"#utility.yul\":16773:16866   */\n      tag_401\n        /* \"#utility.yul\":16862:16865   */\n      dup3\n        /* \"#utility.yul\":16773:16866   */\n      tag_211\n      jump\t// in\n    tag_401:\n        /* \"#utility.yul\":16891:16893   */\n      0x20\n        /* \"#utility.yul\":16886:16889   */\n      dup3\n        /* \"#utility.yul\":16882:16894   */\n      add\n        /* \"#utility.yul\":16875:16894   */\n      swap1\n      pop\n        /* \"#utility.yul\":16534:16900   */\n      swap2\n      swap1\n      pop\n      jump\t// out\n        /* \"#utility.yul\":16906:17325   */\n    tag_84:\n        /* \"#utility.yul\":17072:17076   */\n      0x00\n        /* \"#utility.yul\":17110:17112   */\n      0x20\n        /* \"#utility.yul\":17099:17108   */\n      dup3\n        /* \"#utility.yul\":17095:17113   */\n      add\n        /* \"#utility.yul\":17087:17113   */\n      swap1\n      pop\n        /* \"#utility.yul\":17159:17168   */\n      dup2\n        /* \"#utility.yul\":17153:17157   */\n      dup2\n        /* \"#utility.yul\":17149:17169   */\n      sub\n        /* \"#utility.yul\":17145:17146   */\n      0x00\n        /* \"#utility.yul\":17134:17143   */\n      dup4\n        /* \"#utility.yul\":17130:17147   */\n      add\n        /* \"#utility.yul\":17123:17170   */\n      mstore\n        /* \"#utility.yul\":17187:17318   */\n      tag_403\n        /* \"#utility.yul\":17313:17317   */\n      dup2\n        /* \"#utility.yul\":17187:17318   */\n      tag_212\n      jump\t// in\n    tag_403:\n        /* \"#utility.yul\":17179:17318   */\n      swap1\n      pop\n        /* \"#utility.yul\":16906:17325   */\n      swap2\n      swap1\n      pop\n      jump\t// out\n        /* \"#utility.yul\":17331:17428   */\n    tag_213:\n        /* \"#utility.yul\":17390:17396   */\n      0x00\n        /* \"#utility.yul\":17418:17421   */\n      dup3\n        /* \"#utility.yul\":17408:17421   */\n      swap1\n      pop\n        /* \"#utility.yul\":17331:17428   */\n      swap3\n      swap2\n      pop\n      pop\n      jump\t// out\n        /* \"#utility.yul\":17434:17614   */\n    tag_119:\n        /* \"#utility.yul\":17482:17559   */\n      0x4e487b7100000000000000000000000000000000000000000000000000000000\n        /* \"#utility.yul\":17479:17480   */\n      0x00\n        /* \"#utility.yul\":17472:17560   */\n      mstore\n        /* \"#utility.yul\":17579:17583   */\n      0x41\n        /* \"#utility.yul\":17576:17577   */\n      0x04\n        /* \"#utility.yul\":17569:17584   */\n      mstore\n        /* \"#utility.yul\":17603:17607   */\n      0x24\n        /* \"#utility.yul\":17600:17601   */\n      0x00\n        /* \"#utility.yul\":17593:17608   */\n      revert\n        /* \"#utility.yul\":17620:17800   */\n    tag_214:\n        /* \"#utility.yul\":17668:17745   */\n      0x4e487b7100000000000000000000000000000000000000000000000000000000\n        /* \"#utility.yul\":17665:17666   */\n      0x00\n        /* \"#utility.yul\":17658:17746   */\n      mstore\n        /* \"#utility.yul\":17765:17769   */\n      0x22\n        /* \"#utility.yul\":17762:17763   */\n      0x04\n        /* \"#utility.yul\":17755:17770   */\n      mstore\n        /* \"#utility.yul\":17789:17793   */\n      0x24\n        /* \"#utility.yul\":17786:17787   */\n      0x00\n        /* \"#utility.yul\":17779:17794   */\n      revert\n        /* \"#utility.yul\":17806:18126   */\n    tag_100:\n        /* \"#utility.yul\":17850:17856   */\n      0x00\n        /* \"#utility.yul\":17887:17888   */\n      0x02\n        /* \"#utility.yul\":17881:17885   */\n      dup3\n        /* \"#utility.yul\":17877:17889   */\n      div\n        /* \"#utility.yul\":17867:17889   */\n      swap1\n      pop\n        /* \"#utility.yul\":17934:17935   */\n      0x01\n        /* \"#utility.yul\":17928:17932   */\n      dup3\n        /* \"#utility.yul\":17924:17936   */\n      and\n        /* \"#utility.yul\":17955:17973   */\n      dup1\n        /* \"#utility.yul\":17945:18026   */\n      tag_408\n      jumpi\n        /* \"#utility.yul\":18011:18015   */\n      0x7f\n        /* \"#utility.yul\":18003:18009   */\n      dup3\n        /* \"#utility.yul\":17999:18016   */\n      and\n        /* \"#utility.yul\":17989:18016   */\n      swap2\n      pop\n        /* \"#utility.yul\":17945:18026   */\n    tag_408:\n        /* \"#utility.yul\":18073:18075   */\n      0x20\n        /* \"#utility.yul\":18065:18071   */\n      dup3\n        /* \"#utility.yul\":18062:18076   */\n      lt\n        /* \"#utility.yul\":18042:18060   */\n      dup2\n        /* \"#utility.yul\":18039:18077   */\n      sub\n        /* \"#utility.yul\":18036:18120   */\n      tag_409\n      jumpi\n        /* \"#utility.yul\":18092:18110   */\n      tag_410\n      tag_214\n      jump\t// in\n    tag_410:\n        /* \"#utility.yul\":18036:18120   */\n    tag_409:\n        /* \"#utility.yul\":17857:18126   */\n      pop\n        /* \"#utility.yul\":17806:18126   */\n      swap2\n      swap1\n      pop\n      jump\t// out\n        /* \"#utility.yul\":18132:18273   */\n    tag_215:\n        /* \"#utility.yul\":18181:18185   */\n      0x00\n        /* \"#utility.yul\":18204:18207   */\n      dup2\n        /* \"#utility.yul\":18196:18207   */\n      swap1\n      pop\n        /* \"#utility.yul\":18227:18230   */\n      dup2\n        /* \"#utility.yul\":18224:18225   */\n      0x00\n        /* \"#utility.yul\":18217:18231   */\n      mstore\n        /* \"#utility.yul\":18261:18265   */\n      0x20\n        /* \"#utility.yul\":18258:18259   */\n      0x00\n        /* \"#utility.yul\":18248:18266   */\n      keccak256\n        /* \"#utility.yul\":18240:18266   */\n      swap1\n      pop\n        /* \"#utility.yul\":18132:18273   */\n      swap2\n      swap1\n      pop\n      jump\t// out\n        /* \"#utility.yul\":18279:18372   */\n    tag_216:\n        /* \"#utility.yul\":18316:18322   */\n      0x00\n        /* \"#utility.yul\":18363:18365   */\n      0x20\n        /* \"#utility.yul\":18358:18360   */\n      0x1f\n        /* \"#utility.yul\":18351:18356   */\n      dup4\n        /* \"#utility.yul\":18347:18361   */\n      add\n        /* \"#utility.yul\":18343:18366   */\n      div\n        /* \"#utility.yul\":18333:18366   */\n      swap1\n      pop\n        /* \"#utility.yul\":18279:18372   */\n      swap2\n      swap1\n      pop\n      jump\t// out\n        /* \"#utility.yul\":18378:18485   */\n    tag_217:\n        /* \"#utility.yul\":18422:18430   */\n      0x00\n        /* \"#utility.yul\":18472:18477   */\n      dup3\n        /* \"#utility.yul\":18466:18470   */\n      dup3\n        /* \"#utility.yul\":18462:18478   */\n      shl\n        /* \"#utility.yul\":18441:18478   */\n      swap1\n      pop\n        /* \"#utility.yul\":18378:18485   */\n      swap3\n      swap2\n      pop\n      pop\n      jump\t// out\n        /* \"#utility.yul\":18491:18884   */\n    tag_218:\n        /* \"#utility.yul\":18560:18566   */\n      0x00\n        /* \"#utility.yul\":18610:18611   */\n      0x08\n        /* \"#utility.yul\":18598:18608   */\n      dup4\n        /* \"#utility.yul\":18594:18612   */\n      mul\n        /* \"#utility.yul\":18633:18730   */\n      tag_415\n        /* \"#utility.yul\":18663:18729   */\n      0xffffffffffffffffffffffffffffffffffffffffffffffffffffffffffffffff\n        /* \"#utility.yul\":18652:18661   */\n      dup3\n        /* \"#utility.yul\":18633:18730   */\n      tag_217\n      jump\t// in\n    tag_415:\n        /* \"#utility.yul\":18751:18790   */\n      tag_416\n        /* \"#utility.yul\":18781:18789   */\n      dup7\n        /* \"#utility.yul\":18770:18779   */\n      dup4\n        /* \"#utility.yul\":18751:18790   */\n      tag_217\n      jump\t// in\n    tag_416:\n        /* \"#utility.yul\":18739:18790   */\n      swap6\n      pop\n        /* \"#utility.yul\":18823:18827   */\n      dup1\n        /* \"#utility.yul\":18819:18828   */\n      not\n        /* \"#utility.yul\":18812:18817   */\n      dup5\n        /* \"#utility.yul\":18808:18829   */\n      and\n        /* \"#utility.yul\":18799:18829   */\n      swap4\n      pop\n        /* \"#utility.yul\":18872:18876   */\n      dup1\n        /* \"#utility.yul\":18862:18870   */\n      dup7\n        /* \"#utility.yul\":18858:18877   */\n      and\n        /* \"#utility.yul\":18851:18856   */\n      dup5\n        /* \"#utility.yul\":18848:18878   */\n      or\n        /* \"#utility.yul\":18838:18878   */\n      swap3\n      pop\n        /* \"#utility.yul\":18567:18884   */\n      pop\n      pop\n        /* \"#utility.yul\":18491:18884   */\n      swap4\n      swap3\n      pop\n      pop\n      pop\n      jump\t// out\n        /* \"#utility.yul\":18890:18950   */\n    tag_219:\n        /* \"#utility.yul\":18918:18921   */\n      0x00\n        /* \"#utility.yul\":18939:18944   */\n      dup2\n        /* \"#utility.yul\":18932:18944   */\n      swap1\n      pop\n        /* \"#utility.yul\":18890:18950   */\n      swap2\n      swap1\n      pop\n      jump\t// out\n        /* \"#utility.yul\":18956:19098   */\n    tag_220:\n        /* \"#utility.yul\":19006:19015   */\n      0x00\n        /* \"#utility.yul\":19039:19092   */\n      tag_419\n        /* \"#utility.yul\":19057:19091   */\n      tag_420\n        /* \"#utility.yul\":19066:19090   */\n      tag_421\n        /* \"#utility.yul\":19084:19089   */\n      dup5\n        /* \"#utility.yul\":19066:19090   */\n      tag_175\n      jump\t// in\n    tag_421:\n        /* \"#utility.yul\":19057:19091   */\n      tag_219\n      jump\t// in\n    tag_420:\n        /* \"#utility.yul\":19039:19092   */\n      tag_175\n      jump\t// in\n    tag_419:\n        /* \"#utility.yul\":19026:19092   */\n      swap1\n      pop\n        /* \"#utility.yul\":18956:19098   */\n      swap2\n      swap1\n      pop\n      jump\t// out\n        /* \"#utility.yul\":19104:19179   */\n    tag_221:\n        /* \"#utility.yul\":19147:19150   */\n      0x00\n        /* \"#utility.yul\":19168:19173   */\n      dup2\n        /* \"#utility.yul\":19161:19173   */\n      swap1\n      pop\n        /* \"#utility.yul\":19104:19179   */\n      swap2\n      swap1\n      pop\n      jump\t// out\n        /* \"#utility.yul\":19185:19454   */\n    tag_222:\n        /* \"#utility.yul\":19295:19334   */\n      tag_424\n        /* \"#utility.yul\":19326:19333   */\n      dup4\n        /* \"#utility.yul\":19295:19334   */\n      tag_220\n      jump\t// in\n    tag_424:\n        /* \"#utility.yul\":19356:19447   */\n      tag_425\n        /* \"#utility.yul\":19405:19446   */\n      tag_426\n        /* \"#utility.yul\":19429:19445   */\n      dup3\n        /* \"#utility.yul\":19405:19446   */\n      tag_221\n      jump\t// in\n    tag_426:\n        /* \"#utility.yul\":19397:19403   */\n      dup5\n        /* \"#utility.yul\":19390:19394   */\n      dup5\n        /* \"#utility.yul\":19384:19395   */\n      sload\n        /* \"#utility.yul\":19356:19447   */\n      tag_218\n      jump\t// in\n    tag_425:\n        /* \"#utility.yul\":19350:19354   */\n      dup3\n        /* \"#utility.yul\":19343:19448   */\n      sstore\n        /* \"#utility.yul\":19261:19454   */\n      pop\n        /* \"#utility.yul\":19185:19454   */\n      pop\n      pop\n      pop\n      jump\t// out\n        /* \"#utility.yul\":19460:19533   */\n    tag_223:\n        /* \"#utility.yul\":19505:19508   */\n      0x00\n        /* \"#utility.yul\":19526:19527   */\n      0x00\n        /* \"#utility.yul\":19519:19527   */\n      swap1\n      pop\n        /* \"#utility.yul\":19460:19533   */\n      swap1\n      jump\t// out\n        /* \"#utility.yul\":19539:19728   */\n    tag_224:\n        /* \"#utility.yul\":19616:19648   */\n      tag_429\n      tag_223\n      jump\t// in\n    tag_429:\n        /* \"#utility.yul\":19657:19722   */\n      tag_430\n        /* \"#utility.yul\":19715:19721   */\n      dup2\n        /* \"#utility.yul\":19707:19713   */\n      dup5\n        /* \"#utility.yul\":19701:19705   */\n      dup5\n        /* \"#utility.yul\":19657:19722   */\n      tag_222\n      jump\t// in\n    tag_430:\n        /* \"#utility.yul\":19592:19728   */\n      pop\n        /* \"#utility.yul\":19539:19728   */\n      pop\n      pop\n      jump\t// out\n        /* \"#utility.yul\":19734:19920   */\n    tag_225:\n        /* \"#utility.yul\":19794:19914   */\n    tag_432:\n        /* \"#utility.yul\":19811:19814   */\n      dup2\n        /* \"#utility.yul\":19804:19809   */\n      dup2\n        /* \"#utility.yul\":19801:19815   */\n      lt\n        /* \"#utility.yul\":19794:19914   */\n      iszero\n      tag_434\n      jumpi\n        /* \"#utility.yul\":19865:19904   */\n      tag_435\n        /* \"#utility.yul\":19902:19903   */\n      0x00\n        /* \"#utility.yul\":19895:19900   */\n      dup3\n        /* \"#utility.yul\":19865:19904   */\n      tag_224\n      jump\t// in\n    tag_435:\n        /* \"#utility.yul\":19838:19839   */\n      0x01\n        /* \"#utility.yul\":19831:19836   */\n      dup2\n        /* \"#utility.yul\":19827:19840   */\n      add\n        /* \"#utility.yul\":19818:19840   */\n      swap1\n      pop\n        /* \"#utility.yul\":19794:19914   */\n      jump(tag_432)\n    tag_434:\n        /* \"#utility.yul\":19734:19920   */\n      pop\n      pop\n      jump\t// out\n        /* \"#utility.yul\":19926:20469   */\n    tag_226:\n        /* \"#utility.yul\":20027:20029   */\n      0x1f\n        /* \"#utility.yul\":20022:20025   */\n      dup3\n        /* \"#utility.yul\":20019:20030   */\n      gt\n        /* \"#utility.yul\":20016:20462   */\n      iszero\n      tag_437\n      jumpi\n        /* \"#utility.yul\":20061:20099   */\n      tag_438\n        /* \"#utility.yul\":20093:20098   */\n      dup2\n        /* \"#utility.yul\":20061:20099   */\n      tag_215\n      jump\t// in\n    tag_438:\n        /* \"#utility.yul\":20145:20174   */\n      tag_439\n        /* \"#utility.yul\":20163:20173   */\n      dup5\n        /* \"#utility.yul\":20145:20174   */\n      tag_216\n      jump\t// in\n    tag_439:\n        /* \"#utility.yul\":20135:20143   */\n      dup2\n        /* \"#utility.yul\":20131:20175   */\n      add\n        /* \"#utility.yul\":20328:20330   */\n      0x20\n        /* \"#utility.yul\":20316:20326   */\n      dup6\n        /* \"#utility.yul\":20313:20331   */\n      lt\n        /* \"#utility.yul\":20310:20359   */\n      iszero\n      tag_440\n      jumpi\n        /* \"#utility.yul\":20349:20357   */\n      dup2\n        /* \"#utility.yul\":20334:20357   */\n      swap1\n      pop\n        /* \"#utility.yul\":20310:20359   */\n    tag_440:\n        /* \"#utility.yul\":20372:20452   */\n      tag_441\n        /* \"#utility.yul\":20428:20450   */\n      tag_442\n        /* \"#utility.yul\":20446:20449   */\n      dup6\n        /* \"#utility.yul\":20428:20450   */\n      tag_216\n      jump\t// in\n    tag_442:\n        /* \"#utility.yul\":20418:20426   */\n      dup4\n        /* \"#utility.yul\":20414:20451   */\n      add\n        /* \"#utility.yul\":20401:20412   */\n      dup3\n        /* \"#utility.yul\":20372:20452   */\n      tag_225\n      jump\t// in\n    tag_441:\n        /* \"#utility.yul\":20031:20462   */\n      pop\n      pop\n        /* \"#utility.yul\":20016:20462   */\n    tag_437:\n        /* \"#utility.yul\":19926:20469   */\n      pop\n      pop\n      pop\n      jump\t// out\n        /* \"#utility.yul\":20475:20592   */\n    tag_227:\n        /* \"#utility.yul\":20529:20537   */\n      0x00\n        /* \"#utility.yul\":20579:20584   */\n      dup3\n        /* \"#utility.yul\":20573:20577   */\n      dup3\n        /* \"#utility.yul\":20569:20585   */\n      shr\n        /* \"#utility.yul\":20548:20585   */\n      swap1\n      pop\n        /* \"#utility.yul\":20475:20592   */\n      swap3\n      swap2\n      pop\n      pop\n      jump\t// out\n        /* \"#utility.yul\":20598:20767   */\n    tag_228:\n        /* \"#utility.yul\":20642:20648   */\n      0x00\n        /* \"#utility.yul\":20675:20726   */\n      tag_445\n        /* \"#utility.yul\":20723:20724   */\n      0x00\n        /* \"#utility.yul\":20719:20725   */\n      not\n        /* \"#utility.yul\":20711:20716   */\n      dup5\n        /* \"#utility.yul\":20708:20709   */\n      0x08\n        /* \"#utility.yul\":20704:20717   */\n      mul\n        /* \"#utility.yul\":20675:20726   */\n      tag_227\n      jump\t// in\n    tag_445:\n        /* \"#utility.yul\":20671:20727   */\n      not\n        /* \"#utility.yul\":20756:20760   */\n      dup1\n        /* \"#utility.yul\":20750:20754   */\n      dup4\n        /* \"#utility.yul\":20746:20761   */\n      and\n        /* \"#utility.yul\":20736:20761   */\n      swap2\n      pop\n        /* \"#utility.yul\":20649:20767   */\n      pop\n        /* \"#utility.yul\":20598:20767   */\n      swap3\n      swap2\n      pop\n      pop\n      jump\t// out\n        /* \"#utility.yul\":20772:21067   */\n    tag_229:\n        /* \"#utility.yul\":20848:20852   */\n      0x00\n        /* \"#utility.yul\":20994:21023   */\n      tag_447\n        /* \"#utility.yul\":21019:21022   */\n      dup4\n        /* \"#utility.yul\":21013:21017   */\n      dup4\n        /* \"#utility.yul\":20994:21023   */\n      tag_228\n      jump\t// in\n    tag_447:\n        /* \"#utility.yul\":20986:21023   */\n      swap2\n      pop\n        /* \"#utility.yul\":21056:21059   */\n      dup3\n        /* \"#utility.yul\":21053:21054   */\n      0x02\n        /* \"#utility.yul\":21049:21060   */\n      mul\n        /* \"#utility.yul\":21043:21047   */\n      dup3\n        /* \"#utility.yul\":21040:21061   */\n      or\n        /* \"#utility.yul\":21032:21061   */\n      swap1\n      pop\n        /* \"#utility.yul\":20772:21067   */\n      swap3\n      swap2\n      pop\n      pop\n      jump\t// out\n        /* \"#utility.yul\":21072:22475   */\n    tag_88:\n        /* \"#utility.yul\":21196:21240   */\n      tag_449\n        /* \"#utility.yul\":21236:21239   */\n      dup4\n        /* \"#utility.yul\":21231:21234   */\n      dup4\n        /* \"#utility.yul\":21196:21240   */\n      tag_213\n      jump\t// in\n    tag_449:\n        /* \"#utility.yul\":21305:21323   */\n      0xffffffffffffffff\n        /* \"#utility.yul\":21297:21303   */\n      dup2\n        /* \"#utility.yul\":21294:21324   */\n      gt\n        /* \"#utility.yul\":21291:21347   */\n      iszero\n      tag_450\n      jumpi\n        /* \"#utility.yul\":21327:21345   */\n      tag_451\n      tag_119\n      jump\t// in\n    tag_451:\n        /* \"#utility.yul\":21291:21347   */\n    tag_450:\n        /* \"#utility.yul\":21371:21409   */\n      tag_452\n        /* \"#utility.yul\":21403:21407   */\n      dup3\n        /* \"#utility.yul\":21397:21408   */\n      sload\n        /* \"#utility.yul\":21371:21409   */\n      tag_100\n      jump\t// in\n    tag_452:\n        /* \"#utility.yul\":21456:21523   */\n      tag_453\n        /* \"#utility.yul\":21516:21522   */\n      dup3\n        /* \"#utility.yul\":21508:21514   */\n      dup3\n        /* \"#utility.yul\":21502:21506   */\n      dup6\n        /* \"#utility.yul\":21456:21523   */\n      tag_226\n      jump\t// in\n    tag_453:\n        /* \"#utility.yul\":21550:21551   */\n      0x00\n        /* \"#utility.yul\":21579:21581   */\n      0x1f\n        /* \"#utility.yul\":21571:21577   */\n      dup4\n        /* \"#utility.yul\":21568:21582   */\n      gt\n        /* \"#utility.yul\":21596:21597   */\n      0x01\n        /* \"#utility.yul\":21591:22223   */\n      dup2\n      eq\n      tag_455\n      jumpi\n        /* \"#utility.yul\":22267:22268   */\n      0x00\n        /* \"#utility.yul\":22284:22290   */\n      dup5\n        /* \"#utility.yul\":22281:22365   */\n      iszero\n      tag_456\n      jumpi\n        /* \"#utility.yul\":22340:22349   */\n      dup3\n        /* \"#utility.yul\":22335:22338   */\n      dup8\n        /* \"#utility.yul\":22331:22350   */\n      add\n        /* \"#utility.yul\":22318:22351   */\n      calldataload\n        /* \"#utility.yul\":22309:22351   */\n      swap1\n      pop\n        /* \"#utility.yul\":22281:22365   */\n    tag_456:\n        /* \"#utility.yul\":22391:22458   */\n      tag_457\n        /* \"#utility.yul\":22451:22457   */\n      dup6\n        /* \"#utility.yul\":22444:22449   */\n      dup3\n        /* \"#utility.yul\":22391:22458   */\n      tag_229\n      jump\t// in\n    tag_457:\n        /* \"#utility.yul\":22385:22389   */\n      dup7\n        /* \"#utility.yul\":22378:22459   */\n      sstore\n        /* \"#utility.yul\":22240:22469   */\n      pop\n        /* \"#utility.yul\":21561:22469   */\n      jump(tag_454)\n        /* \"#utility.yul\":21591:22223   */\n    tag_455:\n        /* \"#utility.yul\":21643:21647   */\n      0x1f\n        /* \"#utility.yul\":21639:21648   */\n      not\n        /* \"#utility.yul\":21631:21637   */\n      dup5\n        /* \"#utility.yul\":21627:21649   */\n      and\n        /* \"#utility.yul\":21677:21714   */\n      tag_458\n        /* \"#utility.yul\":21709:21713   */\n      dup7\n        /* \"#utility.yul\":21677:21714   */\n      tag_215\n      jump\t// in\n    tag_458:\n        /* \"#utility.yul\":21736:21737   */\n      0x00\n        /* \"#utility.yul\":21750:21965   */\n    tag_459:\n        /* \"#utility.yul\":21764:21771   */\n      dup3\n        /* \"#utility.yul\":21761:21762   */\n      dup2\n        /* \"#utility.yul\":21758:21772   */\n      lt\n        /* \"#utility.yul\":21750:21965   */\n      iszero\n      tag_461\n      jumpi\n        /* \"#utility.yul\":21850:21859   */\n      dup5\n        /* \"#utility.yul\":21845:21848   */\n      dup10\n        /* \"#utility.yul\":21841:21860   */\n      add\n        /* \"#utility.yul\":21828:21861   */\n      calldataload\n        /* \"#utility.yul\":21820:21826   */\n      dup3\n        /* \"#utility.yul\":21813:21862   */\n      sstore\n        /* \"#utility.yul\":21901:21902   */\n      0x01\n        /* \"#utility.yul\":21893:21899   */\n      dup3\n        /* \"#utility.yul\":21889:21903   */\n      add\n        /* \"#utility.yul\":21879:21903   */\n      swap2\n      pop\n        /* \"#utility.yul\":21948:21950   */\n      0x20\n        /* \"#utility.yul\":21937:21946   */\n      dup6\n        /* \"#utility.yul\":21933:21951   */\n      add\n        /* \"#utility.yul\":21920:21951   */\n      swap5\n      pop\n        /* \"#utility.yul\":21787:21791   */\n      0x20\n        /* \"#utility.yul\":21784:21785   */\n      dup2\n        /* \"#utility.yul\":21780:21792   */\n      add\n        /* \"#utility.yul\":21775:21792   */\n      swap1\n      pop\n        /* \"#utility.yul\":21750:21965   */\n      jump(tag_459)\n    tag_461:\n        /* \"#utility.yul\":21993:21999   */\n      dup7\n        /* \"#utility.yul\":21984:21991   */\n      dup4\n        /* \"#utility.yul\":21981:22000   */\n      lt\n        /* \"#utility.yul\":21978:22164   */\n      iszero\n      tag_462\n      jumpi\n        /* \"#utility.yul\":22058:22067   */\n      dup5\n        /* \"#utility.yul\":22053:22056   */\n      dup10\n        /* \"#utility.yul\":22049:22068   */\n      add\n        /* \"#utility.yul\":22036:22069   */\n      calldataload\n        /* \"#utility.yul\":22101:22149   */\n      tag_463\n        /* \"#utility.yul\":22143:22147   */\n      0x1f\n        /* \"#utility.yul\":22135:22141   */\n      dup10\n        /* \"#utility.yul\":22131:22148   */\n      and\n        /* \"#utility.yul\":22120:22129   */\n      dup3\n        /* \"#utility.yul\":22101:22149   */\n      tag_228\n      jump\t// in\n    tag_463:\n        /* \"#utility.yul\":22093:22099   */\n      dup4\n        /* \"#utility.yul\":22086:22150   */\n      sstore\n        /* \"#utility.yul\":22001:22164   */\n      pop\n        /* \"#utility.yul\":21978:22164   */\n    tag_462:\n        /* \"#utility.yul\":22210:22211   */\n      0x01\n        /* \"#utility.yul\":22206:22207   */\n      0x02\n        /* \"#utility.yul\":22198:22204   */\n      dup9\n        /* \"#utility.yul\":22194:22208   */\n      mul\n        /* \"#utility.yul\":22190:22212   */\n      add\n        /* \"#utility.yul\":22184:22188   */\n      dup9\n        /* \"#utility.yul\":22177:22213   */\n      sstore\n        /* \"#utility.yul\":21598:22223   */\n      pop\n      pop\n      pop\n        /* \"#utility.yul\":21561:22469   */\n    tag_454:\n      pop\n        /* \"#utility.yul\":21171:22475   */\n      pop\n      pop\n      pop\n        /* \"#utility.yul\":21072:22475   */\n      pop\n      pop\n      pop\n      jump\t// out\n        /* \"#utility.yul\":22481:22703   */\n    tag_91:\n        /* \"#utility.yul\":22574:22578   */\n      0x00\n        /* \"#utility.yul\":22612:22614   */\n      0x20\n        /* \"#utility.yul\":22601:22610   */\n      dup3\n        /* \"#utility.yul\":22597:22615   */\n      add\n        /* \"#utility.yul\":22589:22615   */\n      swap1\n      pop\n        /* \"#utility.yul\":22625:22696   */\n      tag_465\n        /* \"#utility.yul\":22693:22694   */\n      0x00\n        /* \"#utility.yul\":22682:22691   */\n      dup4\n        /* \"#utility.yul\":22678:22695   */\n      add\n        /* \"#utility.yul\":22669:22675   */\n      dup5\n        /* \"#utility.yul\":22625:22696   */\n      tag_180\n      jump\t// in\n    tag_465:\n        /* \"#utility.yul\":22481:22703   */\n      swap3\n      swap2\n      pop\n      pop\n      jump\t// out\n        /* \"#utility.yul\":22709:22881   */\n    tag_230:\n        /* \"#utility.yul\":22849:22873   */\n      0x73747564656e74206e6f74207265676973746572656400000000000000000000\n        /* \"#utility.yul\":22845:22846   */\n      0x00\n        /* \"#utility.yul\":22837:22843   */\n      dup3\n        /* \"#utility.yul\":22833:22847   */\n      add\n        /* \"#utility.yul\":22826:22874   */\n      mstore\n        /* \"#utility.yul\":22709:22881   */\n      pop\n      jump\t// out\n        /* \"#utility.yul\":22887:23253   */\n    tag_231:\n        /* \"#utility.yul\":23029:23032   */\n      0x00\n        /* \"#utility.yul\":23050:23117   */\n      tag_468\n        /* \"#utility.yul\":23114:23116   */\n      0x16\n        /* \"#utility.yul\":23109:23112   */\n      dup4\n        /* \"#utility.yul\":23050:23117   */\n      tag_200\n      jump\t// in\n    tag_468:\n        /* \"#utility.yul\":23043:23117   */\n      swap2\n      pop\n        /* \"#utility.yul\":23126:23219   */\n      tag_469\n        /* \"#utility.yul\":23215:23218   */\n      dup3\n        /* \"#utility.yul\":23126:23219   */\n      tag_230\n      jump\t// in\n    tag_469:\n        /* \"#utility.yul\":23244:23246   */\n      0x20\n        /* \"#utility.yul\":23239:23242   */\n      dup3\n        /* \"#utility.yul\":23235:23247   */\n      add\n        /* \"#utility.yul\":23228:23247   */\n      swap1\n      pop\n        /* \"#utility.yul\":22887:23253   */\n      swap2\n      swap1\n      pop\n      jump\t// out\n        /* \"#utility.yul\":23259:23678   */\n    tag_107:\n        /* \"#utility.yul\":23425:23429   */\n      0x00\n        /* \"#utility.yul\":23463:23465   */\n      0x20\n        /* \"#utility.yul\":23452:23461   */\n      dup3\n        /* \"#utility.yul\":23448:23466   */\n      add\n        /* \"#utility.yul\":23440:23466   */\n      swap1\n      pop\n        /* \"#utility.yul\":23512:23521   */\n      dup2\n        /* \"#utility.yul\":23506:23510   */\n      dup2\n        /* \"#utility.yul\":23502:23522   */\n      sub\n        /* \"#utility.yul\":23498:23499   */\n      0x00\n        /* \"#utility.yul\":23487:23496   */\n      dup4\n        /* \"#utility.yul\":23483:23500   */\n      add\n        /* \"#utility.yul\":23476:23523   */\n      mstore\n        /* \"#utility.yul\":23540:23671   */\n      tag_471\n        /* \"#utility.yul\":23666:23670   */\n      dup2\n        /* \"#utility.yul\":23540:23671   */\n      tag_231\n      jump\t// in\n    tag_471:\n        /* \"#utility.yul\":23532:23671   */\n      swap1\n      pop\n        /* \"#utility.yul\":23259:23678   */\n      swap2\n      swap1\n      pop\n      jump\t// out\n        /* \"#utility.yul\":23684:23849   */\n    tag_232:\n        /* \"#utility.yul\":23824:23841   */\n      0x77616c6c6574206d69736d617463680000000000000000000000000000000000\n        /* \"#utility.yul\":23820:23821   */\n      0x00\n        /* \"#utility.yul\":23812:23818   */\n      dup3\n        /* \"#utility.yul\":23808:23822   */\n      add\n        /* \"#utility.yul\":23801:23842   */\n      mstore\n        /* \"#utility.yul\":23684:23849   */\n      pop\n      jump\t// out\n        /* \"#utility.yul\":23855:24221   */\n    tag_233:\n        /* \"#utility.yul\":23997:24000   */\n      0x00\n        /* \"#utility.yul\":24018:24085   */\n      tag_474\n        /* \"#utility.yul\":24082:24084   */\n      0x0f\n        /* \"#utility.yul\":24077:24080   */\n      dup4\n        /* \"#utility.yul\":24018:24085   */\n      tag_200\n      jump\t// in\n    tag_474:\n        /* \"#utility.yul\":24011:24085   */\n      swap2\n      pop\n        /* \"#utility.yul\":24094:24187   */\n      tag_475\n        /* \"#utility.yul\":24183:24186   */\n      dup3\n        /* \"#utility.yul\":24094:24187   */\n      tag_232\n      jump\t// in\n    tag_475:\n        /* \"#utility.yul\":24212:24214   */\n      0x20\n        /* \"#utility.yul\":24207:24210   */\n      dup3\n        /* \"#utility.yul\":24203:24215   */\n      add\n        /* \"#utility.yul\":24196:24215   */\n      swap1\n      pop\n        /* \"#utility.yul\":23855:24221   */\n      swap2\n      swap1\n      pop\n      jump\t// out\n        /* \"#utility.yul\":24227:24646   */\n    tag_110:\n        /* \"#utility.yul\":24393:24397   */\n      0x00\n        /* \"#utility.yul\":24431:24433   */\n      0x20\n        /* \"#utility.yul\":24420:24429   */\n      dup3\n        /* \"#utility.yul\":24416:24434   */\n      add\n        /* \"#utility.yul\":24408:24434   */\n      swap1\n      pop\n        /* \"#utility.yul\":24480:24489   */\n      dup2\n        /* \"#utility.yul\":24474:24478   */\n      dup2\n        /* \"#utility.yul\":24470:24490   */\n      sub\n        /* \"#utility.yul\":24466:24467   */\n      0x00\n        /* \"#utility.yul\":24455:24464   */\n      dup4\n        /* \"#utility.yul\":24451:24468   */\n      add\n        /* \"#utility.yul\":24444:24491   */\n      mstore\n        /* \"#utility.yul\":24508:24639   */\n      tag_477\n        /* \"#utility.yul\":24634:24638   */\n      dup2\n        /* \"#utility.yul\":24508:24639   */\n      tag_233\n      jump\t// in\n    tag_477:\n        /* \"#utility.yul\":24500:24639   */\n      swap1\n      pop\n        /* \"#utility.yul\":24227:24646   */\n      swap2\n      swap1\n      pop\n      jump\t// out\n        /* \"#utility.yul\":24652:24972   */\n    tag_115:\n        /* \"#utility.yul\":24767:24771   */\n      0x00\n        /* \"#utility.yul\":24805:24807   */\n      0x40\n        /* \"#utility.yul\":24794:24803   */\n      dup3\n        /* \"#utility.yul\":24790:24808   */\n      add\n        /* \"#utility.yul\":24782:24808   */\n      swap1\n      pop\n        /* \"#utility.yul\":24818:24889   */\n      tag_479\n        /* \"#utility.yul\":24886:24887   */\n      0x00\n        /* \"#utility.yul\":24875:24884   */\n      dup4\n        /* \"#utility.yul\":24871:24888   */\n      add\n        /* \"#utility.yul\":24862:24868   */\n      dup6\n        /* \"#utility.yul\":24818:24889   */\n      tag_180\n      jump\t// in\n    tag_479:\n        /* \"#utility.yul\":24899:24965   */\n      tag_480\n        /* \"#utility.yul\":24961:24963   */\n      0x20\n        /* \"#utility.yul\":24950:24959   */\n      dup4\n        /* \"#utility.yul\":24946:24964   */\n      add\n        /* \"#utility.yul\":24937:24943   */\n      dup5\n        /* \"#utility.yul\":24899:24965   */\n      tag_179\n      jump\t// in\n    tag_480:\n        /* \"#utility.yul\":24652:24972   */\n      swap4\n      swap3\n      pop\n      pop\n      pop\n      jump\t// out\n        /* \"#utility.yul\":24978:25158   */\n    tag_130:\n        /* \"#utility.yul\":25026:25103   */\n      0x4e487b7100000000000000000000000000000000000000000000000000000000\n        /* \"#utility.yul\":25023:25024   */\n      0x00\n        /* \"#utility.yul\":25016:25104   */\n      mstore\n        /* \"#utility.yul\":25123:25127   */\n      0x32\n        /* \"#utility.yul\":25120:25121   */\n      0x04\n        /* \"#utility.yul\":25113:25128   */\n      mstore\n        /* \"#utility.yul\":25147:25151   */\n      0x24\n        /* \"#utility.yul\":25144:25145   */\n      0x00\n        /* \"#utility.yul\":25137:25152   */\n      revert\n\n    auxdata: 0xa2646970667358221220eb47875fbcb88705c8be8f9666a874e4db0ce84efe9835da7a52a8bf48555d4764736f6c634300081e0033\n}\n",
				"bytecode": {
					"linkReferences": {},
					"object": "6080604052348015600e575f5ffd5b50335f5f6101000a81548173ffffffffffffffffffffffffffffffffffffffff021916908373ffffffffffffffffffffffffffffffffffffffff160217905550611d9e8061005b5f395ff3fe608060405234801561000f575f5ffd5b50600436106100b2575f3560e01c80638da5cb5b1161006f5780638da5cb5b14610188578063aec37eb3146101a6578063c822d7f0146101d6578063d029661214610206578063f2fde38b14610238578063f6705d6e14610254576100b2565b80633bc6e309146100b65780634282c686146100d2578063528bcbac1461010357806352ff68461461011f5780637a3cacdc1461013b57806385bbdb4a14610157575b5f5ffd5b6100d060048036038101906100cb919061118c565b610270565b005b6100ec60048036038101906100e7919061124b565b610406565b6040516100fa9291906112d1565b60405180910390f35b61011d600480360381019061011891906112f8565b610480565b005b6101396004803603810190610134919061118c565b61069f565b005b6101556004803603810190610150919061137f565b6107bf565b005b610171600480360381019061016c9190611445565b610a7d565b60405161017f929190611631565b60405180910390f35b610190610c2e565b60405161019d9190611675565b60405180910390f35b6101c060048036038101906101bb919061118c565b610c52565b6040516101cd919061168e565b60405180910390f35b6101f060048036038101906101eb91906116a7565b610c6f565b6040516101fd919061168e565b60405180910390f35b610220600480360381019061021b91906116a7565b610c9f565b60405161022f93929190611762565b60405180910390f35b610252600480360381019061024d919061118c565b610ddb565b005b61026e6004803603810190610269919061137f565b610f19565b005b5f5f9054906101000a900473ffffffffffffffffffffffffffffffffffffffff1673ffffffffffffffffffffffffffffffffffffffff163373ffffffffffffffffffffffffffffffffffffffff16146102fe576040517f08c379a00000000000000000000000000000000000000000000000000000000081526004016102f5906117e8565b60405180910390fd5b5f73ffffffffffffffffffffffffffffffffffffffff168173ffffffffffffffffffffffffffffffffffffffff160361036c576040517f08c379a000000000000000000000000000000000000000000000000000000000815260040161036390611850565b60405180910390fd5b6001805f8373ffffffffffffffffffffffffffffffffffffffff1673ffffffffffffffffffffffffffffffffffffffff1681526020019081526020015f205f6101000a81548160ff0219169083151502179055508073ffffffffffffffffffffffffffffffffffffffff167f04e1c63d2b2fafca3496ea9c3f23b77835b9a91f5d74802ced76b7f929b3265e60405160405180910390a250565b5f5f6003858560405161041a9291906118aa565b90815260200160405180910390205f8481526020019081526020015f205f9054906101000a900460ff16600486866040516104569291906118aa565b90815260200160405180910390205f8581526020019081526020015f205491509150935093915050565b60015f3373ffffffffffffffffffffffffffffffffffffffff1673ffffffffffffffffffffffffffffffffffffffff1681526020019081526020015f205f9054906101000a900460ff168061052057505f5f9054906101000a900473ffffffffffffffffffffffffffffffffffffffff1673ffffffffffffffffffffffffffffffffffffffff163373ffffffffffffffffffffffffffffffffffffffff16145b61055f576040517f08c379a00000000000000000000000000000000000000000000000000000000081526004016105569061190c565b60405180910390fd5b5f600284846040516105729291906118aa565b908152602001604051809103902090505f816002015403610656578383825f01918261059f929190611b5e565b5081816001015f6101000a81548173ffffffffffffffffffffffffffffffffffffffff021916908373ffffffffffffffffffffffffffffffffffffffff1602179055504281600201819055508173ffffffffffffffffffffffffffffffffffffffff1684846040516106129291906118aa565b60405180910390207f1ca227814cecb0d4e3b9a4c4d202ce03ab7b5b8e8df99ab1471550f72d668270426040516106499190611c2b565b60405180910390a3610699565b81816001015f6101000a81548173ffffffffffffffffffffffffffffffffffffffff021916908373ffffffffffffffffffffffffffffffffffffffff1602179055505b50505050565b5f5f9054906101000a900473ffffffffffffffffffffffffffffffffffffffff1673ffffffffffffffffffffffffffffffffffffffff163373ffffffffffffffffffffffffffffffffffffffff161461072d576040517f08c379a0000000000000000000000000000000000000000000000000000000008152600401610724906117e8565b60405180910390fd5b60015f8273ffffffffffffffffffffffffffffffffffffffff1673ffffffffffffffffffffffffffffffffffffffff1681526020019081526020015f205f6101000a81549060ff02191690558073ffffffffffffffffffffffffffffffffffffffff167f024a5dd50126818a1d488f90df37ad02592196a4ea744aff479981813929773460405160405180910390a250565b5f600285856040516107d29291906118aa565b90815260200160405180910390206040518060600160405290815f820180546107fa9061198e565b80601f01602080910402602001604051908101604052809291908181526020018280546108269061198e565b80156108715780601f1061084857610100808354040283529160200191610871565b820191905f5260205f20905b81548152906001019060200180831161085457829003601f168201915b50505050508152602001600182015f9054906101000a900473ffffffffffffffffffffffffffffffffffffffff1673ffffffffffffffffffffffffffffffffffffffff1673ffffffffffffffffffffffffffffffffffffffff16815260200160028201548152505090505f816040015103610921576040517f08c379a000000000000000000000000000000000000000000000000000000000815260040161091890611c8e565b60405180910390fd5b3373ffffffffffffffffffffffffffffffffffffffff16816020015173ffffffffffffffffffffffffffffffffffffffff1614610993576040517f08c379a000000000000000000000000000000000000000000000000000000000815260040161098a90611cf6565b60405180910390fd5b81600386866040516109a69291906118aa565b90815260200160405180910390205f8581526020019081526020015f205f6101000a81548160ff02191690831515021790555042600486866040516109ec9291906118aa565b90815260200160405180910390205f8581526020019081526020015f20819055503373ffffffffffffffffffffffffffffffffffffffff16838686604051610a359291906118aa565b60405180910390207fad81d6c88e64aef25d56ec488d23e480633131c75ab8bb4acea9e88daf7e76fc4286604051610a6e929190611d14565b60405180910390a45050505050565b6060805f8484905090505f8167ffffffffffffffff811115610aa257610aa1611934565b5b604051908082528060200260200182016040528015610ad05781602001602082028036833780820191505090505b5090505f8267ffffffffffffffff811115610aee57610aed611934565b5b604051908082528060200260200182016040528015610b1c5781602001602082028036833780820191505090505b5090505f5f90505b83811015610c1b5760038a8a604051610b3e9291906118aa565b90815260200160405180910390205f898984818110610b6057610b5f611d3b565b5b9050602002013581526020019081526020015f205f9054906101000a900460ff16838281518110610b9457610b93611d3b565b5b60200260200101901515908115158152505060048a8a604051610bb89291906118aa565b90815260200160405180910390205f898984818110610bda57610bd9611d3b565b5b9050602002013581526020019081526020015f2054828281518110610c0257610c01611d3b565b5b6020026020010181815250508080600101915050610b24565b5081819450945050505094509492505050565b5f5f9054906101000a900473ffffffffffffffffffffffffffffffffffffffff1681565b6001602052805f5260405f205f915054906101000a900460ff1681565b5f5f60028484604051610c839291906118aa565b9081526020016040518091039020600201541415905092915050565b60605f5f5f60028686604051610cb69291906118aa565b90815260200160405180910390206040518060600160405290815f82018054610cde9061198e565b80601f0160208091040260200160405190810160405280929190818152602001828054610d0a9061198e565b8015610d555780601f10610d2c57610100808354040283529160200191610d55565b820191905f5260205f20905b815481529060010190602001808311610d3857829003601f168201915b50505050508152602001600182015f9054906101000a900473ffffffffffffffffffffffffffffffffffffffff1673ffffffffffffffffffffffffffffffffffffffff1673ffffffffffffffffffffffffffffffffffffffff1681526020016002820154815250509050805f015181602001518260400151935093509350509250925092565b5f5f9054906101000a900473ffffffffffffffffffffffffffffffffffffffff1673ffffffffffffffffffffffffffffffffffffffff163373ffffffffffffffffffffffffffffffffffffffff1614610e69576040517f08c379a0000000000000000000000000000000000000000000000000000000008152600401610e60906117e8565b60405180910390fd5b5f73ffffffffffffffffffffffffffffffffffffffff168173ffffffffffffffffffffffffffffffffffffffff1603610ed7576040517f08c379a0000000000000000000000000000000000000000000000000000000008152600401610ece90611850565b60405180910390fd5b805f5f6101000a81548173ffffffffffffffffffffffffffffffffffffffff021916908373ffffffffffffffffffffffffffffffffffffffff16021790555050565b60015f3373ffffffffffffffffffffffffffffffffffffffff1673ffffffffffffffffffffffffffffffffffffffff1681526020019081526020015f205f9054906101000a900460ff1680610fb957505f5f9054906101000a900473ffffffffffffffffffffffffffffffffffffffff1673ffffffffffffffffffffffffffffffffffffffff163373ffffffffffffffffffffffffffffffffffffffff16145b610ff8576040517f08c379a0000000000000000000000000000000000000000000000000000000008152600401610fef9061190c565b60405180910390fd5b6110028484610c6f565b611041576040517f08c379a000000000000000000000000000000000000000000000000000000000815260040161103890611c8e565b60405180910390fd5b80600385856040516110549291906118aa565b90815260200160405180910390205f8481526020019081526020015f205f6101000a81548160ff021916908315150217905550426004858560405161109a9291906118aa565b90815260200160405180910390205f8481526020019081526020015f20819055503373ffffffffffffffffffffffffffffffffffffffff168285856040516110e39291906118aa565b60405180910390207fad81d6c88e64aef25d56ec488d23e480633131c75ab8bb4acea9e88daf7e76fc428560405161111c929190611d14565b60405180910390a450505050565b5f5ffd5b5f5ffd5b5f73ffffffffffffffffffffffffffffffffffffffff82169050919050565b5f61115b82611132565b9050919050565b61116b81611151565b8114611175575f5ffd5b50565b5f8135905061118681611162565b92915050565b5f602082840312156111a1576111a061112a565b5b5f6111ae84828501611178565b91505092915050565b5f5ffd5b5f5ffd5b5f5ffd5b5f5f83601f8401126111d8576111d76111b7565b5b8235905067ffffffffffffffff8111156111f5576111f46111bb565b5b602083019150836001820283011115611211576112106111bf565b5b9250929050565b5f819050919050565b61122a81611218565b8114611234575f5ffd5b50565b5f8135905061124581611221565b92915050565b5f5f5f604084860312156112625761126161112a565b5b5f84013567ffffffffffffffff81111561127f5761127e61112e565b5b61128b868287016111c3565b9350935050602061129e86828701611237565b9150509250925092565b5f8115159050919050565b6112bc816112a8565b82525050565b6112cb81611218565b82525050565b5f6040820190506112e45f8301856112b3565b6112f160208301846112c2565b9392505050565b5f5f5f6040848603121561130f5761130e61112a565b5b5f84013567ffffffffffffffff81111561132c5761132b61112e565b5b611338868287016111c3565b9350935050602061134b86828701611178565b9150509250925092565b61135e816112a8565b8114611368575f5ffd5b50565b5f8135905061137981611355565b92915050565b5f5f5f5f606085870312156113975761139661112a565b5b5f85013567ffffffffffffffff8111156113b4576113b361112e565b5b6113c0878288016111c3565b945094505060206113d387828801611237565b92505060406113e48782880161136b565b91505092959194509250565b5f5f83601f840112611405576114046111b7565b5b8235905067ffffffffffffffff811115611422576114216111bb565b5b60208301915083602082028301111561143e5761143d6111bf565b5b9250929050565b5f5f5f5f6040858703121561145d5761145c61112a565b5b5f85013567ffffffffffffffff81111561147a5761147961112e565b5b611486878288016111c3565b9450945050602085013567ffffffffffffffff8111156114a9576114a861112e565b5b6114b5878288016113f0565b925092505092959194509250565b5f81519050919050565b5f82825260208201905092915050565b5f819050602082019050919050565b6114f5816112a8565b82525050565b5f61150683836114ec565b60208301905092915050565b5f602082019050919050565b5f611528826114c3565b61153281856114cd565b935061153d836114dd565b805f5b8381101561156d57815161155488826114fb565b975061155f83611512565b925050600181019050611540565b5085935050505092915050565b5f81519050919050565b5f82825260208201905092915050565b5f819050602082019050919050565b6115ac81611218565b82525050565b5f6115bd83836115a3565b60208301905092915050565b5f602082019050919050565b5f6115df8261157a565b6115e98185611584565b93506115f483611594565b805f5b8381101561162457815161160b88826115b2565b9750611616836115c9565b9250506001810190506115f7565b5085935050505092915050565b5f6040820190508181035f830152611649818561151e565b9050818103602083015261165d81846115d5565b90509392505050565b61166f81611151565b82525050565b5f6020820190506116885f830184611666565b92915050565b5f6020820190506116a15f8301846112b3565b92915050565b5f5f602083850312156116bd576116bc61112a565b5b5f83013567ffffffffffffffff8111156116da576116d961112e565b5b6116e6858286016111c3565b92509250509250929050565b5f81519050919050565b5f82825260208201905092915050565b8281835e5f83830152505050565b5f601f19601f8301169050919050565b5f611734826116f2565b61173e81856116fc565b935061174e81856020860161170c565b6117578161171a565b840191505092915050565b5f6060820190508181035f83015261177a818661172a565b90506117896020830185611666565b61179660408301846112c2565b949350505050565b7f6f6e6c79206f776e6572000000000000000000000000000000000000000000005f82015250565b5f6117d2600a836116fc565b91506117dd8261179e565b602082019050919050565b5f6020820190508181035f8301526117ff816117c6565b9050919050565b7f7a65726f206164647265737300000000000000000000000000000000000000005f82015250565b5f61183a600c836116fc565b915061184582611806565b602082019050919050565b5f6020820190508181035f8301526118678161182e565b9050919050565b5f81905092915050565b828183375f83830152505050565b5f611891838561186e565b935061189e838584611878565b82840190509392505050565b5f6118b6828486611886565b91508190509392505050565b7f6e6f7420617574686f72697a65640000000000000000000000000000000000005f82015250565b5f6118f6600e836116fc565b9150611901826118c2565b602082019050919050565b5f6020820190508181035f830152611923816118ea565b9050919050565b5f82905092915050565b7f4e487b71000000000000000000000000000000000000000000000000000000005f52604160045260245ffd5b7f4e487b71000000000000000000000000000000000000000000000000000000005f52602260045260245ffd5b5f60028204905060018216806119a557607f821691505b6020821081036119b8576119b7611961565b5b50919050565b5f819050815f5260205f209050919050565b5f6020601f8301049050919050565b5f82821b905092915050565b5f60088302611a1a7fffffffffffffffffffffffffffffffffffffffffffffffffffffffffffffffff826119df565b611a2486836119df565b95508019841693508086168417925050509392505050565b5f819050919050565b5f611a5f611a5a611a5584611218565b611a3c565b611218565b9050919050565b5f819050919050565b611a7883611a45565b611a8c611a8482611a66565b8484546119eb565b825550505050565b5f5f905090565b611aa3611a94565b611aae818484611a6f565b505050565b5b81811015611ad157611ac65f82611a9b565b600181019050611ab4565b5050565b601f821115611b1657611ae7816119be565b611af0846119d0565b81016020851015611aff578190505b611b13611b0b856119d0565b830182611ab3565b50505b505050565b5f82821c905092915050565b5f611b365f1984600802611b1b565b1980831691505092915050565b5f611b4e8383611b27565b9150826002028217905092915050565b611b68838361192a565b67ffffffffffffffff811115611b8157611b80611934565b5b611b8b825461198e565b611b96828285611ad5565b5f601f831160018114611bc3575f8415611bb1578287013590505b611bbb8582611b43565b865550611c22565b601f198416611bd1866119be565b5f5b82811015611bf857848901358255600182019150602085019450602081019050611bd3565b86831015611c155784890135611c11601f891682611b27565b8355505b6001600288020188555050505b50505050505050565b5f602082019050611c3e5f8301846112c2565b92915050565b7f73747564656e74206e6f742072656769737465726564000000000000000000005f82015250565b5f611c786016836116fc565b9150611c8382611c44565b602082019050919050565b5f6020820190508181035f830152611ca581611c6c565b9050919050565b7f77616c6c6574206d69736d6174636800000000000000000000000000000000005f82015250565b5f611ce0600f836116fc565b9150611ceb82611cac565b602082019050919050565b5f6020820190508181035f830152611d0d81611cd4565b9050919050565b5f604082019050611d275f8301856112c2565b611d3460208301846112b3565b9392505050565b7f4e487b71000000000000000000000000000000000000000000000000000000005f52603260045260245ffdfea2646970667358221220eb47875fbcb88705c8be8f9666a874e4db0ce84efe9835da7a52a8bf48555d4764736f6c634300081e0033",
					"opcodes": "PUSH1 0x80 PUSH1 0x40 MSTORE CALLVALUE DUP1 ISZERO PUSH1 0xE JUMPI PUSH0 PUSH0 REVERT JUMPDEST POP CALLER PUSH0 PUSH0 PUSH2 0x100 EXP DUP2 SLOAD DUP2 PUSH20 0xFFFFFFFFFFFFFFFFFFFFFFFFFFFFFFFFFFFFFFFF MUL NOT AND SWAP1 DUP4 PUSH20 0xFFFFFFFFFFFFFFFFFFFFFFFFFFFFFFFFFFFFFFFF AND MUL OR SWAP1 SSTORE POP PUSH2 0x1D9E DUP1 PUSH2 0x5B PUSH0 CODECOPY PUSH0 RETURN INVALID PUSH1 0x80 PUSH1 0x40 MSTORE CALLVALUE DUP1 ISZERO PUSH2 0xF JUMPI PUSH0 PUSH0 REVERT JUMPDEST POP PUSH1 0x4 CALLDATASIZE LT PUSH2 0xB2 JUMPI PUSH0 CALLDATALOAD PUSH1 0xE0 SHR DUP1 PUSH4 0x8DA5CB5B GT PUSH2 0x6F JUMPI DUP1 PUSH4 0x8DA5CB5B EQ PUSH2 0x188 JUMPI DUP1 PUSH4 0xAEC37EB3 EQ PUSH2 0x1A6 JUMPI DUP1 PUSH4 0xC822D7F0 EQ PUSH2 0x1D6 JUMPI DUP1 PUSH4 0xD0296612 EQ PUSH2 0x206 JUMPI DUP1 PUSH4 0xF2FDE38B EQ PUSH2 0x238 JUMPI DUP1 PUSH4 0xF6705D6E EQ PUSH2 0x254 JUMPI PUSH2 0xB2 JUMP JUMPDEST DUP1 PUSH4 0x3BC6E309 EQ PUSH2 0xB6 JUMPI DUP1 PUSH4 0x4282C686 EQ PUSH2 0xD2 JUMPI DUP1 PUSH4 0x528BCBAC EQ PUSH2 0x103 JUMPI DUP1 PUSH4 0x52FF6846 EQ PUSH2 0x11F JUMPI DUP1 PUSH4 0x7A3CACDC EQ PUSH2 0x13B JUMPI DUP1 PUSH4 0x85BBDB4A EQ PUSH2 0x157 JUMPI JUMPDEST PUSH0 PUSH0 REVERT JUMPDEST PUSH2 0xD0 PUSH1 0x4 DUP1 CALLDATASIZE SUB DUP2 ADD SWAP1 PUSH2 0xCB SWAP2 SWAP1 PUSH2 0x118C JUMP JUMPDEST PUSH2 0x270 JUMP JUMPDEST STOP JUMPDEST PUSH2 0xEC PUSH1 0x4 DUP1 CALLDATASIZE SUB DUP2 ADD SWAP1 PUSH2 0xE7 SWAP2 SWAP1 PUSH2 0x124B JUMP JUMPDEST PUSH2 0x406 JUMP JUMPDEST PUSH1 0x40 MLOAD PUSH2 0xFA SWAP3 SWAP2 SWAP1 PUSH2 0x12D1 JUMP JUMPDEST PUSH1 0x40 MLOAD DUP1 SWAP2 SUB SWAP1 RETURN JUMPDEST PUSH2 0x11D PUSH1 0x4 DUP1 CALLDATASIZE SUB DUP2 ADD SWAP1 PUSH2 0x118 SWAP2 SWAP1 PUSH2 0x12F8 JUMP JUMPDEST PUSH2 0x480 JUMP JUMPDEST STOP JUMPDEST PUSH2 0x139 PUSH1 0x4 DUP1 CALLDATASIZE SUB DUP2 ADD SWAP1 PUSH2 0x134 SWAP2 SWAP1 PUSH2 0x118C JUMP JUMPDEST PUSH2 0x69F JUMP JUMPDEST STOP JUMPDEST PUSH2 0x155 PUSH1 0x4 DUP1 CALLDATASIZE SUB DUP2 ADD SWAP1 PUSH2 0x150 SWAP2 SWAP1 PUSH2 0x137F JUMP JUMPDEST PUSH2 0x7BF JUMP JUMPDEST STOP JUMPDEST PUSH2 0x171 PUSH1 0x4 DUP1 CALLDATASIZE SUB DUP2 ADD SWAP1 PUSH2 0x16C SWAP2 SWAP1 PUSH2 0x1445 JUMP JUMPDEST PUSH2 0xA7D JUMP JUMPDEST PUSH1 0x40 MLOAD PUSH2 0x17F SWAP3 SWAP2 SWAP1 PUSH2 0x1631 JUMP JUMPDEST PUSH1 0x40 MLOAD DUP1 SWAP2 SUB SWAP1 RETURN JUMPDEST PUSH2 0x190 PUSH2 0xC2E JUMP JUMPDEST PUSH1 0x40 MLOAD PUSH2 0x19D SWAP2 SWAP1 PUSH2 0x1675 JUMP JUMPDEST PUSH1 0x40 MLOAD DUP1 SWAP2 SUB SWAP1 RETURN JUMPDEST PUSH2 0x1C0 PUSH1 0x4 DUP1 CALLDATASIZE SUB DUP2 ADD SWAP1 PUSH2 0x1BB SWAP2 SWAP1 PUSH2 0x118C JUMP JUMPDEST PUSH2 0xC52 JUMP JUMPDEST PUSH1 0x40 MLOAD PUSH2 0x1CD SWAP2 SWAP1 PUSH2 0x168E JUMP JUMPDEST PUSH1 0x40 MLOAD DUP1 SWAP2 SUB SWAP1 RETURN JUMPDEST PUSH2 0x1F0 PUSH1 0x4 DUP1 CALLDATASIZE SUB DUP2 ADD SWAP1 PUSH2 0x1EB SWAP2 SWAP1 PUSH2 0x16A7 JUMP JUMPDEST PUSH2 0xC6F JUMP JUMPDEST PUSH1 0x40 MLOAD PUSH2 0x1FD SWAP2 SWAP1 PUSH2 0x168E JUMP JUMPDEST PUSH1 0x40 MLOAD DUP1 SWAP2 SUB SWAP1 RETURN JUMPDEST PUSH2 0x220 PUSH1 0x4 DUP1 CALLDATASIZE SUB DUP2 ADD SWAP1 PUSH2 0x21B SWAP2 SWAP1 PUSH2 0x16A7 JUMP JUMPDEST PUSH2 0xC9F JUMP JUMPDEST PUSH1 0x40 MLOAD PUSH2 0x22F SWAP4 SWAP3 SWAP2 SWAP1 PUSH2 0x1762 JUMP JUMPDEST PUSH1 0x40 MLOAD DUP1 SWAP2 SUB SWAP1 RETURN JUMPDEST PUSH2 0x252 PUSH1 0x4 DUP1 CALLDATASIZE SUB DUP2 ADD SWAP1 PUSH2 0x24D SWAP2 SWAP1 PUSH2 0x118C JUMP JUMPDEST PUSH2 0xDDB JUMP JUMPDEST STOP JUMPDEST PUSH2 0x26E PUSH1 0x4 DUP1 CALLDATASIZE SUB DUP2 ADD SWAP1 PUSH2 0x269 SWAP2 SWAP1 PUSH2 0x137F JUMP JUMPDEST PUSH2 0xF19 JUMP JUMPDEST STOP JUMPDEST PUSH0 PUSH0 SWAP1 SLOAD SWAP1 PUSH2 0x100 EXP SWAP1 DIV PUSH20 0xFFFFFFFFFFFFFFFFFFFFFFFFFFFFFFFFFFFFFFFF AND PUSH20 0xFFFFFFFFFFFFFFFFFFFFFFFFFFFFFFFFFFFFFFFF AND CALLER PUSH20 0xFFFFFFFFFFFFFFFFFFFFFFFFFFFFFFFFFFFFFFFF AND EQ PUSH2 0x2FE JUMPI PUSH1 0x40 MLOAD PUSH32 0x8C379A000000000000000000000000000000000000000000000000000000000 DUP2 MSTORE PUSH1 0x4 ADD PUSH2 0x2F5 SWAP1 PUSH2 0x17E8 JUMP JUMPDEST PUSH1 0x40 MLOAD DUP1 SWAP2 SUB SWAP1 REVERT JUMPDEST PUSH0 PUSH20 0xFFFFFFFFFFFFFFFFFFFFFFFFFFFFFFFFFFFFFFFF AND DUP2 PUSH20 0xFFFFFFFFFFFFFFFFFFFFFFFFFFFFFFFFFFFFFFFF AND SUB PUSH2 0x36C JUMPI PUSH1 0x40 MLOAD PUSH32 0x8C379A000000000000000000000000000000000000000000000000000000000 DUP2 MSTORE PUSH1 0x4 ADD PUSH2 0x363 SWAP1 PUSH2 0x1850 JUMP JUMPDEST PUSH1 0x40 MLOAD DUP1 SWAP2 SUB SWAP1 REVERT JUMPDEST PUSH1 0x1 DUP1 PUSH0 DUP4 PUSH20 0xFFFFFFFFFFFFFFFFFFFFFFFFFFFFFFFFFFFFFFFF AND PUSH20 0xFFFFFFFFFFFFFFFFFFFFFFFFFFFFFFFFFFFFFFFF AND DUP2 MSTORE PUSH1 0x20 ADD SWAP1 DUP2 MSTORE PUSH1 0x20 ADD PUSH0 KECCAK256 PUSH0 PUSH2 0x100 EXP DUP2 SLOAD DUP2 PUSH1 0xFF MUL NOT AND SWAP1 DUP4 ISZERO ISZERO MUL OR SWAP1 SSTORE POP DUP1 PUSH20 0xFFFFFFFFFFFFFFFFFFFFFFFFFFFFFFFFFFFFFFFF AND PUSH32 0x4E1C63D2B2FAFCA3496EA9C3F23B77835B9A91F5D74802CED76B7F929B3265E PUSH1 0x40 MLOAD PUSH1 0x40 MLOAD DUP1 SWAP2 SUB SWAP1 LOG2 POP JUMP JUMPDEST PUSH0 PUSH0 PUSH1 0x3 DUP6 DUP6 PUSH1 0x40 MLOAD PUSH2 0x41A SWAP3 SWAP2 SWAP1 PUSH2 0x18AA JUMP JUMPDEST SWAP1 DUP2 MSTORE PUSH1 0x20 ADD PUSH1 0x40 MLOAD DUP1 SWAP2 SUB SWAP1 KECCAK256 PUSH0 DUP5 DUP2 MSTORE PUSH1 0x20 ADD SWAP1 DUP2 MSTORE PUSH1 0x20 ADD PUSH0 KECCAK256 PUSH0 SWAP1 SLOAD SWAP1 PUSH2 0x100 EXP SWAP1 DIV PUSH1 0xFF AND PUSH1 0x4 DUP7 DUP7 PUSH1 0x40 MLOAD PUSH2 0x456 SWAP3 SWAP2 SWAP1 PUSH2 0x18AA JUMP JUMPDEST SWAP1 DUP2 MSTORE PUSH1 0x20 ADD PUSH1 0x40 MLOAD DUP1 SWAP2 SUB SWAP1 KECCAK256 PUSH0 DUP6 DUP2 MSTORE PUSH1 0x20 ADD SWAP1 DUP2 MSTORE PUSH1 0x20 ADD PUSH0 KECCAK256 SLOAD SWAP2 POP SWAP2 POP SWAP4 POP SWAP4 SWAP2 POP POP JUMP JUMPDEST PUSH1 0x1 PUSH0 CALLER PUSH20 0xFFFFFFFFFFFFFFFFFFFFFFFFFFFFFFFFFFFFFFFF AND PUSH20 0xFFFFFFFFFFFFFFFFFFFFFFFFFFFFFFFFFFFFFFFF AND DUP2 MSTORE PUSH1 0x20 ADD SWAP1 DUP2 MSTORE PUSH1 0x20 ADD PUSH0 KECCAK256 PUSH0 SWAP1 SLOAD SWAP1 PUSH2 0x100 EXP SWAP1 DIV PUSH1 0xFF AND DUP1 PUSH2 0x520 JUMPI POP PUSH0 PUSH0 SWAP1 SLOAD SWAP1 PUSH2 0x100 EXP SWAP1 DIV PUSH20 0xFFFFFFFFFFFFFFFFFFFFFFFFFFFFFFFFFFFFFFFF AND PUSH20 0xFFFFFFFFFFFFFFFFFFFFFFFFFFFFFFFFFFFFFFFF AND CALLER PUSH20 0xFFFFFFFFFFFFFFFFFFFFFFFFFFFFFFFFFFFFFFFF AND EQ JUMPDEST PUSH2 0x55F JUMPI PUSH1 0x40 MLOAD PUSH32 0x8C379A000000000000000000000000000000000000000000000000000000000 DUP2 MSTORE PUSH1 0x4 ADD PUSH2 0x556 SWAP1 PUSH2 0x190C JUMP JUMPDEST PUSH1 0x40 MLOAD DUP1 SWAP2 SUB SWAP1 REVERT JUMPDEST PUSH0 PUSH1 0x2 DUP5 DUP5 PUSH1 0x40 MLOAD PUSH2 0x572 SWAP3 SWAP2 SWAP1 PUSH2 0x18AA JUMP JUMPDEST SWAP1 DUP2 MSTORE PUSH1 0x20 ADD PUSH1 0x40 MLOAD DUP1 SWAP2 SUB SWAP1 KECCAK256 SWAP1 POP PUSH0 DUP2 PUSH1 0x2 ADD SLOAD SUB PUSH2 0x656 JUMPI DUP4 DUP4 DUP3 PUSH0 ADD SWAP2 DUP3 PUSH2 0x59F SWAP3 SWAP2 SWAP1 PUSH2 0x1B5E JUMP JUMPDEST POP DUP2 DUP2 PUSH1 0x1 ADD PUSH0 PUSH2 0x100 EXP DUP2 SLOAD DUP2 PUSH20 0xFFFFFFFFFFFFFFFFFFFFFFFFFFFFFFFFFFFFFFFF MUL NOT AND SWAP1 DUP4 PUSH20 0xFFFFFFFFFFFFFFFFFFFFFFFFFFFFFFFFFFFFFFFF AND MUL OR SWAP1 SSTORE POP TIMESTAMP DUP2 PUSH1 0x2 ADD DUP2 SWAP1 SSTORE POP DUP2 PUSH20 0xFFFFFFFFFFFFFFFFFFFFFFFFFFFFFFFFFFFFFFFF AND DUP5 DUP5 PUSH1 0x40 MLOAD PUSH2 0x612 SWAP3 SWAP2 SWAP1 PUSH2 0x18AA JUMP JUMPDEST PUSH1 0x40 MLOAD DUP1 SWAP2 SUB SWAP1 KECCAK256 PUSH32 0x1CA227814CECB0D4E3B9A4C4D202CE03AB7B5B8E8DF99AB1471550F72D668270 TIMESTAMP PUSH1 0x40 MLOAD PUSH2 0x649 SWAP2 SWAP1 PUSH2 0x1C2B JUMP JUMPDEST PUSH1 0x40 MLOAD DUP1 SWAP2 SUB SWAP1 LOG3 PUSH2 0x699 JUMP JUMPDEST DUP2 DUP2 PUSH1 0x1 ADD PUSH0 PUSH2 0x100 EXP DUP2 SLOAD DUP2 PUSH20 0xFFFFFFFFFFFFFFFFFFFFFFFFFFFFFFFFFFFFFFFF MUL NOT AND SWAP1 DUP4 PUSH20 0xFFFFFFFFFFFFFFFFFFFFFFFFFFFFFFFFFFFFFFFF AND MUL OR SWAP1 SSTORE POP JUMPDEST POP POP POP POP JUMP JUMPDEST PUSH0 PUSH0 SWAP1 SLOAD SWAP1 PUSH2 0x100 EXP SWAP1 DIV PUSH20 0xFFFFFFFFFFFFFFFFFFFFFFFFFFFFFFFFFFFFFFFF AND PUSH20 0xFFFFFFFFFFFFFFFFFFFFFFFFFFFFFFFFFFFFFFFF AND CALLER PUSH20 0xFFFFFFFFFFFFFFFFFFFFFFFFFFFFFFFFFFFFFFFF AND EQ PUSH2 0x72D JUMPI PUSH1 0x40 MLOAD PUSH32 0x8C379A000000000000000000000000000000000000000000000000000000000 DUP2 MSTORE PUSH1 0x4 ADD PUSH2 0x724 SWAP1 PUSH2 0x17E8 JUMP JUMPDEST PUSH1 0x40 MLOAD DUP1 SWAP2 SUB SWAP1 REVERT JUMPDEST PUSH1 0x1 PUSH0 DUP3 PUSH20 0xFFFFFFFFFFFFFFFFFFFFFFFFFFFFFFFFFFFFFFFF AND PUSH20 0xFFFFFFFFFFFFFFFFFFFFFFFFFFFFFFFFFFFFFFFF AND DUP2 MSTORE PUSH1 0x20 ADD SWAP1 DUP2 MSTORE PUSH1 0x20 ADD PUSH0 KECCAK256 PUSH0 PUSH2 0x100 EXP DUP2 SLOAD SWAP1 PUSH1 0xFF MUL NOT AND SWAP1 SSTORE DUP1 PUSH20 0xFFFFFFFFFFFFFFFFFFFFFFFFFFFFFFFFFFFFFFFF AND PUSH32 0x24A5DD50126818A1D488F90DF37AD02592196A4EA744AFF4799818139297734 PUSH1 0x40 MLOAD PUSH1 0x40 MLOAD DUP1 SWAP2 SUB SWAP1 LOG2 POP JUMP JUMPDEST PUSH0 PUSH1 0x2 DUP6 DUP6 PUSH1 0x40 MLOAD PUSH2 0x7D2 SWAP3 SWAP2 SWAP1 PUSH2 0x18AA JUMP JUMPDEST SWAP1 DUP2 MSTORE PUSH1 0x20 ADD PUSH1 0x40 MLOAD DUP1 SWAP2 SUB SWAP1 KECCAK256 PUSH1 0x40 MLOAD DUP1 PUSH1 0x60 ADD PUSH1 0x40 MSTORE SWAP1 DUP2 PUSH0 DUP3 ADD DUP1 SLOAD PUSH2 0x7FA SWAP1 PUSH2 0x198E JUMP JUMPDEST DUP1 PUSH1 0x1F ADD PUSH1 0x20 DUP1 SWAP2 DIV MUL PUSH1 0x20 ADD PUSH1 0x40 MLOAD SWAP1 DUP2 ADD PUSH1 0x40 MSTORE DUP1 SWAP3 SWAP2 SWAP1 DUP2 DUP2 MSTORE PUSH1 0x20 ADD DUP3 DUP1 SLOAD PUSH2 0x826 SWAP1 PUSH2 0x198E JUMP JUMPDEST DUP1 ISZERO PUSH2 0x871 JUMPI DUP1 PUSH1 0x1F LT PUSH2 0x848 JUMPI PUSH2 0x100 DUP1 DUP4 SLOAD DIV MUL DUP4 MSTORE SWAP2 PUSH1 0x20 ADD SWAP2 PUSH2 0x871 JUMP JUMPDEST DUP3 ADD SWAP2 SWAP1 PUSH0 MSTORE PUSH1 0x20 PUSH0 KECCAK256 SWAP1 JUMPDEST DUP2 SLOAD DUP2 MSTORE SWAP1 PUSH1 0x1 ADD SWAP1 PUSH1 0x20 ADD DUP1 DUP4 GT PUSH2 0x854 JUMPI DUP3 SWAP1 SUB PUSH1 0x1F AND DUP3 ADD SWAP2 JUMPDEST POP POP POP POP POP DUP2 MSTORE PUSH1 0x20 ADD PUSH1 0x1 DUP3 ADD PUSH0 SWAP1 SLOAD SWAP1 PUSH2 0x100 EXP SWAP1 DIV PUSH20 0xFFFFFFFFFFFFFFFFFFFFFFFFFFFFFFFFFFFFFFFF AND PUSH20 0xFFFFFFFFFFFFFFFFFFFFFFFFFFFFFFFFFFFFFFFF AND PUSH20 0xFFFFFFFFFFFFFFFFFFFFFFFFFFFFFFFFFFFFFFFF AND DUP2 MSTORE PUSH1 0x20 ADD PUSH1 0x2 DUP3 ADD SLOAD DUP2 MSTORE POP POP SWAP1 POP PUSH0 DUP2 PUSH1 0x40 ADD MLOAD SUB PUSH2 0x921 JUMPI PUSH1 0x40 MLOAD PUSH32 0x8C379A000000000000000000000000000000000000000000000000000000000 DUP2 MSTORE PUSH1 0x4 ADD PUSH2 0x918 SWAP1 PUSH2 0x1C8E JUMP JUMPDEST PUSH1 0x40 MLOAD DUP1 SWAP2 SUB SWAP1 REVERT JUMPDEST CALLER PUSH20 0xFFFFFFFFFFFFFFFFFFFFFFFFFFFFFFFFFFFFFFFF AND DUP2 PUSH1 0x20 ADD MLOAD PUSH20 0xFFFFFFFFFFFFFFFFFFFFFFFFFFFFFFFFFFFFFFFF AND EQ PUSH2 0x993 JUMPI PUSH1 0x40 MLOAD PUSH32 0x8C379A000000000000000000000000000000000000000000000000000000000 DUP2 MSTORE PUSH1 0x4 ADD PUSH2 0x98A SWAP1 PUSH2 0x1CF6 JUMP JUMPDEST PUSH1 0x40 MLOAD DUP1 SWAP2 SUB SWAP1 REVERT JUMPDEST DUP2 PUSH1 0x3 DUP7 DUP7 PUSH1 0x40 MLOAD PUSH2 0x9A6 SWAP3 SWAP2 SWAP1 PUSH2 0x18AA JUMP JUMPDEST SWAP1 DUP2 MSTORE PUSH1 0x20 ADD PUSH1 0x40 MLOAD DUP1 SWAP2 SUB SWAP1 KECCAK256 PUSH0 DUP6 DUP2 MSTORE PUSH1 0x20 ADD SWAP1 DUP2 MSTORE PUSH1 0x20 ADD PUSH0 KECCAK256 PUSH0 PUSH2 0x100 EXP DUP2 SLOAD DUP2 PUSH1 0xFF MUL NOT AND SWAP1 DUP4 ISZERO ISZERO MUL OR SWAP1 SSTORE POP TIMESTAMP PUSH1 0x4 DUP7 DUP7 PUSH1 0x40 MLOAD PUSH2 0x9EC SWAP3 SWAP2 SWAP1 PUSH2 0x18AA JUMP JUMPDEST SWAP1 DUP2 MSTORE PUSH1 0x20 ADD PUSH1 0x40 MLOAD DUP1 SWAP2 SUB SWAP1 KECCAK256 PUSH0 DUP6 DUP2 MSTORE PUSH1 0x20 ADD SWAP1 DUP2 MSTORE PUSH1 0x20 ADD PUSH0 KECCAK256 DUP2 SWAP1 SSTORE POP CALLER PUSH20 0xFFFFFFFFFFFFFFFFFFFFFFFFFFFFFFFFFFFFFFFF AND DUP4 DUP7 DUP7 PUSH1 0x40 MLOAD PUSH2 0xA35 SWAP3 SWAP2 SWAP1 PUSH2 0x18AA JUMP JUMPDEST PUSH1 0x40 MLOAD DUP1 SWAP2 SUB SWAP1 KECCAK256 PUSH32 0xAD81D6C88E64AEF25D56EC488D23E480633131C75AB8BB4ACEA9E88DAF7E76FC TIMESTAMP DUP7 PUSH1 0x40 MLOAD PUSH2 0xA6E SWAP3 SWAP2 SWAP1 PUSH2 0x1D14 JUMP JUMPDEST PUSH1 0x40 MLOAD DUP1 SWAP2 SUB SWAP1 LOG4 POP POP POP POP POP JUMP JUMPDEST PUSH1 0x60 DUP1 PUSH0 DUP5 DUP5 SWAP1 POP SWAP1 POP PUSH0 DUP2 PUSH8 0xFFFFFFFFFFFFFFFF DUP2 GT ISZERO PUSH2 0xAA2 JUMPI PUSH2 0xAA1 PUSH2 0x1934 JUMP JUMPDEST JUMPDEST PUSH1 0x40 MLOAD SWAP1 DUP1 DUP3 MSTORE DUP1 PUSH1 0x20 MUL PUSH1 0x20 ADD DUP3 ADD PUSH1 0x40 MSTORE DUP1 ISZERO PUSH2 0xAD0 JUMPI DUP2 PUSH1 0x20 ADD PUSH1 0x20 DUP3 MUL DUP1 CALLDATASIZE DUP4 CALLDATACOPY DUP1 DUP3 ADD SWAP2 POP POP SWAP1 POP JUMPDEST POP SWAP1 POP PUSH0 DUP3 PUSH8 0xFFFFFFFFFFFFFFFF DUP2 GT ISZERO PUSH2 0xAEE JUMPI PUSH2 0xAED PUSH2 0x1934 JUMP JUMPDEST JUMPDEST PUSH1 0x40 MLOAD SWAP1 DUP1 DUP3 MSTORE DUP1 PUSH1 0x20 MUL PUSH1 0x20 ADD DUP3 ADD PUSH1 0x40 MSTORE DUP1 ISZERO PUSH2 0xB1C JUMPI DUP2 PUSH1 0x20 ADD PUSH1 0x20 DUP3 MUL DUP1 CALLDATASIZE DUP4 CALLDATACOPY DUP1 DUP3 ADD SWAP2 POP POP SWAP1 POP JUMPDEST POP SWAP1 POP PUSH0 PUSH0 SWAP1 POP JUMPDEST DUP4 DUP2 LT ISZERO PUSH2 0xC1B JUMPI PUSH1 0x3 DUP11 DUP11 PUSH1 0x40 MLOAD PUSH2 0xB3E SWAP3 SWAP2 SWAP1 PUSH2 0x18AA JUMP JUMPDEST SWAP1 DUP2 MSTORE PUSH1 0x20 ADD PUSH1 0x40 MLOAD DUP1 SWAP2 SUB SWAP1 KECCAK256 PUSH0 DUP10 DUP10 DUP5 DUP2 DUP2 LT PUSH2 0xB60 JUMPI PUSH2 0xB5F PUSH2 0x1D3B JUMP JUMPDEST JUMPDEST SWAP1 POP PUSH1 0x20 MUL ADD CALLDATALOAD DUP2 MSTORE PUSH1 0x20 ADD SWAP1 DUP2 MSTORE PUSH1 0x20 ADD PUSH0 KECCAK256 PUSH0 SWAP1 SLOAD SWAP1 PUSH2 0x100 EXP SWAP1 DIV PUSH1 0xFF AND DUP4 DUP3 DUP2 MLOAD DUP2 LT PUSH2 0xB94 JUMPI PUSH2 0xB93 PUSH2 0x1D3B JUMP JUMPDEST JUMPDEST PUSH1 0x20 MUL PUSH1 0x20 ADD ADD SWAP1 ISZERO ISZERO SWAP1 DUP2 ISZERO ISZERO DUP2 MSTORE POP POP PUSH1 0x4 DUP11 DUP11 PUSH1 0x40 MLOAD PUSH2 0xBB8 SWAP3 SWAP2 SWAP1 PUSH2 0x18AA JUMP JUMPDEST SWAP1 DUP2 MSTORE PUSH1 0x20 ADD PUSH1 0x40 MLOAD DUP1 SWAP2 SUB SWAP1 KECCAK256 PUSH0 DUP10 DUP10 DUP5 DUP2 DUP2 LT PUSH2 0xBDA JUMPI PUSH2 0xBD9 PUSH2 0x1D3B JUMP JUMPDEST JUMPDEST SWAP1 POP PUSH1 0x20 MUL ADD CALLDATALOAD DUP2 MSTORE PUSH1 0x20 ADD SWAP1 DUP2 MSTORE PUSH1 0x20 ADD PUSH0 KECCAK256 SLOAD DUP3 DUP3 DUP2 MLOAD DUP2 LT PUSH2 0xC02 JUMPI PUSH2 0xC01 PUSH2 0x1D3B JUMP JUMPDEST JUMPDEST PUSH1 0x20 MUL PUSH1 0x20 ADD ADD DUP2 DUP2 MSTORE POP POP DUP1 DUP1 PUSH1 0x1 ADD SWAP2 POP POP PUSH2 0xB24 JUMP JUMPDEST POP DUP2 DUP2 SWAP5 POP SWAP5 POP POP POP POP SWAP5 POP SWAP5 SWAP3 POP POP POP JUMP JUMPDEST PUSH0 PUSH0 SWAP1 SLOAD SWAP1 PUSH2 0x100 EXP SWAP1 DIV PUSH20 0xFFFFFFFFFFFFFFFFFFFFFFFFFFFFFFFFFFFFFFFF AND DUP2 JUMP JUMPDEST PUSH1 0x1 PUSH1 0x20 MSTORE DUP1 PUSH0 MSTORE PUSH1 0x40 PUSH0 KECCAK256 PUSH0 SWAP2 POP SLOAD SWAP1 PUSH2 0x100 EXP SWAP1 DIV PUSH1 0xFF AND DUP2 JUMP JUMPDEST PUSH0 PUSH0 PUSH1 0x2 DUP5 DUP5 PUSH1 0x40 MLOAD PUSH2 0xC83 SWAP3 SWAP2 SWAP1 PUSH2 0x18AA JUMP JUMPDEST SWAP1 DUP2 MSTORE PUSH1 0x20 ADD PUSH1 0x40 MLOAD DUP1 SWAP2 SUB SWAP1 KECCAK256 PUSH1 0x2 ADD SLOAD EQ ISZERO SWAP1 POP SWAP3 SWAP2 POP POP JUMP JUMPDEST PUSH1 0x60 PUSH0 PUSH0 PUSH0 PUSH1 0x2 DUP7 DUP7 PUSH1 0x40 MLOAD PUSH2 0xCB6 SWAP3 SWAP2 SWAP1 PUSH2 0x18AA JUMP JUMPDEST SWAP1 DUP2 MSTORE PUSH1 0x20 ADD PUSH1 0x40 MLOAD DUP1 SWAP2 SUB SWAP1 KECCAK256 PUSH1 0x40 MLOAD DUP1 PUSH1 0x60 ADD PUSH1 0x40 MSTORE SWAP1 DUP2 PUSH0 DUP3 ADD DUP1 SLOAD PUSH2 0xCDE SWAP1 PUSH2 0x198E JUMP JUMPDEST DUP1 PUSH1 0x1F ADD PUSH1 0x20 DUP1 SWAP2 DIV MUL PUSH1 0x20 ADD PUSH1 0x40 MLOAD SWAP1 DUP2 ADD PUSH1 0x40 MSTORE DUP1 SWAP3 SWAP2 SWAP1 DUP2 DUP2 MSTORE PUSH1 0x20 ADD DUP3 DUP1 SLOAD PUSH2 0xD0A SWAP1 PUSH2 0x198E JUMP JUMPDEST DUP1 ISZERO PUSH2 0xD55 JUMPI DUP1 PUSH1 0x1F LT PUSH2 0xD2C JUMPI PUSH2 0x100 DUP1 DUP4 SLOAD DIV MUL DUP4 MSTORE SWAP2 PUSH1 0x20 ADD SWAP2 PUSH2 0xD55 JUMP JUMPDEST DUP3 ADD SWAP2 SWAP1 PUSH0 MSTORE PUSH1 0x20 PUSH0 KECCAK256 SWAP1 JUMPDEST DUP2 SLOAD DUP2 MSTORE SWAP1 PUSH1 0x1 ADD SWAP1 PUSH1 0x20 ADD DUP1 DUP4 GT PUSH2 0xD38 JUMPI DUP3 SWAP1 SUB PUSH1 0x1F AND DUP3 ADD SWAP2 JUMPDEST POP POP POP POP POP DUP2 MSTORE PUSH1 0x20 ADD PUSH1 0x1 DUP3 ADD PUSH0 SWAP1 SLOAD SWAP1 PUSH2 0x100 EXP SWAP1 DIV PUSH20 0xFFFFFFFFFFFFFFFFFFFFFFFFFFFFFFFFFFFFFFFF AND PUSH20 0xFFFFFFFFFFFFFFFFFFFFFFFFFFFFFFFFFFFFFFFF AND PUSH20 0xFFFFFFFFFFFFFFFFFFFFFFFFFFFFFFFFFFFFFFFF AND DUP2 MSTORE PUSH1 0x20 ADD PUSH1 0x2 DUP3 ADD SLOAD DUP2 MSTORE POP POP SWAP1 POP DUP1 PUSH0 ADD MLOAD DUP2 PUSH1 0x20 ADD MLOAD DUP3 PUSH1 0x40 ADD MLOAD SWAP4 POP SWAP4 POP SWAP4 POP POP SWAP3 POP SWAP3 POP SWAP3 JUMP JUMPDEST PUSH0 PUSH0 SWAP1 SLOAD SWAP1 PUSH2 0x100 EXP SWAP1 DIV PUSH20 0xFFFFFFFFFFFFFFFFFFFFFFFFFFFFFFFFFFFFFFFF AND PUSH20 0xFFFFFFFFFFFFFFFFFFFFFFFFFFFFFFFFFFFFFFFF AND CALLER PUSH20 0xFFFFFFFFFFFFFFFFFFFFFFFFFFFFFFFFFFFFFFFF AND EQ PUSH2 0xE69 JUMPI PUSH1 0x40 MLOAD PUSH32 0x8C379A000000000000000000000000000000000000000000000000000000000 DUP2 MSTORE PUSH1 0x4 ADD PUSH2 0xE60 SWAP1 PUSH2 0x17E8 JUMP JUMPDEST PUSH1 0x40 MLOAD DUP1 SWAP2 SUB SWAP1 REVERT JUMPDEST PUSH0 PUSH20 0xFFFFFFFFFFFFFFFFFFFFFFFFFFFFFFFFFFFFFFFF AND DUP2 PUSH20 0xFFFFFFFFFFFFFFFFFFFFFFFFFFFFFFFFFFFFFFFF AND SUB PUSH2 0xED7 JUMPI PUSH1 0x40 MLOAD PUSH32 0x8C379A000000000000000000000000000000000000000000000000000000000 DUP2 MSTORE PUSH1 0x4 ADD PUSH2 0xECE SWAP1 PUSH2 0x1850 JUMP JUMPDEST PUSH1 0x40 MLOAD DUP1 SWAP2 SUB SWAP1 REVERT JUMPDEST DUP1 PUSH0 PUSH0 PUSH2 0x100 EXP DUP2 SLOAD DUP2 PUSH20 0xFFFFFFFFFFFFFFFFFFFFFFFFFFFFFFFFFFFFFFFF MUL NOT AND SWAP1 DUP4 PUSH20 0xFFFFFFFFFFFFFFFFFFFFFFFFFFFFFFFFFFFFFFFF AND MUL OR SWAP1 SSTORE POP POP JUMP JUMPDEST PUSH1 0x1 PUSH0 CALLER PUSH20 0xFFFFFFFFFFFFFFFFFFFFFFFFFFFFFFFFFFFFFFFF AND PUSH20 0xFFFFFFFFFFFFFFFFFFFFFFFFFFFFFFFFFFFFFFFF AND DUP2 MSTORE PUSH1 0x20 ADD SWAP1 DUP2 MSTORE PUSH1 0x20 ADD PUSH0 KECCAK256 PUSH0 SWAP1 SLOAD SWAP1 PUSH2 0x100 EXP SWAP1 DIV PUSH1 0xFF AND DUP1 PUSH2 0xFB9 JUMPI POP PUSH0 PUSH0 SWAP1 SLOAD SWAP1 PUSH2 0x100 EXP SWAP1 DIV PUSH20 0xFFFFFFFFFFFFFFFFFFFFFFFFFFFFFFFFFFFFFFFF AND PUSH20 0xFFFFFFFFFFFFFFFFFFFFFFFFFFFFFFFFFFFFFFFF AND CALLER PUSH20 0xFFFFFFFFFFFFFFFFFFFFFFFFFFFFFFFFFFFFFFFF AND EQ JUMPDEST PUSH2 0xFF8 JUMPI PUSH1 0x40 MLOAD PUSH32 0x8C379A000000000000000000000000000000000000000000000000000000000 DUP2 MSTORE PUSH1 0x4 ADD PUSH2 0xFEF SWAP1 PUSH2 0x190C JUMP JUMPDEST PUSH1 0x40 MLOAD DUP1 SWAP2 SUB SWAP1 REVERT JUMPDEST PUSH2 0x1002 DUP5 DUP5 PUSH2 0xC6F JUMP JUMPDEST PUSH2 0x1041 JUMPI PUSH1 0x40 MLOAD PUSH32 0x8C379A000000000000000000000000000000000000000000000000000000000 DUP2 MSTORE PUSH1 0x4 ADD PUSH2 0x1038 SWAP1 PUSH2 0x1C8E JUMP JUMPDEST PUSH1 0x40 MLOAD DUP1 SWAP2 SUB SWAP1 REVERT JUMPDEST DUP1 PUSH1 0x3 DUP6 DUP6 PUSH1 0x40 MLOAD PUSH2 0x1054 SWAP3 SWAP2 SWAP1 PUSH2 0x18AA JUMP JUMPDEST SWAP1 DUP2 MSTORE PUSH1 0x20 ADD PUSH1 0x40 MLOAD DUP1 SWAP2 SUB SWAP1 KECCAK256 PUSH0 DUP5 DUP2 MSTORE PUSH1 0x20 ADD SWAP1 DUP2 MSTORE PUSH1 0x20 ADD PUSH0 KECCAK256 PUSH0 PUSH2 0x100 EXP DUP2 SLOAD DUP2 PUSH1 0xFF MUL NOT AND SWAP1 DUP4 ISZERO ISZERO MUL OR SWAP1 SSTORE POP TIMESTAMP PUSH1 0x4 DUP6 DUP6 PUSH1 0x40 MLOAD PUSH2 0x109A SWAP3 SWAP2 SWAP1 PUSH2 0x18AA JUMP JUMPDEST SWAP1 DUP2 MSTORE PUSH1 0x20 ADD PUSH1 0x40 MLOAD DUP1 SWAP2 SUB SWAP1 KECCAK256 PUSH0 DUP5 DUP2 MSTORE PUSH1 0x20 ADD SWAP1 DUP2 MSTORE PUSH1 0x20 ADD PUSH0 KECCAK256 DUP2 SWAP1 SSTORE POP CALLER PUSH20 0xFFFFFFFFFFFFFFFFFFFFFFFFFFFFFFFFFFFFFFFF AND DUP3 DUP6 DUP6 PUSH1 0x40 MLOAD PUSH2 0x10E3 SWAP3 SWAP2 SWAP1 PUSH2 0x18AA JUMP JUMPDEST PUSH1 0x40 MLOAD DUP1 SWAP2 SUB SWAP1 KECCAK256 PUSH32 0xAD81D6C88E64AEF25D56EC488D23E480633131C75AB8BB4ACEA9E88DAF7E76FC TIMESTAMP DUP6 PUSH1 0x40 MLOAD PUSH2 0x111C SWAP3 SWAP2 SWAP1 PUSH2 0x1D14 JUMP JUMPDEST PUSH1 0x40 MLOAD DUP1 SWAP2 SUB SWAP1 LOG4 POP POP POP POP JUMP JUMPDEST PUSH0 PUSH0 REVERT JUMPDEST PUSH0 PUSH0 REVERT JUMPDEST PUSH0 PUSH20 0xFFFFFFFFFFFFFFFFFFFFFFFFFFFFFFFFFFFFFFFF DUP3 AND SWAP1 POP SWAP2 SWAP1 POP JUMP JUMPDEST PUSH0 PUSH2 0x115B DUP3 PUSH2 0x1132 JUMP JUMPDEST SWAP1 POP SWAP2 SWAP1 POP JUMP JUMPDEST PUSH2 0x116B DUP2 PUSH2 0x1151 JUMP JUMPDEST DUP2 EQ PUSH2 0x1175 JUMPI PUSH0 PUSH0 REVERT JUMPDEST POP JUMP JUMPDEST PUSH0 DUP2 CALLDATALOAD SWAP1 POP PUSH2 0x1186 DUP2 PUSH2 0x1162 JUMP JUMPDEST SWAP3 SWAP2 POP POP JUMP JUMPDEST PUSH0 PUSH1 0x20 DUP3 DUP5 SUB SLT ISZERO PUSH2 0x11A1 JUMPI PUSH2 0x11A0 PUSH2 0x112A JUMP JUMPDEST JUMPDEST PUSH0 PUSH2 0x11AE DUP5 DUP3 DUP6 ADD PUSH2 0x1178 JUMP JUMPDEST SWAP2 POP POP SWAP3 SWAP2 POP POP JUMP JUMPDEST PUSH0 PUSH0 REVERT JUMPDEST PUSH0 PUSH0 REVERT JUMPDEST PUSH0 PUSH0 REVERT JUMPDEST PUSH0 PUSH0 DUP4 PUSH1 0x1F DUP5 ADD SLT PUSH2 0x11D8 JUMPI PUSH2 0x11D7 PUSH2 0x11B7 JUMP JUMPDEST JUMPDEST DUP3 CALLDATALOAD SWAP1 POP PUSH8 0xFFFFFFFFFFFFFFFF DUP2 GT ISZERO PUSH2 0x11F5 JUMPI PUSH2 0x11F4 PUSH2 0x11BB JUMP JUMPDEST JUMPDEST PUSH1 0x20 DUP4 ADD SWAP2 POP DUP4 PUSH1 0x1 DUP3 MUL DUP4 ADD GT ISZERO PUSH2 0x1211 JUMPI PUSH2 0x1210 PUSH2 0x11BF JUMP JUMPDEST JUMPDEST SWAP3 POP SWAP3 SWAP1 POP JUMP JUMPDEST PUSH0 DUP2 SWAP1 POP SWAP2 SWAP1 POP JUMP JUMPDEST PUSH2 0x122A DUP2 PUSH2 0x1218 JUMP JUMPDEST DUP2 EQ PUSH2 0x1234 JUMPI PUSH0 PUSH0 REVERT JUMPDEST POP JUMP JUMPDEST PUSH0 DUP2 CALLDATALOAD SWAP1 POP PUSH2 0x1245 DUP2 PUSH2 0x1221 JUMP JUMPDEST SWAP3 SWAP2 POP POP JUMP JUMPDEST PUSH0 PUSH0 PUSH0 PUSH1 0x40 DUP5 DUP7 SUB SLT ISZERO PUSH2 0x1262 JUMPI PUSH2 0x1261 PUSH2 0x112A JUMP JUMPDEST JUMPDEST PUSH0 DUP5 ADD CALLDATALOAD PUSH8 0xFFFFFFFFFFFFFFFF DUP2 GT ISZERO PUSH2 0x127F JUMPI PUSH2 0x127E PUSH2 0x112E JUMP JUMPDEST JUMPDEST PUSH2 0x128B DUP7 DUP3 DUP8 ADD PUSH2 0x11C3 JUMP JUMPDEST SWAP4 POP SWAP4 POP POP PUSH1 0x20 PUSH2 0x129E DUP7 DUP3 DUP8 ADD PUSH2 0x1237 JUMP JUMPDEST SWAP2 POP POP SWAP3 POP SWAP3 POP SWAP3 JUMP JUMPDEST PUSH0 DUP2 ISZERO ISZERO SWAP1 POP SWAP2 SWAP1 POP JUMP JUMPDEST PUSH2 0x12BC DUP2 PUSH2 0x12A8 JUMP JUMPDEST DUP3 MSTORE POP POP JUMP JUMPDEST PUSH2 0x12CB DUP2 PUSH2 0x1218 JUMP JUMPDEST DUP3 MSTORE POP POP JUMP JUMPDEST PUSH0 PUSH1 0x40 DUP3 ADD SWAP1 POP PUSH2 0x12E4 PUSH0 DUP4 ADD DUP6 PUSH2 0x12B3 JUMP JUMPDEST PUSH2 0x12F1 PUSH1 0x20 DUP4 ADD DUP5 PUSH2 0x12C2 JUMP JUMPDEST SWAP4 SWAP3 POP POP POP JUMP JUMPDEST PUSH0 PUSH0 PUSH0 PUSH1 0x40 DUP5 DUP7 SUB SLT ISZERO PUSH2 0x130F JUMPI PUSH2 0x130E PUSH2 0x112A JUMP JUMPDEST JUMPDEST PUSH0 DUP5 ADD CALLDATALOAD PUSH8 0xFFFFFFFFFFFFFFFF DUP2 GT ISZERO PUSH2 0x132C JUMPI PUSH2 0x132B PUSH2 0x112E JUMP JUMPDEST JUMPDEST PUSH2 0x1338 DUP7 DUP3 DUP8 ADD PUSH2 0x11C3 JUMP JUMPDEST SWAP4 POP SWAP4 POP POP PUSH1 0x20 PUSH2 0x134B DUP7 DUP3 DUP8 ADD PUSH2 0x1178 JUMP JUMPDEST SWAP2 POP POP SWAP3 POP SWAP3 POP SWAP3 JUMP JUMPDEST PUSH2 0x135E DUP2 PUSH2 0x12A8 JUMP JUMPDEST DUP2 EQ PUSH2 0x1368 JUMPI PUSH0 PUSH0 REVERT JUMPDEST POP JUMP JUMPDEST PUSH0 DUP2 CALLDATALOAD SWAP1 POP PUSH2 0x1379 DUP2 PUSH2 0x1355 JUMP JUMPDEST SWAP3 SWAP2 POP POP JUMP JUMPDEST PUSH0 PUSH0 PUSH0 PUSH0 PUSH1 0x60 DUP6 DUP8 SUB SLT ISZERO PUSH2 0x1397 JUMPI PUSH2 0x1396 PUSH2 0x112A JUMP JUMPDEST JUMPDEST PUSH0 DUP6 ADD CALLDATALOAD PUSH8 0xFFFFFFFFFFFFFFFF DUP2 GT ISZERO PUSH2 0x13B4 JUMPI PUSH2 0x13B3 PUSH2 0x112E JUMP JUMPDEST JUMPDEST PUSH2 0x13C0 DUP8 DUP3 DUP9 ADD PUSH2 0x11C3 JUMP JUMPDEST SWAP5 POP SWAP5 POP POP PUSH1 0x20 PUSH2 0x13D3 DUP8 DUP3 DUP9 ADD PUSH2 0x1237 JUMP JUMPDEST SWAP3 POP POP PUSH1 0x40 PUSH2 0x13E4 DUP8 DUP3 DUP9 ADD PUSH2 0x136B JUMP JUMPDEST SWAP2 POP POP SWAP3 SWAP6 SWAP2 SWAP5 POP SWAP3 POP JUMP JUMPDEST PUSH0 PUSH0 DUP4 PUSH1 0x1F DUP5 ADD SLT PUSH2 0x1405 JUMPI PUSH2 0x1404 PUSH2 0x11B7 JUMP JUMPDEST JUMPDEST DUP3 CALLDATALOAD SWAP1 POP PUSH8 0xFFFFFFFFFFFFFFFF DUP2 GT ISZERO PUSH2 0x1422 JUMPI PUSH2 0x1421 PUSH2 0x11BB JUMP JUMPDEST JUMPDEST PUSH1 0x20 DUP4 ADD SWAP2 POP DUP4 PUSH1 0x20 DUP3 MUL DUP4 ADD GT ISZERO PUSH2 0x143E JUMPI PUSH2 0x143D PUSH2 0x11BF JUMP JUMPDEST JUMPDEST SWAP3 POP SWAP3 SWAP1 POP JUMP JUMPDEST PUSH0 PUSH0 PUSH0 PUSH0 PUSH1 0x40 DUP6 DUP8 SUB SLT ISZERO PUSH2 0x145D JUMPI PUSH2 0x145C PUSH2 0x112A JUMP JUMPDEST JUMPDEST PUSH0 DUP6 ADD CALLDATALOAD PUSH8 0xFFFFFFFFFFFFFFFF DUP2 GT ISZERO PUSH2 0x147A JUMPI PUSH2 0x1479 PUSH2 0x112E JUMP JUMPDEST JUMPDEST PUSH2 0x1486 DUP8 DUP3 DUP9 ADD PUSH2 0x11C3 JUMP JUMPDEST SWAP5 POP SWAP5 POP POP PUSH1 0x20 DUP6 ADD CALLDATALOAD PUSH8 0xFFFFFFFFFFFFFFFF DUP2 GT ISZERO PUSH2 0x14A9 JUMPI PUSH2 0x14A8 PUSH2 0x112E JUMP JUMPDEST JUMPDEST PUSH2 0x14B5 DUP8 DUP3 DUP9 ADD PUSH2 0x13F0 JUMP JUMPDEST SWAP3 POP SWAP3 POP POP SWAP3 SWAP6 SWAP2 SWAP5 POP SWAP3 POP JUMP JUMPDEST PUSH0 DUP2 MLOAD SWAP1 POP SWAP2 SWAP1 POP JUMP JUMPDEST PUSH0 DUP3 DUP3 MSTORE PUSH1 0x20 DUP3 ADD SWAP1 POP SWAP3 SWAP2 POP POP JUMP JUMPDEST PUSH0 DUP2 SWAP1 POP PUSH1 0x20 DUP3 ADD SWAP1 POP SWAP2 SWAP1 POP JUMP JUMPDEST PUSH2 0x14F5 DUP2 PUSH2 0x12A8 JUMP JUMPDEST DUP3 MSTORE POP POP JUMP JUMPDEST PUSH0 PUSH2 0x1506 DUP4 DUP4 PUSH2 0x14EC JUMP JUMPDEST PUSH1 0x20 DUP4 ADD SWAP1 POP SWAP3 SWAP2 POP POP JUMP JUMPDEST PUSH0 PUSH1 0x20 DUP3 ADD SWAP1 POP SWAP2 SWAP1 POP JUMP JUMPDEST PUSH0 PUSH2 0x1528 DUP3 PUSH2 0x14C3 JUMP JUMPDEST PUSH2 0x1532 DUP2 DUP6 PUSH2 0x14CD JUMP JUMPDEST SWAP4 POP PUSH2 0x153D DUP4 PUSH2 0x14DD JUMP JUMPDEST DUP1 PUSH0 JUMPDEST DUP4 DUP2 LT ISZERO PUSH2 0x156D JUMPI DUP2 MLOAD PUSH2 0x1554 DUP9 DUP3 PUSH2 0x14FB JUMP JUMPDEST SWAP8 POP PUSH2 0x155F DUP4 PUSH2 0x1512 JUMP JUMPDEST SWAP3 POP POP PUSH1 0x1 DUP2 ADD SWAP1 POP PUSH2 0x1540 JUMP JUMPDEST POP DUP6 SWAP4 POP POP POP POP SWAP3 SWAP2 POP POP JUMP JUMPDEST PUSH0 DUP2 MLOAD SWAP1 POP SWAP2 SWAP1 POP JUMP JUMPDEST PUSH0 DUP3 DUP3 MSTORE PUSH1 0x20 DUP3 ADD SWAP1 POP SWAP3 SWAP2 POP POP JUMP JUMPDEST PUSH0 DUP2 SWAP1 POP PUSH1 0x20 DUP3 ADD SWAP1 POP SWAP2 SWAP1 POP JUMP JUMPDEST PUSH2 0x15AC DUP2 PUSH2 0x1218 JUMP JUMPDEST DUP3 MSTORE POP POP JUMP JUMPDEST PUSH0 PUSH2 0x15BD DUP4 DUP4 PUSH2 0x15A3 JUMP JUMPDEST PUSH1 0x20 DUP4 ADD SWAP1 POP SWAP3 SWAP2 POP POP JUMP JUMPDEST PUSH0 PUSH1 0x20 DUP3 ADD SWAP1 POP SWAP2 SWAP1 POP JUMP JUMPDEST PUSH0 PUSH2 0x15DF DUP3 PUSH2 0x157A JUMP JUMPDEST PUSH2 0x15E9 DUP2 DUP6 PUSH2 0x1584 JUMP JUMPDEST SWAP4 POP PUSH2 0x15F4 DUP4 PUSH2 0x1594 JUMP JUMPDEST DUP1 PUSH0 JUMPDEST DUP4 DUP2 LT ISZERO PUSH2 0x1624 JUMPI DUP2 MLOAD PUSH2 0x160B DUP9 DUP3 PUSH2 0x15B2 JUMP JUMPDEST SWAP8 POP PUSH2 0x1616 DUP4 PUSH2 0x15C9 JUMP JUMPDEST SWAP3 POP POP PUSH1 0x1 DUP2 ADD SWAP1 POP PUSH2 0x15F7 JUMP JUMPDEST POP DUP6 SWAP4 POP POP POP POP SWAP3 SWAP2 POP POP JUMP JUMPDEST PUSH0 PUSH1 0x40 DUP3 ADD SWAP1 POP DUP2 DUP2 SUB PUSH0 DUP4 ADD MSTORE PUSH2 0x1649 DUP2 DUP6 PUSH2 0x151E JUMP JUMPDEST SWAP1 POP DUP2 DUP2 SUB PUSH1 0x20 DUP4 ADD MSTORE PUSH2 0x165D DUP2 DUP5 PUSH2 0x15D5 JUMP JUMPDEST SWAP1 POP SWAP4 SWAP3 POP POP POP JUMP JUMPDEST PUSH2 0x166F DUP2 PUSH2 0x1151 JUMP JUMPDEST DUP3 MSTORE POP POP JUMP JUMPDEST PUSH0 PUSH1 0x20 DUP3 ADD SWAP1 POP PUSH2 0x1688 PUSH0 DUP4 ADD DUP5 PUSH2 0x1666 JUMP JUMPDEST SWAP3 SWAP2 POP POP JUMP JUMPDEST PUSH0 PUSH1 0x20 DUP3 ADD SWAP1 POP PUSH2 0x16A1 PUSH0 DUP4 ADD DUP5 PUSH2 0x12B3 JUMP JUMPDEST SWAP3 SWAP2 POP POP JUMP JUMPDEST PUSH0 PUSH0 PUSH1 0x20 DUP4 DUP6 SUB SLT ISZERO PUSH2 0x16BD JUMPI PUSH2 0x16BC PUSH2 0x112A JUMP JUMPDEST JUMPDEST PUSH0 DUP4 ADD CALLDATALOAD PUSH8 0xFFFFFFFFFFFFFFFF DUP2 GT ISZERO PUSH2 0x16DA JUMPI PUSH2 0x16D9 PUSH2 0x112E JUMP JUMPDEST JUMPDEST PUSH2 0x16E6 DUP6 DUP3 DUP7 ADD PUSH2 0x11C3 JUMP JUMPDEST SWAP3 POP SWAP3 POP POP SWAP3 POP SWAP3 SWAP1 POP JUMP JUMPDEST PUSH0 DUP2 MLOAD SWAP1 POP SWAP2 SWAP1 POP JUMP JUMPDEST PUSH0 DUP3 DUP3 MSTORE PUSH1 0x20 DUP3 ADD SWAP1 POP SWAP3 SWAP2 POP POP JUMP JUMPDEST DUP3 DUP2 DUP4 MCOPY PUSH0 DUP4 DUP4 ADD MSTORE POP POP POP JUMP JUMPDEST PUSH0 PUSH1 0x1F NOT PUSH1 0x1F DUP4 ADD AND SWAP1 POP SWAP2 SWAP1 POP JUMP JUMPDEST PUSH0 PUSH2 0x1734 DUP3 PUSH2 0x16F2 JUMP JUMPDEST PUSH2 0x173E DUP2 DUP6 PUSH2 0x16FC JUMP JUMPDEST SWAP4 POP PUSH2 0x174E DUP2 DUP6 PUSH1 0x20 DUP7 ADD PUSH2 0x170C JUMP JUMPDEST PUSH2 0x1757 DUP2 PUSH2 0x171A JUMP JUMPDEST DUP5 ADD SWAP2 POP POP SWAP3 SWAP2 POP POP JUMP JUMPDEST PUSH0 PUSH1 0x60 DUP3 ADD SWAP1 POP DUP2 DUP2 SUB PUSH0 DUP4 ADD MSTORE PUSH2 0x177A DUP2 DUP7 PUSH2 0x172A JUMP JUMPDEST SWAP1 POP PUSH2 0x1789 PUSH1 0x20 DUP4 ADD DUP6 PUSH2 0x1666 JUMP JUMPDEST PUSH2 0x1796 PUSH1 0x40 DUP4 ADD DUP5 PUSH2 0x12C2 JUMP JUMPDEST SWAP5 SWAP4 POP POP POP POP JUMP JUMPDEST PUSH32 0x6F6E6C79206F776E657200000000000000000000000000000000000000000000 PUSH0 DUP3 ADD MSTORE POP JUMP JUMPDEST PUSH0 PUSH2 0x17D2 PUSH1 0xA DUP4 PUSH2 0x16FC JUMP JUMPDEST SWAP2 POP PUSH2 0x17DD DUP3 PUSH2 0x179E JUMP JUMPDEST PUSH1 0x20 DUP3 ADD SWAP1 POP SWAP2 SWAP1 POP JUMP JUMPDEST PUSH0 PUSH1 0x20 DUP3 ADD SWAP1 POP DUP2 DUP2 SUB PUSH0 DUP4 ADD MSTORE PUSH2 0x17FF DUP2 PUSH2 0x17C6 JUMP JUMPDEST SWAP1 POP SWAP2 SWAP1 POP JUMP JUMPDEST PUSH32 0x7A65726F20616464726573730000000000000000000000000000000000000000 PUSH0 DUP3 ADD MSTORE POP JUMP JUMPDEST PUSH0 PUSH2 0x183A PUSH1 0xC DUP4 PUSH2 0x16FC JUMP JUMPDEST SWAP2 POP PUSH2 0x1845 DUP3 PUSH2 0x1806 JUMP JUMPDEST PUSH1 0x20 DUP3 ADD SWAP1 POP SWAP2 SWAP1 POP JUMP JUMPDEST PUSH0 PUSH1 0x20 DUP3 ADD SWAP1 POP DUP2 DUP2 SUB PUSH0 DUP4 ADD MSTORE PUSH2 0x1867 DUP2 PUSH2 0x182E JUMP JUMPDEST SWAP1 POP SWAP2 SWAP1 POP JUMP JUMPDEST PUSH0 DUP2 SWAP1 POP SWAP3 SWAP2 POP POP JUMP JUMPDEST DUP3 DUP2 DUP4 CALLDATACOPY PUSH0 DUP4 DUP4 ADD MSTORE POP POP POP JUMP JUMPDEST PUSH0 PUSH2 0x1891 DUP4 DUP6 PUSH2 0x186E JUMP JUMPDEST SWAP4 POP PUSH2 0x189E DUP4 DUP6 DUP5 PUSH2 0x1878 JUMP JUMPDEST DUP3 DUP5 ADD SWAP1 POP SWAP4 SWAP3 POP POP POP JUMP JUMPDEST PUSH0 PUSH2 0x18B6 DUP3 DUP5 DUP7 PUSH2 0x1886 JUMP JUMPDEST SWAP2 POP DUP2 SWAP1 POP SWAP4 SWAP3 POP POP POP JUMP JUMPDEST PUSH32 0x6E6F7420617574686F72697A6564000000000000000000000000000000000000 PUSH0 DUP3 ADD MSTORE POP JUMP JUMPDEST PUSH0 PUSH2 0x18F6 PUSH1 0xE DUP4 PUSH2 0x16FC JUMP JUMPDEST SWAP2 POP PUSH2 0x1901 DUP3 PUSH2 0x18C2 JUMP JUMPDEST PUSH1 0x20 DUP3 ADD SWAP1 POP SWAP2 SWAP1 POP JUMP JUMPDEST PUSH0 PUSH1 0x20 DUP3 ADD SWAP1 POP DUP2 DUP2 SUB PUSH0 DUP4 ADD MSTORE PUSH2 0x1923 DUP2 PUSH2 0x18EA JUMP JUMPDEST SWAP1 POP SWAP2 SWAP1 POP JUMP JUMPDEST PUSH0 DUP3 SWAP1 POP SWAP3 SWAP2 POP POP JUMP JUMPDEST PUSH32 0x4E487B7100000000000000000000000000000000000000000000000000000000 PUSH0 MSTORE PUSH1 0x41 PUSH1 0x4 MSTORE PUSH1 0x24 PUSH0 REVERT JUMPDEST PUSH32 0x4E487B7100000000000000000000000000000000000000000000000000000000 PUSH0 MSTORE PUSH1 0x22 PUSH1 0x4 MSTORE PUSH1 0x24 PUSH0 REVERT JUMPDEST PUSH0 PUSH1 0x2 DUP3 DIV SWAP1 POP PUSH1 0x1 DUP3 AND DUP1 PUSH2 0x19A5 JUMPI PUSH1 0x7F DUP3 AND SWAP2 POP JUMPDEST PUSH1 0x20 DUP3 LT DUP2 SUB PUSH2 0x19B8 JUMPI PUSH2 0x19B7 PUSH2 0x1961 JUMP JUMPDEST JUMPDEST POP SWAP2 SWAP1 POP JUMP JUMPDEST PUSH0 DUP2 SWAP1 POP DUP2 PUSH0 MSTORE PUSH1 0x20 PUSH0 KECCAK256 SWAP1 POP SWAP2 SWAP1 POP JUMP JUMPDEST PUSH0 PUSH1 0x20 PUSH1 0x1F DUP4 ADD DIV SWAP1 POP SWAP2 SWAP1 POP JUMP JUMPDEST PUSH0 DUP3 DUP3 SHL SWAP1 POP SWAP3 SWAP2 POP POP JUMP JUMPDEST PUSH0 PUSH1 0x8 DUP4 MUL PUSH2 0x1A1A PUSH32 0xFFFFFFFFFFFFFFFFFFFFFFFFFFFFFFFFFFFFFFFFFFFFFFFFFFFFFFFFFFFFFFFF DUP3 PUSH2 0x19DF JUMP JUMPDEST PUSH2 0x1A24 DUP7 DUP4 PUSH2 0x19DF JUMP JUMPDEST SWAP6 POP DUP1 NOT DUP5 AND SWAP4 POP DUP1 DUP7 AND DUP5 OR SWAP3 POP POP POP SWAP4 SWAP3 POP POP POP JUMP JUMPDEST PUSH0 DUP2 SWAP1 POP SWAP2 SWAP1 POP JUMP JUMPDEST PUSH0 PUSH2 0x1A5F PUSH2 0x1A5A PUSH2 0x1A55 DUP5 PUSH2 0x1218 JUMP JUMPDEST PUSH2 0x1A3C JUMP JUMPDEST PUSH2 0x1218 JUMP JUMPDEST SWAP1 POP SWAP2 SWAP1 POP JUMP JUMPDEST PUSH0 DUP2 SWAP1 POP SWAP2 SWAP1 POP JUMP JUMPDEST PUSH2 0x1A78 DUP4 PUSH2 0x1A45 JUMP JUMPDEST PUSH2 0x1A8C PUSH2 0x1A84 DUP3 PUSH2 0x1A66 JUMP JUMPDEST DUP5 DUP5 SLOAD PUSH2 0x19EB JUMP JUMPDEST DUP3 SSTORE POP POP POP POP JUMP JUMPDEST PUSH0 PUSH0 SWAP1 POP SWAP1 JUMP JUMPDEST PUSH2 0x1AA3 PUSH2 0x1A94 JUMP JUMPDEST PUSH2 0x1AAE DUP2 DUP5 DUP5 PUSH2 0x1A6F JUMP JUMPDEST POP POP POP JUMP JUMPDEST JUMPDEST DUP2 DUP2 LT ISZERO PUSH2 0x1AD1 JUMPI PUSH2 0x1AC6 PUSH0 DUP3 PUSH2 0x1A9B JUMP JUMPDEST PUSH1 0x1 DUP2 ADD SWAP1 POP PUSH2 0x1AB4 JUMP JUMPDEST POP POP JUMP JUMPDEST PUSH1 0x1F DUP3 GT ISZERO PUSH2 0x1B16 JUMPI PUSH2 0x1AE7 DUP2 PUSH2 0x19BE JUMP JUMPDEST PUSH2 0x1AF0 DUP5 PUSH2 0x19D0 JUMP JUMPDEST DUP2 ADD PUSH1 0x20 DUP6 LT ISZERO PUSH2 0x1AFF JUMPI DUP2 SWAP1 POP JUMPDEST PUSH2 0x1B13 PUSH2 0x1B0B DUP6 PUSH2 0x19D0 JUMP JUMPDEST DUP4 ADD DUP3 PUSH2 0x1AB3 JUMP JUMPDEST POP POP JUMPDEST POP POP POP JUMP JUMPDEST PUSH0 DUP3 DUP3 SHR SWAP1 POP SWAP3 SWAP2 POP POP JUMP JUMPDEST PUSH0 PUSH2 0x1B36 PUSH0 NOT DUP5 PUSH1 0x8 MUL PUSH2 0x1B1B JUMP JUMPDEST NOT DUP1 DUP4 AND SWAP2 POP POP SWAP3 SWAP2 POP POP JUMP JUMPDEST PUSH0 PUSH2 0x1B4E DUP4 DUP4 PUSH2 0x1B27 JUMP JUMPDEST SWAP2 POP DUP3 PUSH1 0x2 MUL DUP3 OR SWAP1 POP SWAP3 SWAP2 POP POP JUMP JUMPDEST PUSH2 0x1B68 DUP4 DUP4 PUSH2 0x192A JUMP JUMPDEST PUSH8 0xFFFFFFFFFFFFFFFF DUP2 GT ISZERO PUSH2 0x1B81 JUMPI PUSH2 0x1B80 PUSH2 0x1934 JUMP JUMPDEST JUMPDEST PUSH2 0x1B8B DUP3 SLOAD PUSH2 0x198E JUMP JUMPDEST PUSH2 0x1B96 DUP3 DUP3 DUP6 PUSH2 0x1AD5 JUMP JUMPDEST PUSH0 PUSH1 0x1F DUP4 GT PUSH1 0x1 DUP2 EQ PUSH2 0x1BC3 JUMPI PUSH0 DUP5 ISZERO PUSH2 0x1BB1 JUMPI DUP3 DUP8 ADD CALLDATALOAD SWAP1 POP JUMPDEST PUSH2 0x1BBB DUP6 DUP3 PUSH2 0x1B43 JUMP JUMPDEST DUP7 SSTORE POP PUSH2 0x1C22 JUMP JUMPDEST PUSH1 0x1F NOT DUP5 AND PUSH2 0x1BD1 DUP7 PUSH2 0x19BE JUMP JUMPDEST PUSH0 JUMPDEST DUP3 DUP2 LT ISZERO PUSH2 0x1BF8 JUMPI DUP5 DUP10 ADD CALLDATALOAD DUP3 SSTORE PUSH1 0x1 DUP3 ADD SWAP2 POP PUSH1 0x20 DUP6 ADD SWAP5 POP PUSH1 0x20 DUP2 ADD SWAP1 POP PUSH2 0x1BD3 JUMP JUMPDEST DUP7 DUP4 LT ISZERO PUSH2 0x1C15 JUMPI DUP5 DUP10 ADD CALLDATALOAD PUSH2 0x1C11 PUSH1 0x1F DUP10 AND DUP3 PUSH2 0x1B27 JUMP JUMPDEST DUP4 SSTORE POP JUMPDEST PUSH1 0x1 PUSH1 0x2 DUP9 MUL ADD DUP9 SSTORE POP POP POP JUMPDEST POP POP POP POP POP POP POP JUMP JUMPDEST PUSH0 PUSH1 0x20 DUP3 ADD SWAP1 POP PUSH2 0x1C3E PUSH0 DUP4 ADD DUP5 PUSH2 0x12C2 JUMP JUMPDEST SWAP3 SWAP2 POP POP JUMP JUMPDEST PUSH32 0x73747564656E74206E6F74207265676973746572656400000000000000000000 PUSH0 DUP3 ADD MSTORE POP JUMP JUMPDEST PUSH0 PUSH2 0x1C78 PUSH1 0x16 DUP4 PUSH2 0x16FC JUMP JUMPDEST SWAP2 POP PUSH2 0x1C83 DUP3 PUSH2 0x1C44 JUMP JUMPDEST PUSH1 0x20 DUP3 ADD SWAP1 POP SWAP2 SWAP1 POP JUMP JUMPDEST PUSH0 PUSH1 0x20 DUP3 ADD SWAP1 POP DUP2 DUP2 SUB PUSH0 DUP4 ADD MSTORE PUSH2 0x1CA5 DUP2 PUSH2 0x1C6C JUMP JUMPDEST SWAP1 POP SWAP2 SWAP1 POP JUMP JUMPDEST PUSH32 0x77616C6C6574206D69736D617463680000000000000000000000000000000000 PUSH0 DUP3 ADD MSTORE POP JUMP JUMPDEST PUSH0 PUSH2 0x1CE0 PUSH1 0xF DUP4 PUSH2 0x16FC JUMP JUMPDEST SWAP2 POP PUSH2 0x1CEB DUP3 PUSH2 0x1CAC JUMP JUMPDEST PUSH1 0x20 DUP3 ADD SWAP1 POP SWAP2 SWAP1 POP JUMP JUMPDEST PUSH0 PUSH1 0x20 DUP3 ADD SWAP1 POP DUP2 DUP2 SUB PUSH0 DUP4 ADD MSTORE PUSH2 0x1D0D DUP2 PUSH2 0x1CD4 JUMP JUMPDEST SWAP1 POP SWAP2 SWAP1 POP JUMP JUMPDEST PUSH0 PUSH1 0x40 DUP3 ADD SWAP1 POP PUSH2 0x1D27 PUSH0 DUP4 ADD DUP6 PUSH2 0x12C2 JUMP JUMPDEST PUSH2 0x1D34 PUSH1 0x20 DUP4 ADD DUP5 PUSH2 0x12B3 JUMP JUMPDEST SWAP4 SWAP3 POP POP POP JUMP JUMPDEST PUSH32 0x4E487B7100000000000000000000000000000000000000000000000000000000 PUSH0 MSTORE PUSH1 0x32 PUSH1 0x4 MSTORE PUSH1 0x24 PUSH0 REVERT INVALID LOG2 PUSH5 0x6970667358 0x22 SLT KECCAK256 0xEB SELFBALANCE DUP8 PUSH0 0xBC 0xB8 DUP8 SDIV 0xC8 0xBE DUP16 SWAP7 PUSH7 0xA874E4DB0CE84E INVALID SWAP9 CALLDATALOAD 0xDA PUSH27 0x52A8BF48555D4764736F6C634300081E0033000000000000000000 "
				},
				"gasEstimates": {
					"creation": {
						"codeDepositCost": "1516400",
						"executionCost": "25844",
						"totalCost": "1542244"
					},
					"external": {
						"addTeacher(address)": "28167",
						"batchIsPresent(string,uint256[])": "infinite",
						"getStudent(string)": "infinite",
						"isPresent(string,uint256)": "infinite",
						"isRegistered(string)": "infinite",
						"isTeacher(address)": "2855",
						"markAttendance(string,uint256,bool)": "infinite",
						"owner()": "2507",
						"registerStudent(string,address)": "infinite",
						"removeTeacher(address)": "28174",
						"selfCheckIn(string,uint256,bool)": "infinite",
						"transferOwnership(address)": "27004"
					}
				},
				"methodIdentifiers": {
					"addTeacher(address)": "3bc6e309",
					"batchIsPresent(string,uint256[])": "85bbdb4a",
					"getStudent(string)": "d0296612",
					"isPresent(string,uint256)": "4282c686",
					"isRegistered(string)": "c822d7f0",
					"isTeacher(address)": "aec37eb3",
					"markAttendance(string,uint256,bool)": "f6705d6e",
					"owner()": "8da5cb5b",
					"registerStudent(string,address)": "528bcbac",
					"removeTeacher(address)": "52ff6846",
					"selfCheckIn(string,uint256,bool)": "7a3cacdc",
					"transferOwnership(address)": "f2fde38b"
				}
			},
			"storageLayout": {
				"storage": [
					{
						"astId": 4,
						"contract": "attendance.sol:Attendance",
						"label": "owner",
						"offset": 0,
						"slot": "0",
						"type": "t_address"
					},
					{
						"astId": 51,
						"contract": "attendance.sol:Attendance",
						"label": "isTeacher",
						"offset": 0,
						"slot": "1",
						"type": "t_mapping(t_address,t_bool)"
					},
					{
						"astId": 116,
						"contract": "attendance.sol:Attendance",
						"label": "students",
						"offset": 0,
						"slot": "2",
						"type": "t_mapping(t_string_memory_ptr,t_struct(Student)111_storage)"
					},
					{
						"astId": 240,
						"contract": "attendance.sol:Attendance",
						"label": "attendance",
						"offset": 0,
						"slot": "3",
						"type": "t_mapping(t_string_memory_ptr,t_mapping(t_uint256,t_bool))"
					},
					{
						"astId": 246,
						"contract": "attendance.sol:Attendance",
						"label": "attendanceTs",
						"offset": 0,
						"slot": "4",
						"type": "t_mapping(t_string_memory_ptr,t_mapping(t_uint256,t_uint256))"
					}
				],
				"types": {
					"t_address": {
						"encoding": "inplace",
						"label": "address",
						"numberOfBytes": "20"
					},
					"t_bool": {
						"encoding": "inplace",
						"label": "bool",
						"numberOfBytes": "1"
					},
					"t_mapping(t_address,t_bool)": {
						"encoding": "mapping",
						"key": "t_address",
						"label": "mapping(address => bool)",
						"numberOfBytes": "32",
						"value": "t_bool"
					},
					"t_mapping(t_string_memory_ptr,t_mapping(t_uint256,t_bool))": {
						"encoding": "mapping",
						"key": "t_string_memory_ptr",
						"label": "mapping(string => mapping(uint256 => bool))",
						"numberOfBytes": "32",
						"value": "t_mapping(t_uint256,t_bool)"
					},
					"t_mapping(t_string_memory_ptr,t_mapping(t_uint256,t_uint256))": {
						"encoding": "mapping",
						"key": "t_string_memory_ptr",
						"label": "mapping(string => mapping(uint256 => uint256))",
						"numberOfBytes": "32",
						"value": "t_mapping(t_uint256,t_uint256)"
					},
					"t_mapping(t_string_memory_ptr,t_struct(Student)111_storage)": {
						"encoding": "mapping",
						"key": "t_string_memory_ptr",
						"label": "mapping(string => struct Attendance.Student)",
						"numberOfBytes": "32",
						"value": "t_struct(Student)111_storage"
					},
					"t_mapping(t_uint256,t_bool)": {
						"encoding": "mapping",
						"key": "t_uint256",
						"label": "mapping(uint256 => bool)",
						"numberOfBytes": "32",
						"value": "t_bool"
					},
					"t_mapping(t_uint256,t_uint256)": {
						"encoding": "mapping",
						"key": "t_uint256",
						"label": "mapping(uint256 => uint256)",
						"numberOfBytes": "32",
						"value": "t_uint256"
					},
					"t_string_memory_ptr": {
						"encoding": "bytes",
						"label": "string",
						"numberOfBytes": "32"
					},
					"t_string_storage": {
						"encoding": "bytes",
						"label": "string",
						"numberOfBytes": "32"
					},
					"t_struct(Student)111_storage": {
						"encoding": "inplace",
						"label": "struct Attendance.Student",
						"members": [
							{
								"astId": 106,
								"contract": "attendance.sol:Attendance",
								"label": "studentId",
								"offset": 0,
								"slot": "0",
								"type": "t_string_storage"
							},
							{
								"astId": 108,
								"contract": "attendance.sol:Attendance",
								"label": "wallet",
								"offset": 0,
								"slot": "1",
								"type": "t_address"
							},
							{
								"astId": 110,
								"contract": "attendance.sol:Attendance",
								"label": "registeredAt",
								"offset": 0,
								"slot": "2",
								"type": "t_uint256"
							}
						],
						"numberOfBytes": "96"
					},
					"t_uint256": {
						"encoding": "inplace",
						"label": "uint256",
						"numberOfBytes": "32"
					}
				}
			},
			"userdoc": {
				"kind": "user",
				"methods": {
					"batchIsPresent(string,uint256[])": {
						"notice": "Get attendance for a list of dayKeys (useful for UI)"
					},
					"isPresent(string,uint256)": {
						"notice": "Anyone can check if a student was present on a given dayKey"
					},
					"markAttendance(string,uint256,bool)": {
						"notice": "Mark attendance for a student on a specific dayKey. Only teachers or owner can mark."
					},
					"registerStudent(string,address)": {
						"notice": "Register a student (teacher or owner)"
					}
				},
				"notice": "Simple on-chain attendance system: owner (school) can appoint teacher(s); teachers register students and mark attendance per-day. Anyone can verify attendance.",
				"version": 1
			}
		}
	}
}